:1000000000060020310500005905000059050000D8
:1000100000000000000000000000000000000000E0
:100020000000000000000000000000005905000072
:100030000000000000000000590500005905000004
:100040005905000059050000590500005905000038
:100050005905000059050000590500005905000028
:10006000F13F000059050000FB3F0000590500006A
:100070005905000059050000590500005D390000D0
:1000800059050000590500005905000059050000F8
:10009000CD2E0000E52E0000590500005905000096
:1000A00059050000590500005905000059050000D8
:1000B00059050000590500005905000059050000C8
:10040000FFFFFFFFFFFFFFFFFFFFFFFFFE3DFFFFBF
:1004100008B5054B054803331B1A062B03D9044BBB
:10042000002B00D0984708BD94FFFF1F94FFFF1FCB
:10043000000000000648074908B5091A8910CB0FCB
:100440005918491003D0044B002B00D0984708BD21
:1004500094FFFF1F94FFFF1F0000000010B5074C22
:100460002378002B09D1FFF7D3FF054B002B02D0D7
:10047000044800E000BF0123237010BD94FFFF1F5C
:1004800000000000A863000008B5094B002B03D052
:100490000848094900E000BF08480368002B02D162
:1004A000FFF7C8FF08BD064B002BF9D09847F7E7C8
:1004B00000000000A863000098FFFF1F90FFFF1FCF
:1004C00000000000144B002B00D1124B9D4640222F
:1004D00092029A1A924600218B460F461148124A00
:1004E000121A05F098FA0D4B002B00D098470C4BD0
:1004F000002B00D098470020002104000D000B487D
:1005000005F00DFA05F044FA2000290002F09AFEE9
:1005100005F014FA000008000006002000000000AA
:100520000000000094FFFF1F98030020695900009D
:1005300072B606480649074A02600A6003F062FD87
:1005400003F0A2FD62B6FFF7BDFF000080E100E00E
:1005500080E200E0FFFFFFFF004800475905000070
:1005600002B4714649084900095C49008E4402BC46
:100570007047C046002243088B4274D303098B4264
:100580005FD3030A8B4244D3030B8B4228D3030C63
:100590008B420DD3FF22090212BA030C8B4202D305
:1005A0001212090265D0030B8B4219D300E0090A2D
:1005B000C30B8B4201D3CB03C01A5241830B8B4236
:1005C00001D38B03C01A5241430B8B4201D34B031F
:1005D000C01A5241030B8B4201D30B03C01A524184
:1005E000C30A8B4201D3CB02C01A5241830A8B4209
:1005F00001D38B02C01A5241430A8B4201D34B02F2
:10060000C01A5241030A8B4201D30B02C01A524155
:10061000CDD2C3098B4201D3CB01C01A5241830909
:100620008B4201D38B01C01A524143098B4201D343
:100630004B01C01A524103098B4201D30B01C01A6E
:100640005241C3088B4201D3CB00C01A52418308E8
:100650008B4201D38B00C01A524143088B4201D315
:100660004B00C01A5241411A00D201465241104675
:100670007047FFE701B5002000F0FCF802BDC0465E
:100680000029F7D003B5FFF775FF0EBC4243891A66
:100690001847C04603460B437FD4002243088B42D1
:1006A00074D303098B425FD3030A8B4244D3030BF9
:1006B0008B4228D3030C8B420DD3FF22090212BABE
:1006C000030C8B4202D31212090265D0030B8B423A
:1006D00019D300E0090AC30B8B4201D3CB03C01A24
:1006E0005241830B8B4201D38B03C01A5241430BFF
:1006F0008B4201D34B03C01A5241030B8B4201D3EF
:100700000B03C01A5241C30A8B4201D3CB02C01A59
:100710005241830A8B4201D38B02C01A5241430AD1
:100720008B4201D34B02C01A5241030A8B4201D3C0
:100730000B02C01A5241CDD2C3098B4201D3CB0167
:10074000C01A524183098B4201D38B01C01A524116
:1007500043098B4201D34B01C01A524103098B421A
:1007600001D30B01C01A5241C3088B4201D3CB0005
:10077000C01A524183088B4201D38B00C01A5241E8
:1007800043088B4201D34B00C01A5241411A00D298
:1007900001465241104670475DE0CA0F00D0494201
:1007A000031000D34042534000229C4603098B4271
:1007B0002DD3030A8B4212D3FC22890112BA030AF9
:1007C0008B420CD3890192118B4208D3890192117B
:1007D0008B4204D389013AD0921100E08909C30900
:1007E0008B4201D3CB01C01A524183098B4201D302
:1007F0008B01C01A524143098B4201D34B01C01AED
:10080000524103098B4201D30B01C01A5241C30864
:100810008B4201D3CB00C01A524183088B4201D3D3
:100820008B00C01A5241D9D243088B4201D34B00EE
:10083000C01A5241411A00D20146634652415B1030
:10084000104601D34042002B00D549427047634611
:100850005B1000D3404201B5002000F00BF802BD50
:100860000029F8D003B5FFF715FF0EBC4243891AE3
:100870001847C0467047C0468446081C6146FFE7DB
:100880001FB500F093FB002801D40021C8421FBD12
:1008900010B500F017FB4042013010BD10B500F05C
:1008A00085FB002801DB002010BD012010BDC046E3
:1008B00010B500F07BFB002801DD002010BD0120F9
:1008C00010BDC04610B500F027FB002801DC002059
:1008D00010BD012010BDC04610B500F01DFB002862
:1008E00001DA002010BD012010BDC0469E2110B5C8
:1008F000C905041CFFF7F0FF002803D1201C00F0FD
:100900004BFE10BD9E21201CC90500F0C7FC00F065
:1009100043FE80231B069C466044F2E770B502F05C
:1009200005F800220B4B0D1C041C01F07DF902F0B0
:10093000FFF8061C01F0C8FF0022074B01F074F914
:10094000021C0B1C201C291C01F008FC02F0F0F812
:10095000311C70BD0000F03D0000F041F8B54A00C8
:10096000430244004E02C50F240E281C9B09120EA0
:10097000C90FB7098D4240D0A01A002800DC84E0DE
:10098000002A1CD1002F5CD15A0704D00F221A4034
:10099000042A00D004338022D2041A40281C002AE2
:1009A00024D00134FF2C00D17BE09B015B0AE4B230
:1009B0005B02E4055B0A2343C0071843F8BDFF2C24
:1009C000E2D08022D204174301261B2808DC391C00
:1009D00020223E1CC140101A8640771EBE410E43A5
:1009E0009B1B5A0133D4281C5A07CFD1DB08FF2C9C
:1009F0001ED05B025B0AE4B2DAE7A11A002957DDD8
:100A0000002A3AD0FF2CBFD08022D20417430126FF
:100A10001B2972DD9B195A01E5D50134FF2C00D149
:100A200087E001218A4A194013405B080B43ABE77A
:100A3000002B36D08022D20313435B025B0AFF24D3
:100A4000B6E7013800283FD1DB1B5A01CBD59B010B
:100A50009E09301C02F04EF805388640844223DCA3
:100A6000001B1F24321C431C201ADA408640131C32
:100A7000741EA6410024334386E7002F00D183E78C
:100A80000139002950D1DB19C5E7002820D1621CAB
:100A9000D2B2012A5EDDDE1B720128D5FE1A0D1CC2
:100AA000D7E7FF24002383E7694B241A33406BE721
:100AB000002958D1621CD1B201293CDDFF2A37D070
:100AC000FB185B08141C5FE7FF2C00D07CE75BE79A
:100AD000002C1ED0FF2A23D08024E404404223436C
:100AE0001B285BDD0123FB1A141C0D1CADE7002E37
:100AF000AFD100230020002478E73A1CCA40944676
:100B000020223E1C511A8E406246771EBE4116437B
:100B100080E7002B3ED0C0430028E4D0FF2ADFD17D
:100B20003B1CFF240D1C2FE7FF2C00D06FE72BE7A9
:100B3000FF2400235AE7002C5AD1002B7FD0002F2E
:100B400000D121E7DB195A0100D44CE7404A0134B7
:100B5000134019E7002C15D1002B2FD1002F5DD0A9
:100B60003B1C0D1C10E7002C21D1002B53D0C94396
:100B7000002904D0FF2A4BD01B2957DD0123DB19A4
:100B8000141C48E7002B22D1002F4AD03B1C0D1C1F
:100B9000FF24F9E63B1C141C0D1CF5E61D1C20244B
:100BA000C540201A8340581E83412B439BE7FF2AF0
:100BB0002ED08024E40449422343DDE7002F00D1F6
:100BC000E2E6DA1B50013CD5FB1A0D1CDCE6FF24E3
:100BD000002F00D1D8E68022DB08D203134204D0D4
:100BE000FE08164201D1331C0D1CDB00FF24CBE6AE
:100BF000002B0DD0FF24002F00D1C5E68022DB089A
:100C0000D2031342F1D0FE081642EED1331CECE7BA
:100C10003B1CFF24B8E63B1C141CB5E6231C00203B
:100C2000E4E6802300209B04FF24DFE61E1C202432
:100C3000CE40611A8B40591E8B4133439FE73B1CCA
:100C4000A2E6131E00D0CEE600230020CEE6C0466A
:100C5000FFFFFFFBF0B556464D465F464446F0B4F5
:100C600043024500C70F83B08A465C0A2E0EB94680
:100C700041D0FF2E26D080231B042343DC00002319
:100C800098469B467F3E53465B025D0A53465A0098
:100C9000DB0F120E9A4639D0FF2A33D080231B0473
:100CA0002B43DD0000237F3A5146B21A4646794075
:100CB000081C01921E430F2E00D976E07E4AB60032
:100CC0009659B746002C30D108239846063B9B46E0
:100CD000D9E780230021DB03FF245B02E4055B0AE4
:100CE000C90723430B43181C03B03CBC90469946EC
:100CF000A246AB46F0BD002C28D104239846033B06
:100D00009B46C0E7002D1FD1022302E0002D11D128
:100D10000123B21A50464646784001921E430F2ED8
:100D200027D86649B60089598F460C239846093B57
:100D30009B46A8E7281C01F0DDFE7622431F5242A5
:100D40009D40121A0023AFE70323ADE7201C01F0FA
:100D5000D1FE431F9C4076235B421E1A0023984617
:100D60009B4690E70025D1469B465B464846022BB2
:100D70006FD10121FF2401400023AEE77E23019AB9
:100D80005B429B1A1B2B6DDD01214B461940002451
:100D90000023A2E78023DB031C4249D18023DB032D
:100DA00023435B025B0A391C96E763016D01AB428A
:100DB00037D389461A2001215B1B01241E1C4900E0
:100DC0005B00002E01DBAB4201D35B1B21430138EA
:100DD0000028F3D1581E83410B431D1C019C7F3416
:100DE000002CCBDD6B0704D00F232B40042B00D04D
:100DF00004352B0104D5019A314B8032141C1D405F
:100E0000FE2C07DD4B460121FF241940002364E737
:100E1000251CAAE701214A46AB015B0AE4B2114056
:100E20005BE7019A8946013A01921B200021C4E741
:100E30001D4207D023435B025B0A391C4CE70025A7
:100E40006302ABD58023DB032B435B025B0A514675
:100E500042E7032B25D0012BC0D101210024014002
:100E600000233AE7291CD9402B1C019A9E3293405B
:100E70005D1EAB410B435A0704D00F221A40042ACF
:100E800000D004335A0105D54B46012101241940F5
:100E9000002322E701214A469B015B0A11400024FE
:100EA0001BE7802301214A46DB032B435B020A40F8
:100EB0005B0A111C10E7C0463C5E00007C5E00002F
:100EC000FFFFFFF7430270B542004C005D0AC30FFD
:100ED0004802120E460A240EC90FFF2A05D0FF2C25
:100EE00008D00120A2420BD070BD0120002DFBD103
:100EF000FF2CF6D10120002EF6D10120A242F3D121
:100F0000B542F1D18B4205D0002AEDD1281C431EF9
:100F10009841E9E70020E7E7F0B543024D024A00B7
:100F200044005E0A240EC30F6D0A120EC90FFF2C77
:100F30000DD0FF2A31D0002C0DD177427741002A05
:100F400023D1002D21D10020002F0BD107E0002E4E
:100F500028D1FF2A21D0002A05D08B4207D0584241
:100F600001231843F0BD002DF9D08B42F7D19442F4
:100F7000F5DC04DBAE42F2D80020AE42F2D2584299
:100F8000434101205B421843ECE7002FE5D0484283
:100F90004141012049420843E4E7002D02D1002CE1
:100FA000CBD0DAE702204042DCE7C0464302F0B58E
:100FB00042004C005E0AC30F4802120E450A240E7E
:100FC000C90FFF2A0FD0FF2C1AD0002A10D1774268
:100FD0007741002C29D0002F17D0484241410120F1
:100FE000494208430BE00220002E08D1FF2C07D015
:100FF000002C0AD1002D08D1584201231843F0BD1E
:101000000220002DFBD1002AE1D08B42F4D1A24274
:10101000F2DC04DBAE42EFD80020AE42EFD2584201
:10102000434101205B421843E9E7002DD3D1002062
:10103000002FE4D1E0E7C046F0B55F4656464D4686
:101040004446F0B445024600C40F83B00F1C6D0A3D
:10105000360EA34645D0FF2E25D080231B041D430A
:1010600000239A46ED007F3E01937B025B0A98467F
:101070007800FB0F000E994640D0FF2838D080231F
:1010800042461B041343DB00984600237F384A4640
:10109000019F30186240411C1F430F2F69D87D4EBD
:1010A000BF00F659B746002D45D108230193063BF2
:1010B0009A46DAE793465346022B2FD15B4601242A
:1010C00000251C40FF236D02DB056D0AE4071D436C
:1010D0002543281C03B03CBC90469946A246AB462B
:1010E000F0BD002D2CD104230193033B9A46BCE7AD
:1010F00043465A4253410322D31AC8E742460123CA
:10110000002AC4D0404601F0F5FC4246431F9A40F5
:1011100076235B42181A90460023B8E7032B00D1D0
:10112000ADE0012B00D08CE05B4654461C40E4B29D
:1011300000230025C7E70C230193093B9A4694E757
:10114000281C01F0D7FC7626431F9D4000237642E1
:10115000361A01939A4688E780250024ED03FF2381
:10116000B1E74546CB469A46A5E7454693469A469B
:10117000A1E743462C041B0C9C46230C4446260442
:101180001C1C360C2F0C7443351C66467D43734380
:101190007743EB18260C9E19B54203D980235B02D6
:1011A0009C46674424043304240C1B199D016C1EC7
:1011B000A5419B0E360C2B43BD19AD011D432B01E0
:1011C00004D5012368081D400543081C031C7F3318
:1011D000002B2CDD690704D00F212940042900D001
:1011E0000435290103D52C4B1D40031C8033FE2BF5
:1011F00017DD0124FF231440002564E78020C0038D
:10120000054209D04346034206D1454605436D02D7
:101210006D0A4C46FF2356E705436D026D0AFF2316
:1012200051E70124AD016D0ADBB214404BE77E2388
:101230005B421B1A1B2B07DD0124002314400025F1
:1012400041E7081C5A46C1E79E30291C8540D94019
:10125000681E85410D436B0704D00F232B40042BE0
:1012600000D004356B0104D501240123144000256E
:1012700029E70124AD016D0A1440002323E78023F0
:10128000DB031D4301245B466D0223401C1C6D0AD9
:10129000FF2318E7BC5E0000FFFFFFF7F8B54A0028
:1012A000430244004D02C00F240E061C9B09120E7F
:1012B000C90FAD09FF2A00D175E0012779408842A6
:1012C00050D0A01A002800DC8FE0002A1ED1002D8B
:1012D00000D075E05A0704D00F221A40042A00D02B
:1012E000043380220120D2041A403040002A32D038
:1012F0000134FF2C00D184E09B015B0AE4B25B0265
:10130000E4055B0A2343C0071843F8BDFF2CE1D076
:101310008022D20415431B287ADD01255B1B5A016C
:101320005DD59B019F09381C01F0E4FB053887401F
:10133000844269DC001B1F243A1C431C201ADA403B
:101340008740131C7C1EA74100243B43C2E7131EA9
:1013500045D100230020DB08FF2C28D05B025B0A6C
:10136000E4B2CCE7A11A00295BDD002A2ED0FF2CC5
:10137000B0D08022D20415431B2974DC2F1C2022FC
:10138000CF40511A8D40691E8D413D435B195A0172
:1013900025D50134FF2C74D001217E4A1940134019
:1013A0005B080B4396E7002D00D088E785E7002B0C
:1013B00027D08022D20313435B025B0AFF249EE7FF
:1013C00001380028AAD0FF2CA5D183E7002D00D139
:1013D00080E701390029D9D0FF2CCDD17AE75A070F
:1013E00000D079E701203040B5E7002825D1621C04
:1013F000D2B2012A55DD5F1B7A012DD5EF1A0E1CE2
:1014000091E7FF2400237AE7624B241A3B4061E70F
:10141000291C2022C140101A8540681E85410D43B9
:101420007CE7002946D1621CD1B201292BDDFF2ABD
:1014300026D0EB185B08141C4CE7002C15D0FF2AB3
:101440001AD08024E404404223431B284DDD0123AD
:10145000EB1A141C0E1C62E7002F00D063E7002378
:101460000020002477E7012590E7002B39D0C04306
:101470000028EDD0FF2AE8D12B1CFF240E1C29E701
:10148000FF24002367E7002C5AD1002B7FD0002DCA
:1014900000D11FE75B195A01A1D53E4A0134134020
:1014A00018E7002C15D1002B2FD1002D5ED02B1C5E
:1014B0000E1C0FE7002C21D1002B54D0C94300296A
:1014C00004D0FF2A4CD01B2958DD01235B19141CC2
:1014D0005DE7002B23D1002D4BD02B1C0E1CFF24CD
:1014E000F8E62B1C141C0E1CF4E61E1C2024C6401F
:1014F000201A8340581E83413343A9E7FF2A2FD087
:101500008024E40449422343DDE7002D00D1E1E6D5
:101510005A1B500100D41AE7EB1A0E1CDAE6FF241E
:10152000002D00D1D6E68022DB08D203134204D07E
:10153000ED08154201D12B1C0E1CDB00FF24C9E66F
:10154000002B0DD0FF24002D00D1C3E68022DB0844
:10155000D2031342F1D0ED081542EED12B1CECE77B
:101560002B1CFF24B6E62B1C141CB3E6231C002006
:10157000F1E6802300209B04FF24ECE61F1C2024BE
:10158000CF40611A8B40591E8B413B439EE72B1C79
:10159000A0E6C046FFFFFFFB4202510A4200C30F14
:1015A000120E00207E2A0DDD9D2A0CDC8020000416
:1015B0000143952A0ADC9620821AD1400A1C58421F
:1015C0004240D0187047034A9818FBE7963A91407A
:1015D0000A1CF4E7FFFFFF7FF0B5454657464E462D
:1015E00094464C000A03C90FE0B488460E1C190348
:1015F000470FC500480A6146490F01436046520A39
:101600001743C0005A00640D520DDB0F8446984505
:1016100000D1A7E0A01A002800DC01E1002A3DD19A
:1016200063460B4300D0D4E06B0700D188E00F2362
:101630002B40042B00D183E02A1DAA42AD41802318
:101640006D427F191B043B404646151C002B00D100
:101650007CE0CC4B01349C4200D1FDE03A1CCA4BEB
:10166000ED081A405007640552020543120B640D41
:10167000002112030B0D1B056405120B1A436308AE
:10168000C24CF60714401C43640064083443281C11
:10169000211C1CBC90469946A246F0BDB94B9C4209
:1016A000C2D080231B041943382800DDECE01F283A
:1016B00000DD21E120220E1C6346121A9640C34031
:1016C000334366469640321C561EB24113430A1CF1
:1016D000C240EB1A9D42B6411D1CBA1A7642971BB6
:1016E0003B0200D497E07A02560A002E00D1B6E001
:1016F000301C01F0FFF9031C083B1F2B00DDB7E095
:101700009E40371C28262A1C361AF240161C9D4083
:101710003E439C4200DDB2E01C1B621C1F2A00DD20
:10172000D8E01F23291C1C1B331CA540A340D1401B
:101730006C1EA541D64019430D43371C002473E7A6
:1017400080231B043B40464600D082E78D4BED08CA
:1017500078070543FA089C4232D012036405120B45
:10176000640D85E7A31A002B00DC94E0002A3CD02E
:10177000844A944200D157E7802212041143382B47
:1017800000DC05E163461943481E81410022C8B2CE
:101790004019A8429B41051CD2195B42D7183B0255
:1017A00039D5784B01349C4200D14CE10120764A76
:1017B0006B083A4028401843D5070543570833E7DC
:1017C0002B1C134348D080231B031A431203120B14
:1017D0004EE70138002878D16346EE1AB5429B41A6
:1017E0007A1A5B42D71A351C7AE7021C0A4300D1E9
:1017F0001AE7013B002B00D0F2E04019A8429B41C0
:10180000CA195B42D718051CC9E7131C334300D122
:1018100018E1171C351C46466B0700D007E795E713
:1018200000287AD1621C5205520D012A00DCFBE02F
:101830006246AA1A9542B6419146781A7242861AB1
:10184000320200D493E06246551BAC458041CF1B69
:1018500040423E1A984648E70022002508E7281C27
:1018600001F048F92030031C083B1F2B00DC47E740
:10187000283885402E1C00259C4200DC4CE7424A5B
:10188000E41A1640371CCFE6634619434B1E9941B4
:101890000022CBB21DE7002B00D0F2E0601C430514
:1018A0005B0D012B00DCA4E0364B984200D121E116
:1018B00063465C19AC429B41CF195B42FA1864083D
:1018C000D50725435708041CAEE62E4B9C4200D09A
:1018D000EAE6A9E6211C331C1F39CB40191C202A3B
:1018E00000D182E03F231C1BA64035436E1EB5414C
:1018F00000270D4300248EE7031C0E1C203BDE4016
:10190000202874D040231B1A99400B1C62461343B5
:10191000591E8B4100223343DBE6002C50D0194C7A
:10192000A24200D1A8E08024240440422743382862
:1019300000DDD9E01F2800DD39E120243E1C241AF7
:10194000A640B0462E1CA146C640444626434C46FF
:10195000A5406C1EA541C74035436046451BCF1BC3
:10196000AC45894149427F1A141C9846B8E64B465B
:101970004D46334300D0B8E600260027002400255A
:10198000E4E6C046FF070000FFFF7FFFFFFF0F8078
:101990001F2B5BDC2022081CD21A90408146604637
:1019A0009246D8404A46104381465246604690408F
:1019B000021C501E8241484610430A1CDA40E7E6EA
:1019C0003C1C2C4358D0C043002851D16046451BD5
:1019D000AC458041CF1B40423F1A141C98467FE61D
:1019E0008F4A944200D0CAE61EE600267DE7002317
:1019F0008CE73B1C2B43002C00D0BDE0002B00D11A
:101A0000F5E063460B4300D10EE663465B19AB423B
:101A10008041CA19404217183A0200D4FCE0814ABA
:101A20001D1C17400134FFE53A1C2A43002C51D1FC
:101A3000002A00D085E062460A4303D00F1C6546A9
:101A40009846F1E50026002700257FE6181C0A1CB1
:101A50002038C240202B00D1A7E04020C01A81408E
:101A6000081C63461843411E8841104300228FE63C
:101A70006B4CA24200D05AE70F1C6546141C9846D6
:101A8000D2E5002C3AD1381C284371D0DB43002B1F
:101A900018D0634882426BD0382B00DD9DE01F2BAD
:101AA00000DDA7E020203C1CC01A8440A1462C1C6D
:101AB0008246DC404846044350468540681E8541C6
:101AC000DF402543654465459B417F185B42FF1815
:101AD000141C64E6002A19D162460A4377D00F1C11
:101AE000654698464E4C9FE53D436F1EBD4100271D
:101AF000EDB232E7041C0027002527E64848824261
:101B000036D0802000045B420743C5E762460A43A3
:101B100049D08024ED087807FA082403284322429C
:101B200009D0CE08264206D162464F07381CD2089B
:101B300010439846321CD200470F1743C500384C5B
:101B400072E562460A4300D16EE56246AE1AB542BE
:101B50009241781A5242821A100200D455E6624627
:101B6000551BAC458041CA1B4042171A98465BE59D
:101B70000F1C6546141C57E5002B34D063460B43FD
:101B800011D08024ED087807FA0824032843224264
:101B9000D1D0CB082342CED162464F07381CD208A1
:101BA00010431A1CC7E71E4C3EE5002059E7041CF1
:101BB0003E1C203CE640341C20282BD04026301A06
:101BC00087403D436F1EBD4100272543C5E6802762
:101BD0000026FF03124C0025B8E53D436F1EBD41B2
:101BE0000027EDB26EE70F1C65460D4C1CE50F1C7F
:101BF000654619E51C1C381C203CE040041C202BC9
:101C00000CD04020C31A9F403D436F1EBD410027AA
:101C1000254357E70027D4E71D1CFCE50027F3E721
:101C2000FF070000FFFF7FFFF0B55F4656464D46B9
:101C30004446F0B4051C061C080387B099464F00C3
:101C4000030BCC0F92469B467F0D019467D06C4BE3
:101C50009F4236D080205B4640031843C0006B0F84
:101C60001843684B83469C4600239846EE00674421
:101C700000934B4649461D03C90F5B0052462D0B8E
:101C80005B0D894600D16EE05D498B4264D08020B7
:101C90005C4940038C4600210543ED00500F05438D
:101CA000D20063444846FF187B1C9A46009B604064
:101CB00002900B430F2B00D9ACE053489B00C35854
:101CC0009F465B461D4300D082E00823009300231B
:101CD0009B46023300269846CBE7029B019343467E
:101CE000022B59D1012400250026019B1C40444BA6
:101CF00000212D030A0D12052D0B1543434A1B0528
:101D000015401D436D00E4076D082543301C291C58
:101D100007B03CBC90469946A246AB46F0BD2B436B
:101D20004ED05B46002B00D185E1584600F0E2FE24
:101D3000021C2823291C9B1A161C5846D940083E11
:101D4000B0400B1CB54003439B462E1C0023304F74
:101D50000093BF1A98468CE7514629432ED100259F
:101D6000002202219EE75146294323D0002D00D1B5
:101D700054E1281C00F0BEFE031C28215046C91A5D
:101D80001A1CC8405146083A914095400A1C054328
:101D90001F480021C31A85E7032B00D1C2E1012BA4
:101DA00000D06DE14446019B00251C40E4B20023B5
:101DB00000269DE700250022012173E7032171E73A
:101DC0000423009300239B4601330026984650E7E6
:101DD0000C230093093B98464BE7802500242D03F4
:101DE0000026074B84E74B46AB46161C01938846FA
:101DF00075E7029BAB46161C019388466FE7C04609
:101E0000FF07000001FCFFFFFC5E0000FFFF0F80EA
:101E10000DFCFFFF330C3604360C9C46331C140CAF
:101E20001204120C53439846634653439946634643
:101E300063430193331C41466343090C4B445B18D5
:101E4000994505D980204002814601994944019174
:101E5000190C039141460904090C1B045B180493F7
:101E60002B0C9846331C2D04290C4B4360460093E1
:101E70004346654658435E43009B4D431B0C9946C1
:101E8000AE194E448446B54203D980235B0299467D
:101E9000CC44350C2B1C0398634484460593009B6B
:101EA00036041B041B0CF3189C44604603905846F0
:101EB0000504060C280C84465043351C81466046B8
:101EC000654344434846000C8346724314195C44FE
:101ED000A24203D98022520293465D44220CAD18DF
:101EE0004A461204120C24044046A41862464A438F
:101EF0007143464360460096464670438046100C48
:101F000084468844E044414505D9802149028C46F5
:101F10000099614400910198039984466144994273
:101F20009B415B4299460598434684461204120C35
:101F30001B049B1863449C46AB4683429B4140462E
:101F40000A19CC44A2428941E344CC45B6415C46DF
:101F5000000C8046494276425B4264183343984401
:101F60008C428941AB459B4149425B4219430D1C60
:101F7000009B4544EE187602E50D2E43B346049BC4
:101F800056021E43731E9E415B46D20D32436602CB
:101F90001643DB010AD50123334076081E435B4616
:101FA000DB071E435B465B089B465746634BFB18AB
:101FB000002B5ADD720709D00F223240042A05D0C7
:101FC000321DB242B6417642B344161C5A46D20183
:101FD00006D55A465A4B1A4080239346DB00FB181D
:101FE000584A934234DD0124029B00251C40002600
:101FF000554B7DE680205B460003034208D0054236
:1020000006D105432D032D0B4C46161C4E4B6FE697
:102010005D4605432D032D0B4B4B69E6504600F002
:1020200069FD031C2033272B00DCA6E65546083843
:1020300085400022ACE6281C00F05CFD021C20322A
:10204000272A00DC75E6083885400026AB467DE689
:102050005A46F608520716435A4601245502029A78
:102060005B052D0B5B0D144042E6384DED1B382D02
:102070000ADD0124029B00251C400026002337E6D0
:10208000019B5746029391E71F2D25DC304B321CF4
:102090009C466744BE405B46BB40371CEA407E1E00
:1020A000B74113433B431E1C5B46EB401D1C7307AB
:1020B00009D00F233340042B05D0331DB342B64162
:1020C0007642AD191E1C2B0220D50124029B00254F
:1020D0001C40002601230BE65A461E4BDB1BDA4050
:1020E000131C202D1CD01C4A94465A466744BA4003
:1020F000171C3E43721E96411E43072300253340A2
:1021000007D00F2300253340042BD6D16B076D0277
:102110002D0B0124F6081E43029B1C400023E7E51B
:102120000027E6E780255B4601242D031D43019B24
:102130002D0323401C1C2D0B034BD9E5FF0300008E
:10214000FFFFFFFEFE070000FF07000002FCFFFF8D
:102150001E040000E2FBFFFF3E040000F0B54D4608
:1021600044465F465646F0B40E1C111C3203520A18
:10217000470F1743C5001A035800DB0F9946520A50
:102180004B0F83B01A43CB000193CF4B7400F60F73
:10219000640DB046400D984200D1E8E00123494665
:1021A00059400B1C9E4200D1B1E0261A002E00DCE3
:1021B0001CE1002842D1131C01990B4300D0E6E03A
:1021C0006B0700D18EE00F232B40042B00D189E058
:1021D0002A1DAA42AD418023012641466D427F1946
:1021E0001B043B400E40151C002B00D183E0B64B76
:1021F00001349C4200D116E13A1CB44BED081A4060
:102200005007640552020543120B640D00211203AE
:102210000B0D1B056405120B1A436308AC4CF60743
:1022200014401C43640064083443281C211C03B080
:102230003CBC90469946A246AB46F0BDA24B9C42A0
:10224000BED080231B041A43382E00DD03E11F2E6D
:1022500000DD3FE12020831B9946131C49468B403B
:102260009C46019B6046F34003430198F24088403E
:10227000011C481E81410B43EB1A9D4280411D1CED
:10228000BA1A4042171A3B0200D4A8E07A02560A52
:10229000002E00D1CAE0301C00F02CFC031C083BCF
:1022A0001F2B00DDCBE02822291C121AD1409E40B2
:1022B0000A1C9D4032439C4200DDC8E01C1B671C89
:1022C0001F2F00DDEDE01F23291C1C1B131CA54044
:1022D000A340F9406C1EA541FA4019430D43171C59
:1022E00000246DE78023012642461B043B40164034
:1022F000002B00D07BE7744BED0878070543FA0804
:102300009C423BD012036405120B640D7EE7231A36
:102310009A46002B00DCA5E0002844D06A4884429D
:1023200000D14DE78020000402435346382B00DCE7
:102330001CE1019B1A43511E8A41D1B20022491966
:10234000A94280410D1CD219404217183B0246D5C4
:102350005D4B01349C4200D169E101205B4A6B086E
:102360003A4028401843D5070543570828E7131C6F
:1023700001990B4300D111E74B4613E72B1C134384
:1023800051D080231B031A431203120B3EE7013E78
:10239000002E00D080E0691A8D429B41BA1A5B4240
:1023A000D71A0D1C6FE7101C019B184300D107E7DB
:1023B00001235B429C46E2445346002B00D002E1DD
:1023C000019BD2195919A9429B415B42D7180D1C98
:1023D000BCE76346034300D128E1071C65466B0751
:1023E00000D0F0E6012643461E4084E7002E00D0D0
:1023F00081E0601C4005400D012800DC07E10199E7
:10240000681A84466545B641B81A7642861B300282
:1024100000D4A1E08C464D1BAC458941D21B4942FA
:10242000561A984634E700220025EFE6281C00F0F3
:1024300061FB2030031C083B1F2B00DC33E7021C30
:10244000283A95402A1C00259C4200DC36E71F4FA5
:10245000E41A1740B4E6019B1A43511E8A41D3B2D5
:10246000002209E7002B00D001E1601C43055B0D51
:10247000012B00DCB0E0144B984200D11EE1019B1F
:10248000D2195919A9429B415B42D2184908D50774
:102490000D435708041C93E60B4B9C4200D0D3E637
:1024A0008EE6211C131C1F39CB40191C202F00D194
:1024B0008EE03F231C1BA24015436A1E9541002756
:1024C0000D4300248BE7C046FF070000FFFF7FFF9E
:1024D000FFFF0F80331C101C203BD840202E79D0EA
:1024E00040239B1B9A40131C019A1343591E8B4196
:1024F00000220343C0E6002C53D0C74CA04200D1B9
:10250000B0E0802471428946240427434946382993
:1025100000DDCDE01F2900DD59E120243E1C611AB9
:102520008E408A46B04649462E1CCE405146B4469F
:102530008D4064464646494626436C1EA541CF4021
:1025400035430199D71B8C464D1BAC4592415242F5
:10255000BF1A041C984696E663466546334300D08E
:1025600096E60026002700240025C4E61F2B61DC28
:102570002020C31A9B46131C59468B40514699464E
:10258000019BCB409C464B46604603439C465B46C2
:10259000019999406346481E814119435346DA40E8
:1025A000CDE63C1C2C435DD0F1438946002955D132
:1025B0000199D21B8C464D1BAC4589414942571AA3
:1025C000041C98465FE69448844200D0ADE6F7E5E7
:1025D000002271E7002387E73B1C2B43002C00D02F
:1025E000DAE0002B00D113E1131C01990B4300D159
:1025F000E6E54919A9429B41D2195B42D7183B0233
:1026000000D421E1854B0D1C1F40041CD8E5381C6B
:102610002843002C40D1002800D083E0101C0199F1
:10262000084303D0171C0D1C9846C9E50026002757
:10263000002560E65046131C2038C340181C534642
:10264000202B00D1C1E0402351465B1A9A400199EA
:1026500011434A1E91410022014370E66E4CA04294
:1026600000D053E7171C019D041C9846A8E5002CD8
:1026700028D13C1C2C4300D18AE0DB439A46002B36
:1026800000D082E0019BD2199C4665449D4289415D
:1026900049425718041C59E600285BD1101C0199C7
:1026A000084300D1A4E0171C0D1C98465A4C87E53E
:1026B0003D436F1EBD410027EDB242E7041C0027D9
:1026C000002518E6544CA04262D0534680245B4259
:1026D0009A46240427435346382B00DD8EE01F2BF7
:1026E00000DD9DE02024E31A9B463B1C59468B40AD
:1026F000514699462B1CCB409C464B46644623438F
:102700009C465B469D4063466C1EA541CF401D43E1
:10271000019BBF189C4665449D4292415242BF189E
:10272000041C13E6101C0199084300D148E5681AFF
:10273000844685428041BE1A4042301A060200D4C7
:1027400047E68C464D1BAC458941D21B4942571A7E
:10275000984635E5101C0199084334D08024780749
:10276000ED08FF0824032843274208D0D608264254
:1027700005D1C90852070A43101C371C9846FF00B0
:10278000420F1743C500244C1AE5234CA042A2D1A6
:10279000171C019D041C13E5002B35D0131C019957
:1027A0000B4310D080247807ED08FF08240328434A
:1027B0002742E4D0D3082342E1D1C90852070A4393
:1027C000101C1F1CDBE7144CFAE400223FE74C46C8
:1027D0003E1C203CE6404946341C202932D040268D
:1027E000761AB7403D436F1EBD4100272543A8E63A
:1027F00080270026FF03084C00257CE53D436F1E23
:10280000BD410027EDB283E7171C019D024CD7E4C0
:10281000171C019DD4E4C046FF070000FFFF7FFFA7
:1028200054463B1C203CE3401C1C5346202B0DD03F
:10283000402351465B1A9F403D436F1EBD41002718
:10284000254365E70027CDE70D1CC8E50027F3E722
:1028500038B5041E16D0C50F00D04442201C00F02D
:1028600049F9174B1B1A0A2821DC021C211C1532BE
:1028700091400A1C0B21081AC4405B052403240B59
:102880005B0D03E000250023002400220021101C22
:1028900024030A0D1205240B14430A4A1B05144095
:1028A0001C436400ED0764082C43211C38BD0B3821
:1028B00084405B052403240B5B0D0022E6E7C04641
:1028C0001E040000FFFF0F8010B5041E10D000F0A2
:1028D00011F9144A121A0A281ADC0B23211C1B1A9C
:1028E000D94015300B03520584401B0B520D01E0FB
:1028F0000022002300211B03201C1C0B0B0D1B05B9
:102900002343094C1205234013435B00590810BDB3
:10291000031C0B3B9C40520523031B0B520D002450
:10292000E8E7C0461E040000FFFF0F804200120EC1
:10293000511C38B5C9B243025D0AC40F012915DD27
:10294000E02189008C466D071B0B62440021281C86
:102950000D0D2D052B431C4D52052B4052081343E2
:102960005B00E4075B082343191C38BD002A15D11E
:10297000002D1FD0281C00F0BDF80A281DDC0B23F9
:102980002A1C1B1ADA40131C021C153295400F4AF0
:102990001B03121A52051B0B520DD7E7002D06D050
:1029A00080221B0B120313436D07094ACEE7084A26
:1029B0000023CBE700220023C8E7031C0B3B9D400C
:1029C0002B1C0025E3E7C046FFFF0F8089030000B2
:1029D000FF07000070B50B034D00440F6D0D5B0A3F
:1029E00023436C1C6405C90FC200640D012C2ADD51
:1029F0003B4C2C19FE2C1ADC002C35DD8001451EC9
:102A0000A841DB000343520F13435A0704D00F229F
:102A10001A40042A00D004338022D2041A4027D05E
:102A20000134FF2C03D09B015B0AE4B201E0FF24D8
:102A300000235B02E4055B0A23435B00C9075B08D4
:102A40000B43181C70BD002D06D113430ED100247A
:102A50005B025B0AE4B2ECE71A43E8D08020DB00BB
:102A600080040343FF24D0E717340CDA0523002445
:102A7000DB08FF2CECD1002B2DD08022D203134396
:102A80005B025B0AD5E78024164824042343401BDD
:102A90001F280DDC144CA4466544AB401C1C131CC1
:102AA000AB405D1EAB41C240234313430024ACE75F
:102AB0001E1C0E4C641BE640341C20280DD00C4814
:102AC00084466544AB401D1C2A43531E9A41131C87
:102AD0002343002499E70023ABE70025F4E7C04631
:102AE00080FCFFFF9E03000082FCFFFF7E030000CE
:102AF000A2FCFFFF1C2101231B04984201D3000C00
:102B000010391B0A984201D3000A08391B09984260
:102B100001D30009043902A2105C40187047C04676
:102B20000403020201010101000000000000000096
:102B300038B500220C4B041C0D1C00F081F8002855
:102B400004D1201C291C00F011F838BD064B0022CE
:102B5000201C291CFFF702FB00F008F880231B064D
:102B60009C466044F1E7C0460000E0410B0330B5ED
:102B7000134C1A0B4B00051C5B0DC90F0020A34220
:102B800010DD104883420EDC80200F4C40030243CE
:102B9000E41A1F2C0ADD0D48C31ADA40131C484200
:102BA0004340581830BD0A4BC818FBE7281CE040CA
:102BB000084CA44663449A40131C0343EFE7C04605
:102BC000FE0300001D040000330400001304000095
:102BD000FFFFFF7FEDFBFFFF8446101C62468C4623
:102BE000191C634600E0C0461FB500F0E7F8002856
:102BF00001D40021C8421FBD10B500F02BF840429F
:102C0000013010BD10B500F0D9F8002801DB00201C
:102C100010BD012010BDC04610B500F0CFF800284F
:102C200001DD002010BD012010BDC04610B500F030
:102C300055F8002801DC002010BD012010BDC04661
:102C400010B500F04BF8002801DA002010BD01207B
:102C500010BDC046F0B55F464D4644465646F0B4FA
:102C60001F035C00DB0F99461B4B0E034D00C90F81
:102C70008446360B6D0D8B4690463F0B640D9D428E
:102C80000CD0154B9C4210D00123A54214D0181C27
:102C90003CBC90469946A246AB46F0BD311C012390
:102CA0000143F4D10C4B9C42EED13A430123002A5C
:102CB000EDD10123A542EAD1BE42E8D1C445E6D117
:102CC000CB4506D0002DE2D13043031C581E834172
:102CD000DDE70023DBE7C046FF070000F0B55746FD
:102CE00045464E46E0B40F034E00C90F8A463249AE
:102CF0001D035C0084463F0B760D90462D0B640D42
:102D0000DB0F8E420FD08C4239D0002E10D13843C9
:102D1000414241418946002C27D12A4325D1002038
:102D200000290ED108E0391C01432ED1B44226D02F
:102D3000002C0BD09A450DD053465942012319431C
:102D4000081C1CBC90469946A246F0BD2A43F3D00D
:102D50009A45F1D1A642EFDC1ADA50464142484189
:102D6000012341421943081CEBE74A46002AE1D0FF
:102D700058425841012241421143081CE1E7291CF5
:102D8000114302D1002EC2D0D4E702204042D8E73E
:102D9000AF42D1D809D00020AF42D2D250464142F2
:102DA0004841012340421843CBE7C445C4D8002022
:102DB000C445F3D3C5E7C046FF070000F0B55F4642
:102DC0004D46444656468046F0B4061C0803000BA8
:102DD00084462C484C001F035D00C90F640D8B46D0
:102DE00091463F0B6D0DDB0F844212D0854225D0FA
:102DF000002C14D161460E4370424641002D35D05F
:102E0000002E21D058425841012143420B43181C47
:102E10000EE06146022031430AD1A5420ED0002DBA
:102E200012D13A4310D15B46594201231943081C81
:102E30003CBC90469946A246AB46F0BD391C0220E8
:102E40001143F5D1002CD5D09B45ECD1AC42EADC46
:102E500005DBBC45E7D80FD00020BC45E8D258467A
:102E600041424841414201200843E1E73A43C7D18A
:102E70000020002EDCD1D6E7C845D4D80020C845B4
:102E8000EDD3D5E7FF07000008B50A4B1A68002A02
:102E900001D1094A1A601A6808491018884206D9EF
:102EA00002F046FD0C2303600120404201E018605F
:102EB000101C08BDB0FFFF1F9803002099030020DD
:102EC00002238078834280414042704708B5002049
:102ED00002F0EAF9002803D00020011C02F0D8F922
:102EE00008BD0000024A1368013313607047C046F2
:102EF000ECFFFF1F37B5002001F010FBC0230025B9
:102F00000D4A9B0013600D4A0D4C13600D4A281C9E
:102F100013600D4B25716571A5711A68FA239B002A
:102F200053430A49236002F00DFA281C211C01AA10
:102F300002F04CFA37BDC046189014542090145437
:102F4000D8FFFF1F2490145400FEFF1FF0FFFF1F47
:102F500008B5002001F0E7FA8023054A9B001360C2
:102F6000044A00201360044901F0E0FD08BDC0469A
:102F70000CA0145410A01454B4FFFF1F08B509206E
:102F800001F0F4FC08BD08B50C2001F0EFFC08BD11
:102F900008B5FFF7F3FFFFF7F6FF8320400001F0CD
:102FA000D7FC08BDF0B5974CC7B0211C3C220AA83D
:102FB00002F028FD211C3C223C3119A802F022FD20
:102FC000211C3C22783128A802F01CFD8E4937A82C
:102FD00034313C2202F016FD8C4B1B78002B05D1BE
:102FE00000F04AFC642001F011F9F5E700F06CFCF8
:102FF00000260023029605930096371C0025002426
:10300000059A834BD318185BFFF722FC814A824B49
:10301000FEF70AFE06900791381CFFF787FC0AAA04
:10302000AB1808900991185BFFF712FC794A7A4BAC
:10303000FEF7FAFD021C0B1C06980799FEF7F4FD3B
:10304000021C0B1C08980999FEF7C6FAFFF7C2FC90
:10305000071C0098FFF76AFC19AB5B1900900191FF
:10306000185BFFF7F5FB6B4A6B4BFEF7DDFD021CAF
:103070000B1C06980799FEF7D7FD021C0B1C009845
:103080000199FEF7A9FAFFF7A5FC00900298FFF757
:103090004DFC28AB5B1902900391185BFFF7D8FB3E
:1030A0005C4A5D4BFEF7C0FD021C0B1C069807999D
:1030B000FEF7BAFD021C0B1C02980399FEF78CFA6E
:1030C000FFF788FC0290301CFFF730FC37AB5B1930
:1030D00008900991185BFFF7BBFB4E4A4E4BFEF779
:1030E000A3FD021C0B1C06980799FEF79DFD021C10
:1030F0000B1C08980999FEF76FFAFFF76BFC023476
:10310000061C062C00D07BE706353C2D00D076E768
:10311000059B063305933C2B00D06FE7381C0597C1
:10312000FDF7FCFB021C0B1C00203C4900F054FF87
:103130000098391CFDF7C6FB002802D0009F384DCF
:1031400001E00724374D0098FDF7E8FB021C0B1C3B
:103150000020354900F040FF0298391CFDF7B2FB12
:10316000002802D00624029F304D0298FDF7D6FBBE
:10317000021C0B1C00202E4900F02EFF301C391CB5
:10318000FDF7A0FB00280BD0301CFDF7C7FB072480
:10319000021C0B1C0020274900F01EFF264D371C87
:1031A000301CFDF7BBFB0B1C021C2249002000F069
:1031B00013FF00990598FDF7D1FB391CFDF7CEFBF5
:1031C000311CFDF7CBFB011C381CFDF743FD1B49EF
:1031D000FDF732FFFDF78AFB291CC6B2002000F084
:1031E000FBFE1749321C002000F0F6FE0F2001F014
:1031F0000DF8321C281C211C00F0C4F80022034BDF
:103200001A70E9E64C5D0000CC5D0000EC00002087
:10321000660000207B14AE47E17A843FBF5F000068
:10322000A95F0000A15F0000C55F0000B05F000063
:10323000CB5F0000D15F0000B75F00000000C84214
:10324000D75F000037B5002001F056F9012001F0EA
:1032500053F98022204B120201241A6000F0F4FF7F
:103260000020FA25021C031C011C009400F0C6FC7F
:103270006D001A49002000F0B5FC281C00F0C6FFC4
:103280001749002000F0AEFC281C00F0BFFF1549D4
:10329000002000F0A7FC281C00F0B8FF124A231CF5
:1032A0000221124800F0F4FF211C201C00F0FCFF5A
:1032B0000F49104801F030FB00F0A6F80520FFF799
:1032C00047FE0D49682000F023FBFFF761FE00F088
:1032D000AFFBFFF767FEC046F4020020DD5F000091
:1032E000F85F0000FE5F000010FEFF1F14FFFF1FCD
:1032F00024FEFF1F14FEFF1FE0FFFF1F37B50E2443
:10330000FF34051C201C01F023FB201C01F02EFBC8
:103310000C2001F02BFB0123084A002015700093BC
:10332000FA239B000193011C054B02F0ABF8051C2E
:10333000201C01F00DFB281C3EBDC04640000020B3
:103340002000002073B50E24FF34051C201C0E1C29
:1033500001F0FEFA201C01F009FB0C2001F006FB35
:10336000FA2300209B002A1C00960193011C044BA9
:1033700002F088F8051C201C01F0EAFA281C76BD32
:1033800020000020F0B5141C85B00E1C071C00F0B6
:1033900007F92520FFF7B2FF0020FFF7AFFF00205D
:1033A000FFF7ACFF5F20FFF7A9FF3F20FFF7A6FF65
:1033B000201C0A21FDF7DEF8C0B2303001900A214E
:1033C000201CFDF75DF925230024C9B201AD303181
:1033D0006960AB6006206043C0B2B44205D03A5D7C
:1033E0000A2100F05BF90134F4E700240620604371
:1033F000A300C0B22D21EA58013400F04FF9032C8C
:10340000F4D105B0F0BD0000C0235F4A9B0010B5A9
:1034100013605E4A85241360FFF76CFD80235C4ACD
:103420005B0013605B4A640013605B4A201C1360FE
:1034300001F08EFA642000F0E9FE201C01F096FAFB
:10344000642000F0E3FE201C01F082FA642000F00A
:10345000DDFEAE20FFF752FFA020FFF74FFF7220E6
:10346000FFF74CFFA120FFF749FF0020FFF746FFC1
:10347000A220FFF743FF0020FFF740FFA420FFF743
:103480003DFFA820FFF73AFF3F20FFF737FFAD20B1
:10349000FFF734FF8E20FFF731FFB020FFF72EFF3C
:1034A0000B20FFF72BFFB120FFF728FF3120FFF79C
:1034B00025FFB320FFF722FFF020FFF71FFF8A2030
:1034C000FFF71CFF6420FFF719FF8B20FFF716FFA3
:1034D0007820FFF713FF8A20FFF710FF6420FFF723
:1034E0000DFFBB20FFF70AFF3A20FFF707FFBE20C2
:1034F000FFF704FF3E20FFF701FF8720FFF7FEFEE6
:103500000620FFF7FBFE8120FFF7F8FE9120FFF772
:10351000F5FE8220FFF7F2FE5020FFF7EFFE83203A
:10352000FFF7ECFE7D20FFF7E9FEAF20FFF7E6FE98
:103530002620FFF7E3FE0120FFF7E0FE2520FFF73E
:10354000DDFE0020FFF7DAFE0020FFF7D7FE5F2048
:10355000FFF7D4FE3F20FFF7D1FE8720FFF7CEFE16
:103560000E20FFF7CBFE032000F074F80020FF21AF
:10357000021C00F01FF800F067F80848072100223D
:10358000FFF700FF002010BD209014542490145425
:1035900034A014543090145400A01454056000005A
:1035A0000023024A1370024A137070476300002020
:1035B00064000020C008800183B2890819434901D2
:1035C000D20889B21143081C7047F0B587B003AC2C
:1035D000071C009201930B220CAB0E1C201C002137
:1035E0001D8802F018FA2623201C02212370FFF701
:1035F000A9FE212323703B1C5F2F00D95F2363703A
:10360000331C3F2E00D93F23A3706B46009A1B78D2
:103610005F2A00D95F23E3706B46019A1B793F2A2A
:1036200000D93F232371EB0A5B0063716B059B0E8E
:10363000A3711F232B405B00201C0821E371FFF7BF
:1036400081FE07B0F0BD0000014B18807047C046F6
:1036500060000020014B18707047C04662000020D7
:1036600000B50D4A031C10780138032810D8FCF768
:1036700077FF02060B0D02221A60012302E00122ED
:103680001A6002230B6006E0022202E0062200E03C
:1036900001221A600A6000BD62000020131CF0B510
:1036A0001F3B89B00A2A07D10022384B1A70384ACA
:1036B00013781033137066E0602B64D8334B19789D
:1036C000592909DD0020324918700B781033DBB21C
:1036D0000B702E2B00D9087006A807A9141CFFF741
:1036E000BFFF06226243002404920025049B294A5E
:1036F000E318C03BD3180593069B9D4236DA10278A
:103700000020059B1B7803930026079B9E4224DA2A
:103710006A46127B52B2002A02DA0130C0B21AE0C5
:10372000002818D01A4A7B43127806999B186143E7
:10373000164A9B1B1278DBB202388A18591E1B18D6
:10374000154852190088D2B20090C9B2101CDBB2E1
:10375000FFF73BFF00200136D7E7039B013F5B00EB
:10376000DBB20393002FCFD10135C5E70134062C1E
:10377000BBD106A807A9FFF773FF069B034A5C436A
:103780001378E418147009B0F0BDC046630000203F
:10379000640000200D60000060000020F0B56B2286
:1037A0000024184B8BB01B7808AD2B8005AF06ABFF
:1037B0001A7038705C700093022301260193F33372
:1037C000FF33291C221C0293201C231C099601F0A4
:1037D000E7FA0F2000F01AFD07AB0093FA235B0015
:1037E00002930196201C291C3A1C331C01F0E5FAB7
:1037F000A04203D0201C044900F0EEFB079BD8B286
:103800000BB0F0BDE0FFFF1F4D62000010B50F20B0
:1038100000F0FCFC3B20FFF7C1FF041C0F2000F070
:10382000F5FC3C20FFF7BAFF2402204380B210BD14
:1038300010B50F2000F0EAFC3D20FFF7AFFF041C9D
:103840000F2000F0E3FC3E20FFF7A8FF24022043F6
:1038500080B210BD10B50F2000F0D8FC3F20FFF75C
:103860009DFF041C0F2000F0D1FC4020FFF796FFC5
:103870002402204380B210BDF8B506240F4D2F78E6
:10388000FFF7C4FF67430E4EB8532F78FFF7D0FF02
:103890006743F71978802F78FFF7DCFF7C432B789C
:1038A00034190133DBB2A0800022092B01D82B7020
:1038B00000E02A70034B1A70F8BDC0466500002076
:1038C000A2000020DE000020F0B50E480E4C037868
:1038D000A11C3E3406225A430C4D8E1E575BAA187B
:1038E000558837800D80928809254A80002201334F
:1038F000DBB29D425241063152421340A142E9D10E
:103900000370F0BD6500002066000020A2000020CA
:10391000E02300B55B0008704B600C4989B0087863
:10392000563B05AA06A9FF3B13700880002302201E
:10393000537048600092FA22520001900292181CC3
:103940001A1C01F02DFA09B000BDC046E0FFFF1FB0
:103950000122014B1A707047EC00002010B50024C2
:103960000020211C032200F051FF00280DD0211C53
:10397000002000F03BFF074A63009852064BA2006C
:10398000D158002901D0D3589847012C01D00124E7
:10399000E6E710BDE8000020E0000020F0B58BB0A5
:1039A0006946061C00F0D8FD6B461D495A88002068
:1039B00000F012FB01A9301C04AC00F0CDFD01A900
:1039C000301C00F023FE201C00F042FE00250127E1
:1039D0000323211C301C23712770E570E571677289
:1039E00000F048FE642302A90B802D334B80281C75
:1039F0008F3B0B7100F0B2FE0A4A0B4B301C1A6071
:103A0000092307AA291C536057721772157000F01A
:103A1000C9FE8022281C054B1A600BB0F0BDC046C1
:103A20007462000051390000E000002018808453C7
:103A300008B50020FFF7B2FF00200921021C00F0AA
:103A4000E5FE08BD0269C3689A4203D88068101871
:103A5000013800E0501EC01A7047F7B58368C66889
:103A6000051C40680191141C9F1B8019974203D9C3
:103A700001F0C8FFA4190AE001993A1C01F0C2FF45
:103A8000019BE41BD9196868221C01F0BBFFEC60A4
:103A9000F7BD0023F7B5061C171CC56801910093FC
:103AA0003369B468AB4200D81B19013B5B1B641B34
:103AB000BC4200D93C1C9C4200D91C1C7368221CCF
:103AC0005819019901F09EFF009B2D191B190093B5
:103AD000019B3F1B1B190193B368EB1A5A1E9341BC
:103AE0005B421D40F560002FDAD10098FEBD00005A
:103AF000022310B5104C114A23616361104BA2617F
:103B0000E3618023A2640F4A5B002362E264002326
:103B10001022A3626362E362A3656365E3652265C5
:103B2000E01D094902F030F8201C084902F02CF889
:103B30002023A37110BDC046000200208362000054
:103B4000FD000020ED0000208C620000906200006B
:103B5000F8B51823451C5D434343141C134A0E1C3F
:103B6000D018C76A5519012F0FD0002F07D0022F88
:103B700017D1221C281CFFF78CFF041C14E0281C02
:103B8000FFF760FFA0420ED305E0281CFFF75AFFA5
:103B9000844200D9041C281C311C221CFFF75DFF45
:103BA00002E0002400E03C1C201CF8BD00020020C4
:103BB000F8B50B4B071C1B780E1C151C002B01D1F4
:103BC000FFF796FFEFF31084012181F31088381C72
:103BD000311C2A1CFFF7BCFF84F31088F8BDC046D7
:103BE0000002002038B5051C081C0C1C01F0D4FF95
:103BF000211C021C281CFFF7DBFF38BDF7B5164C53
:103C000001932378051C0F1C161C002B01D1FFF714
:103C10006FFF23699D421CD2EFF31082012181F3D3
:103C20001088002D0CD01823691C59436B43675032
:103C300061184E600199E318196200219962596276
:103C400018235D43089B6419E36282F31088002007
:103C500001E001204042FEBD00020020826810B554
:103C6000041C4068531C834205D820688154A3601B
:103C7000E3680133E360A26863689A420CD120696B
:103C80002168FFF795FFA368984203D001235B42A8
:103C9000E36001E00023A36010BD0000F0B5051C47
:103CA0001F1C081C012685B00A9C00910192019BF3
:103CB000984204D30199FCF75DFC0136F7E70296C0
:103CC000BE4200D2029701230B9A1A40039218D1E8
:103CD000002C01D1002414E00B9B20269B070DD55E
:103CE000002F0BD1103609E0281C311CFFF7B6FF5E
:103CF000EB68013C002B04DB002CEBD0029BA342C1
:103D0000F2D3EB68002B35DB0126012F01D9013FEF
:103D100006E00098311CFCF72DFC019B984208D36B
:103D2000019B5E43F1E7301C0199FCF723FC061E62
:103D300010D00098311CFCF71DFC331C4343009A43
:103D4000D31A00930C4B195C281CFFF787FFEB6814
:103D5000002BE8DA039B002B0CD0002C0AD0029B2E
:103D6000A34207D2281C2021FFF778FFEB68013C13
:103D7000002BF2DA05B0F0BD97620000F0B59FB0FD
:103D80000EAB099340230A930023161C06900B9355
:103D90000D900C930B784C1C002B04D10C9B0393BF
:103DA000002B22DC15E1252B16D1002502314F1EF8
:103DB0003B782B2B0CD003D8232B27D1082308E0EA
:103DC0002D2B03D0302B21D1022302E0012300E070
:103DD00004231D430131EAE7191C09A8FFF73EFF40
:103DE000211C0C9B002BD5DAD8E70B9A002A03D0B4
:103DF00006980EA9FFF7DCFE0C9B03930B9B049324
:103E0000049A039B944663440C93E2E000243A78BE
:103E1000131C303B092B05D80A235C43303C013787
:103E2000A418F4E7002303932E2A0DD101373A7822
:103E3000131C303B092B07D80A23039901374B4346
:103E4000303B9B180393F2E7397804230A1C9A430A
:103E5000682A01D10137F7E7642926D008D8582904
:103E600000D195E063291AD0252900D0AFE0ABE05E
:103E7000732900D195E00DD8702900D0A7E03268F1
:103E80000021131D3360082301910093116809A8D4
:103E9000102296E0752971D0782979D097E033689F
:103EA00019681A1D3260C9B28EE033681A1D1B688A
:103EB0003260DA17981804930123504005930928BB
:103EC00005DD0A21FCF7E6FB059B0133F6E7059BC0
:103ED000039A934200D20592002C05D0049B002B3C
:103EE00001DB6B0700D5013CAB0702D5039B002B20
:103EF00010D0EB070ED4002C01D100240AE0059B62
:103F0000A34207D209A82021FFF7A8FE0C9B013C81
:103F1000002BF0DA0C9B0793002B58DB049B002B43
:103F200004DA5B42049309A82D2103E06B0703D553
:103F30002B2109A8FFF792FE0C9B002B47DB0323E4
:103F40002B40022B11D1039B002B0ED1002C01D151
:103F500000240AE0059BA34207D209A83021FFF7FD
:103F60007DFE0C9B013C002BF0DA0C9B0593002B93
:103F70002DDB0094019509A8049906E033680094AC
:103F800001951A1D1968326009A80A22039B18E0DE
:103F9000336800941A1D0195326009A8196810222F
:103FA000F4E733681A1D32601C6821780134002957
:103FB0000DD009A8FFF752FE0C9B0393002BF4DAF7
:103FC00005E0FFF76BFE02E009A8FFF747FE791C4A
:103FD00007E70C981FB0F0BD0EB403B503AB02CBDE
:103FE00001AA0193FFF7CAFE02B008BC03B018474C
:103FF00008B5002000F0C8FC08BD08B5002001F09D
:104000006FF908BD082110B5164B9A780A4202D004
:104010009A780A439A70882200212220124B52017A
:104020009950124A10708020114A40029850186826
:10403000104A024010481A601C58104A2240C024FE
:10404000A40422431A5080220D4B19721A767F3A2B
:1040500019705A700B4A11700C2299791142FBD1D8
:1040600010BDC04600D007400070044000E007408B
:1040700044100000FFFFF3FF04100000FFFFFFF0FB
:104080000040064000500640154B164810B5191E5A
:1040900081420CD00022144B9B089B009A4203D013
:1040A00084588C500432F9E7104B996001E00F4AB4
:1040B000936000230E4A0F49891A8B4204D0D45CC6
:1040C0000D48C4540133F8E700230C4A0C49891AFF
:1040D0008B4204D00024D01804700133F8E710BDDF
:1040E00000000000000000000000000000ED00E003
:1040F000D06300006465000000FEFF1F94FFFF1FF7
:104100009803002000234170436003708360181CF3
:10411000704710B54378041C0120FF2B08D000F035
:1041200013FA63780133DBB2637000F001FA002008
:1041300010BD38B5041C0D1C00F006FAE1682943D7
:10414000E16000F0F5F9002038BD000000220A4BC4
:104150009A641A1C40329A631A1C30329A621A1CF2
:1041600020329A611A1C10329A60044A1360044B80
:104170009B60DB607047C0468C02002088020020F4
:10418000780200200022024B1A60186880B2704743
:104190000C007C5038B54378041C0D1C002B0BD050
:1041A000002500F0D1F96378013BDBB26370257024
:1041B00000F0BEF9281C28E00220002925D0237831
:1041C000002B15D0FFF7DEFF6368A268984201D389
:1041D000C01A03E0C01A80235B02C018824213D2C7
:1041E00000F0B2F90023237000F0A2F902200CE0E5
:1041F0004B1C09D000F0A8F90123237000F098F9B6
:10420000FFF7C0FFA5606060032038BD38B5051C0E
:10421000FFF7B8FF041CFFF7B5FFA04201D3001B56
:1042200003E08023001B5B02C0188542F3D238BD37
:1042300008B5012801D100F087F908BD08B50128AB
:1042400001D100F075F908BD10B5FFF77FFF01231C
:104250000020084A08491360084A094C10600860A9
:1042600004212160074C216007490B600749086061
:10427000136010BD388004500000845000000450CA
:10428000000004510400045104000C5000000453C9
:1042900010B5044C206021710020A2602373637369
:1042A00010BDC046DC020020F0B587B06B4602901E
:1042B0001B7A05AC23706B4603911B7B3D4D6370ED
:1042C0002B79029A0420934271D92B7B6B730123C3
:1042D000A37000230193374E0093337B009A371C61
:1042E00093421AD9009BB2689B009B58002B10D0B8
:1042F0001A79D2070DD51A68201C996890470028B2
:1043000007D06B461B787373039B002B3AD00523B1
:104310000193009B0133DBB2DDE7019E002E02D04A
:10432000039B012B2FD10120FFF782FF0C20029B62
:1043300058432B68181800F0A3F86B461B7A01202D
:104340006B71FFF77BFF02230025A3703B7BAB4221
:1043500016D9BA68AB009B58002B0ED01A79920779
:104360000BD51A68201C99689047002805D0039B3C
:104370007D73002B1AD0062301930135EDB2E5E7DA
:10438000019814E005260023009FA370013FFFB2AF
:10439000FF2F09D0AA68BB009B58002BF6D01A68E3
:1043A000201C99689047F1E7301C00E0062007B018
:1043B000F0BDC046DC02002013B500210378041CC8
:1043C0000191022B07D0032B0BD0012B0ED10279C8
:1043D000191C134801E00279114801AB00F0ECFE12
:1043E00008E001A90E4800F029FF03E00C4801A9EC
:1043F00000F0C6FE002812D1A3790A4ADB01DBB225
:1044000013706378084A5B00DBB21370A278074B25
:104410001A70E278064B1A706279064B1A7016BD54
:104420000040064018408653004086500040065029
:1044300001400650184016501F22802302405B05A1
:10444000D2051A43044943099B005B181A431068BC
:10445000431E9841C0B27047288004401F2280212B
:104460000240D30549051943430904489B001B1822
:1044700019430123081C93400360704728800440BF
:104480000022072373B5041C104D0093281C131C35
:10449000012100F017FF201CFFF78EFF0022637A36
:1044A000217A0093281C131C00F00CFFE379084AC2
:1044B0009B041360074BA17A1D68281C00F0DAFEEC
:1044C000281CE17A00F0DDFE002076BD007004407B
:1044D00000700C59C462000008B5054800F012FED7
:1044E000044B1968C9B20131FCF744F808BDC04655
:1044F000004006404480145808B5024B185CFFF792
:10450000ADFF08BDA762000008B5BB20FFF7A6FFFE
:1045100008BD08B5BB20FFF78FFF08BD08B57620A2
:10452000FFF79CFF08BD08B56620FFF797FF08BDA1
:10453000044A1368002B04D0013B1360002B00D108
:1045400062B67047EC02002072B6024A136801336B
:1045500013607047EC020020F8B5284B8200D45855
:104560000123002948D00F1C051CFFF7D2FF0028AB
:1045700002D1281CFFF7C8FF221C88230421243203
:104580005B05134319601E4B0320191C114308607F
:10459000211C1D1C002008310D432860194D2943A2
:1045A00060250D60211C20310B43186098239C2549
:1045B0005B05194380236D05154308602B609C2320
:1045C0005B0523431B68012B07D098235B0513432E
:1045D0001B68012BF3D102230EE0231C0A4E283363
:1045E00033431B68201C10343B80344301F058F8DF
:1045F0002368002378802B60181CF8BDAC62000093
:104600000000081000008812000078100E4B820095
:1046100070B5061CD4580120002913D0301C0D1C85
:10462000FFF777FF002802D1301CFFF76DFF231C36
:104630000020064A29882833134319602C346B88DC
:104640001443236070BDC046AC62000000007810C7
:10465000012300280CD0032200238270023A037049
:104660004370C270037143718371C37103724372EB
:10467000181C7047F8B5324B8200D5580123002929
:104680005CD00C1C061CFFF73FFF281C00F0DEFF6F
:1046900062782B1C9C21501E82418C2008334905D6
:1046A0001943D2010A60A178264A49011A431160D0
:1046B000E178254A89001A431160244A40051343D2
:1046C00094462279071C1A6063792A1C591E8B4173
:1046D0000C321743DB003B6088235B051A43A37948
:1046E0005F1EBB419B001360E3792A1C9827591E6B
:1046F0008B4120327F0517439B013B6063461A4381
:10470000237A24351360637A05435A1E9341DB00F4
:104710002B6023780E491F22002B08D08B5D1A4096
:10472000012393401A1C0B4B1A60002306E0895D9D
:104730000A40012191400A1C0749CA67181CF8BDAC
:10474000AC62000000008812000008110000081090
:10475000B062000000E100E004E100E038B50F4B7A
:104760008000C4580120002916D0231C9422203335
:104770005205134320221A600D1C201C097900F0F9
:104780006DFF231C0020064A298818331343196043
:104790001C346B881443236038BDC046AC620000F3
:1047A00000007810104B800030B5C4580120002A5A
:1047B00019D0201C90250C306D052843056813780E
:1047C000EDB2AB4203D05D1EAB411B010360107A1A
:1047D0005368421E90411F22800113400343002072
:1047E000890061180B6030BDAC620000054B800091
:1047F000C35889001031C918034B1943086880B2A7
:104800007047C046AC62000000007810084B800082
:10481000C3580020032A09D1890059189C235B053D
:1048200019430868013843425841C0B27047C04636
:10483000AC620000F7B5FF2403681C4A1D0A25403E
:104840001C40AB009F581A4A061C9B58281C019319
:10485000FFF752FE211C0022381C00F053FF019B81
:10486000A4001C19842332795B05234352001A608B
:10487000802372795B0523431A609023B2795B052C
:10488000234312011A60F3790A4A14431A0422607E
:10489000002B0AD0084B5A5D002A06D01F23134074
:1048A00001229A40131C054A1360F7BDD062000034
:1048B000C862000000001818D862000000E100E0A3
:1048C000F8B5FF24051C0368114A180A20401C4053
:1048D00083009F580F4A9E58FFF70EFE381C211C7C
:1048E000012200F00FFF6A68381C211C00F01AFF3B
:1048F00088232A7AA40034195B05234392001A60A6
:1049000098235B051C436B7A9B012360F8BDC0466E
:10491000D0620000C862000038B50C1C002802D12B
:10492000002C09D112E003680133F9D0051C0835C9
:10493000FFF780FF281CF6E72368013306D0251C0B
:10494000201C0C35FFF7BCFF2C1CF5E738BD000020
:10495000FF22030A134002400120904002499B00BD
:104960005B5858607047C046D0620000FF22030ABF
:10497000134002400120904002499B005B58986020
:104980007047C046D062000008B5084B8200D3587B
:1049900094220233520513431B78002B02D000F0FF
:1049A00019FA01E000F06EFA08BDC046B4620000DA
:1049B000031C80220C33520513431B78002BF7D0C5
:1049C0000171704738B50D1C084B8000C458201C7D
:1049D000291C1830FFF7DEFB0328F8D0002801D08F
:1049E00004232374207CC0B238BDC046F0020020EE
:1049F000F0B589B00290161C820037480593105814
:104A00000EAB019035481B781458002007AA10807F
:104A1000A27C8F0A04920122E274A2745A4253418A
:104A20001E3FDBB203937B425F41FFB2CDB28742B0
:104A300002D0CBB29C460D0A00216D00EDB28F4230
:104A400004D1391C002E01D16B46197B0D4307ABF5
:104A50001D700122002F02D062465A700222A3600C
:104A6000E2600198291CFFF7A3FF02980F99FFF756
:104A7000A9FF237C002B0CD1002E0AD0059BA66039
:104A8000E36031780198FFF793FF02980F99FFF7E1
:104A900099FF237C002B16D1039B002B13D0002FF2
:104AA00001D1002E0FD000230127A3600198E760F9
:104AB00000F090FE391C01982943FFF779FF029816
:104AC0000F99FFF77FFF0023E3746B46207C1B7C6C
:104AD000C0B2A37409B0F0BDB4620000F0020020BF
:104AE000104A830010B598580F4A9C58E37C002B5D
:104AF00005D0237C052B02D0237C042B09D19822DE
:104B0000831C5205134300221A7000F075FE012326
:104B10006374A37C002B03D0201C1830FFF7F9FA34
:104B200010BDC046B4620000F0020020F7B5194B7A
:104B30008700FB5801250093174BFE58002E26D105
:104B40000C1C24220190081C311C00F064FF201C66
:104B5000311C1830FFF7D6FA0198FFF7E4FC0098F3
:104B600000F0E8FD0C4B019AFC500C4B9A5C1F23A3
:104B700013402A1C9A40131C094A13609C22009B74
:104B800052050233134380226574351C1A70281CA9
:104B9000FEBDC046B4620000F0020020B162000019
:104BA00000E100E00A4B800070B5C558094BC658BB
:104BB0004B68726993420AD00C1CFFF78DFC0023EE
:104BC000011C6268281C00F0C3FD6368736170BD3E
:104BD000B4620000F0020020F0B587B00FAC334F94
:104BE000334D267884006559E459677C002F02D143
:104BF0000320207458E0002E01D11E270E97059344
:104C00000023A674E360A360237423606374071C0D
:104C100004920391FFF7C6FF90231021AA1C5B05A5
:104C2000134319708421EB1C49050B4302211970B1
:104C300098235B05134302934023029A281C1370A8
:104C400000F0C8FD039B381C1988012300930E9BBC
:104C5000049A0193059BFFF7CBFE0D9B002B15D00B
:104C6000237C002B0FD10C9B281CA3600D9BE360C1
:104C70000C9B1978FFF79CFE002E13D0381C0E9960
:104C8000FFF7A0FE0EE0237C042B0BD100230126AE
:104C9000029A1370EB785B09334202D0281C00F0B3
:104CA000ABFD6674207CC0B207B0F0BDF0020020FE
:104CB000B4620000F0B58BB013AC2478364E374D9B
:104CC000039484006559A459667C002E02D1032008
:104CD00020745FE0039E002E01D11E3612960993C8
:104CE000109B00262360119BA66063606B461B7BB4
:104CF000E660A37426746674079108920490FFF727
:104D000051FF9023AF1C5B053B4305931023059A8D
:104D1000281C13708422EB1C5205134302221A70C4
:104D200098235B053B4306934023069A137000F0DB
:104D300051FD079B089A1988129B009601930498CD
:104D4000099BFFF755FE227CD2B2B24212D1059BDD
:104D500011991A708C235B053B43012900D108226D
:104D60001A702B79039B002B12D004981299FFF72D
:104D700029FE0DE0237C042B0AD1069B1E70012620
:104D8000EB785B09334202D0281C00F035FD6674D5
:104D9000207CC0B20BB0F0BDF0020020B462000075
:104DA0001FB5069C0094079C0194089C0294012462
:104DB0000394FFF711FF04B010BD1FB5069C0094CB
:104DC000079C0194089C029401240394FFF772FF4E
:104DD00004B010BD842138B5244B8200D558490554
:104DE000EB1C0B4302211970214BD45890226B18F5
:104DF00052051A431278E978D2B2890634D5942143
:104E000049051943097800292ED0012A15D1EB78DC
:104E1000134202D0052323740CE0E368013BE360F6
:104E2000002B07D0A368281C5A1CA2605978FFF7F2
:104E3000BFFD19E0FFF754FE16E06268013A6260B8
:104E4000002A06D08C214905012A05D10B430822EE
:104E500004E0FFF745FE02E000220B431A702368CE
:104E60005A1C22602A791A7038BDC046B46200000C
:104E7000F0020020842303305B05184302230370F3
:104E800070470000902149050A1CF0B58F4B071CA4
:104E90008000C55889B0EB1C0493EB78EE78DBB248
:104EA0000593F3B20693AB1D1A43944612789826E5
:104EB000D2B20792942252051A4314787605621EE4
:104EC0009441E2B2824C33430459A81C0090084339
:104ED00001921A780178D2B2C9B203910199029075
:104EE00000292FD0079900290CD010236246281CD6
:104EF0001370FFF7BFFF236BF8B20121002B00D026
:104F0000DCE0E0E0002A1DD04022281C1A70FFF7E8
:104F1000B1FF231C2C331B78002B02D1009A1643BF
:104F20003370236B002B03D0F8B28021626B98475B
:104F3000E37D002B04D0201C80211830FFF7F9F806
:104F40000A23BFE0069B281C9E1101231E40FFF789
:104F500091FF0122059B1B11134219D09023049A43
:104F60005B05134310221A70002E04D0EB785B0708
:104F7000DB0F10D11AE0082323702C342278002A8A
:104F800000D0A0E0982300995B050B431A709AE0CB
:104F9000002E16D0EAE71023029A1370236B002B21
:104FA0006ED0F8B20221626B984769E0029A1370E2
:104FB000236B002B03D0F8B20421626B98472B7946
:104FC00081E0039B012B29D1EB78039A134257D040
:104FD000029B1E702B79231C2C331B78002B09D1CC
:104FE000019B002B06D19823009A5B0513436A4668
:104FF00012791A70236B002B03D0F8B20821626B70
:105000009847A37D002B04D0201C08211830FFF7FF
:1050100090F800236360E360237554E02B79A26865
:10502000DBB2002A2AD0226913702369013323617D
:10503000A368013BA360A368002B44D1019B002B14
:1050400013D1231C2C331B78002B06D19823009AF4
:105050005B0513436A4612791A70E37D002B04D076
:10506000201C20211830FFF764F8002363752361AA
:10507000236BF8B22021002B20D124E0072321E06C
:105080006368002B1DD0E3681A782B1C80210C3339
:1050900049050B431B78002BF7D02A71E3680133D5
:1050A000E3606368013B63606368002B0BD1E360DE
:1050B0002375236B002B06D01021F8B2626B984742
:1050C00001E00623237009B0F0BDC046B4620000C1
:1050D000F002002084235B0503431A7800239A42E0
:1050E00009D0802301305B0518430378012B01D0E0
:1050F000024B00E0024B181C7047C04680841E0023
:1051000000127A0010B50D4A831D13431B78DBB2E1
:10511000002B10D0012B08D1041CFFF7DBFF084B3C
:1051200008341C432378D84006E00020022B03D12A
:10513000044B186800E0044810BDC0460000081188
:1051400000009010F4020020006CDC020B4A831D6A
:1051500013431B78DBB2012B06D0181E0CD00320A2
:10516000022B09D0052007E0802301305B0518439E
:1051700000784342584101307047C0460000081192
:10518000021C031C9C201833400503438020187028
:105190000020064B134318700548931D03431B78EA
:1051A000D8B20028F8D1034B0B60704700000813F9
:1051B00000000811006CDC02F8B5041C0D1C171C63
:1051C0001E1CFFF7C3FF012802D1002D04D007E009
:1051D000022805D1012D03D1201C311CFFF7D0FF7F
:1051E0008022631C520513431D70842302225B0539
:1051F00023431A70231C0C4A083313437A00D2B29B
:105200001A704022094B23431A70094AA31D134305
:105210001B78012BF9D1002D01D1064A00E0064A86
:105220003A4100203260F8BD0000901000000813E1
:105230000000081180841E0000127A000A4B10B58D
:105240001C681A1C0123002C0CD08024074B03433C
:105250001C70074C831D23431B78022BF9D1136864
:105260000B600023181C10BDF4020020000008137E
:10527000000008119C23C9015B051843C9B20170E5
:105280007047942349015B051843C9B20170704708
:105290008822044B8000C35852051C3313438900F5
:1052A00019607047B86200008822054B8000C3581F
:1052B0005205143313431868431E9841C0B2704717
:1052C000B86200006B46E0221B78D2021B04134038
:1052D00009071943014BC0180160704744100000D2
:1052E00008B5084B8200D35890220333520513436C
:1052F0001B78002B02D000F0F1F801E000F056F925
:1053000008BDC046C062000008B50C4B8000C25802
:105310000B4B0021C3589C200333400518431171E7
:1053200001709420400503431970137F8B4203D012
:105330002032101CFEF7EDFE08BDC046F80200202A
:10534000C0620000F7B5061C1C4B30220C1C870005
:10535000081C0021FD5800F05EFB301CFFF7DEF852
:10536000FFF7BAF82060281C00F063FA201C002127
:105370002030FEF7C7FEEB1C01939023019A5B05DA
:1053800013431022281C1A70032100F092FA281CE3
:10539000002100F0B4FA0A4BFC500A4B9A5D1F231F
:1053A000134001229A40131C074A13609823019A64
:1053B0005B05134340221A70F7BDC046C06200006F
:1053C000F8020020BC62000000E100E00A4B80000F
:1053D00070B5C658094B0C1CC358151C301C1A68F4
:1053E000096800F02DFA28602179301C6279A379D0
:1053F00000F072FA70BDC046C0620000F8020020E2
:10540000F7B51E4A83009C581D4A9E5822790423F2
:10541000002A31D1071C002902D001AAFFF7D6FFCC
:10542000982300214020F21C5B051343197018706B
:1054300025698D4203D1381CFFF766FF1BE001236D
:10544000237194235B053343A16119780723002955
:1054500012D0A368191E02D019780133A360B1716C
:105460002369013B2361A3690133A3619C235B058D
:105470001A43802313700023181CFEBDF80200207D
:10548000C0620000F8B5134F134C85002C59ED593C
:105490000127069E2777A2602661E3606661FFF719
:1054A000AFFF061E14D1201C07992030FEF772FEB4
:1054B0000328F8D000280BD09C210022EB1C4905C2
:1054C000194322710A709421032649050B431A706F
:1054D000301CF8BDC0620000F802002010B51E4B61
:1054E0008200D3581D4951581A79002A32D05A697E
:1054F000002A11D09C2252050A431278002A0BD0B0
:105500008A79DC68D2B2002C03D02270DA680132CA
:10551000DA605A69013A5A611A69002A12D0942253
:1055200052050A431278002A0CD09A68141E02D041
:10553000147801329A608C711A69013A1A619A6979
:1055400001329A611A69002A04D15B69002B01D1EA
:10555000FFF7DAFE10BDC046F8020020C06200006E
:10556000104A80008158002208B50F4B0331C35800
:10557000581CC2779C2040050843DA621A701A83CF
:105580005A629A621A6302709420400501430A70BD
:105590001A1C38321278002A03D0181D0121FEF798
:1055A000C8FD08BDC0620000F802002038B5254BD8
:1055B0008200D35824495258591CC97F00293FD032
:1055C000D96A002916DB942149051143097800297D
:1055D00010D0596A1C7F002905D0DD6A002D02DD3C
:1055E0000C78013159629471D96A0139D962596BC9
:1055F00001315963D96A002905DA9424D11C640564
:10560000214300240C70196B002911DD9C214905F0
:105610001143097800290BD09279996AD2B20029F6
:1056200003D00A709A6A01329A621A6B013A1A63BD
:10563000DA6A002A04DC1B6B002B01DCFFF790FF09
:1056400038BDC046F8020020C0620000002383601D
:10565000C3608361C36103624362704700B5031C8A
:1056600003291BD89022081C8C21203352054905A0
:105670001A43FAF775FF02070C0E00200B43106067
:1056800018600BE010200B431060002205E00020A2
:1056900000E01020106008220B431A6000BD0000DB
:1056A000031C021C10B51349134C4C3348320B43F6
:1056B00022431B681268114CD218031C4433234345
:1056C0001B688224D218031C6405403323431B68E3
:1056D0000B4CD218031C3C3323431B68383008435F
:1056E000D2180368D018802380B21B0240081843E8
:1056F00010BDC04600002810000030100000381017
:105700000000481014308023012A04D18A401B0570
:105710001843026005E0DB04184301238B40D943A2
:105720000160704701238B40002A01D0436000E0F4
:10573000836070470023C222037043708370C3707C
:1057400043718371C371037242728372C372704773
:10575000F0B5002789B00393FA2301253C1C9B0078
:1057600053430690079102936D4201970123A34092
:105770000493174B9E1CCA330593049B31880798EA
:105780005943FAF7F7FE029B029AC31A824200D9E4
:10579000131AAB4204D2B21E177801941D1E03D017
:1057A000059B04369E42E8D10134032C01D0002D24
:1057B000DCD1039B002B00D01D603F231F40019BC9
:1057C0009B011F43069BFFB25F7009B0F0BDC0464E
:1057D000DA620000942302305B0503431B78002B40
:1057E00004D088235B051843042303E080231B05B2
:1057F00018433023037070479422831C52051A43C8
:105800001278011C0220012A12D18022D2041343F3
:10581000CF221A708022D2002023C878034004D0FF
:10582000013A002A03D0C046F6E7181C00E0092020
:1058300070470423C3700023837043700371704763
:10584000F0B5130B89B001250493082300266D429F
:1058500003935B1907900591069202930227002497
:10586000731C191C069879430193FAF783FE059B74
:10587000834206D31B1A9D4203D91D1C0490039436
:10588000029601347F00092C02D0002DE8D104E0FB
:10589000072E02D0019E002DE0D17022029B0498B9
:1058A0001B011340039A1343079ADBB2537009B0EC
:1058B000F0BD8422C31C52051A4301230B405B0038
:1058C000DBB2137090238907C90F5B050230090111
:1058D0001843C9B20170704710B58C2403306405B9
:1058E000C9000443C9B221708821920049050143CF
:1058F000D2B20A70802252051043037010BD80237B
:10590000012202305B0503430A401A708C23890789
:10591000C90F5B05C9001843C9B201707047011C6B
:10592000002008B5021C031C00F03EF908BD000071
:10593000014B18687047C0468CFFFF1F084B10B51D
:10594000041C002B02D0002100F08AF9054B1868D6
:10595000836A002B00D09847201C00F0F5F9C04660
:10596000615C0000A463000038B5074B074C1D1CA8
:10597000E41AA410002C04D0013CA300EB58984773
:10598000F8E700F017FD38BDCC630000D0630000DD
:105990000E4B70B500251E1C0D4CE41AA410A54238
:1059A00004D0AB00F35898470135F8E700F0FCFC51
:1059B000084B00251E1C084CE41AA410A54204D074
:1059C000AB00F35898470135F8E770BDC863000095
:1059D000C8630000C8630000CC63000008B5034B37
:1059E000011C186800F066F808BDC0468CFFFF1F58
:1059F00008B5034B011C186800F016F808BDC04636
:105A00008CFFFF1F002310B5934203D0CC5CC4541D
:105A10000133F9E710BD031C8218934202D01970BC
:105A20000133FAE77047000030B500293ED0043951
:105A30000B68002B00DAC9181D4A1368141C002BD0
:105A400002D14B60116031E099420DD208680A180A
:105A50009A4203D11368C3180B6053684B602160EE
:105A600024E08A4203D8131C5A68002AF9D11D6821
:105A70005C198C420BD1096869185818196090425A
:105A800014D110685268091819605A600EE08C42EF
:105A900002D90C23036009E008680C18944203D172
:105AA00014685268001908604A60596030BDC046E9
:105AB00000030020032370B5CC1C9C430834051C54
:105AC0000C2C01D20C2405E0002C03DA0C2300205E
:105AD0002B6042E08C42F9D3204A1368101C191C39
:105AE000002913D00A68121B0DD40B2A02D90A60B0
:105AF0008B181FE08B4202D15A6802601BE04A6893
:105B00005A600B1C17E00B1C4968E9E7144E336818
:105B1000002B03D1281C00F025F83060281C211C24
:105B200000F020F8031C421CD0D00322C61C964370
:105B300086420AD11C60181C07210B301A1D8843AD
:105B4000821A0AD05142995007E0311A281C00F0FD
:105B500009F8431CBAD0331CECE770BD00030020E9
:105B6000FC02002038B50023064C051C081C2360ED
:105B7000FDF78AF9431C03D12368002B00D02B606A
:105B800038BDC04694030020031C0A7801311A7006
:105B90000133002AF9D170470023C25C0133002A87
:105BA000FBD1581E70470000F7B52A4D061C2C6823
:105BB0000091171C0193002C01D1274C2C606368C5
:105BC0001F2B15DD254B002B02D10120404240E068
:105BD0008C20FFF703FF041EF7D02A680023026021
:105BE000021C88324360286013609E420AD128E07C
:105BF000002E26D0231C88331868002810D1174B9C
:105C0000002BE2D084204000FFF7E8FE0028DCD023
:105C1000031C0022FC335A609A60231C88331860EE
:105C2000012261688A408B00C31880C3FC30416840
:105C3000114341600199D967022E02D183681A434A
:105C40008260002063685A1C62600233009A9B00E5
:105C50001A51FEBD9003002004030020DD5900000E
:105C6000F0B587B005900391344D2C68002C63D0BB
:105C7000231C88331E6863685A1E0192304A9B18A1
:105C80009B00F7180433E3180293019B002B3DDBC4
:105C9000039B002B07D0002E31D03B1C80331B68A8
:105CA000039A93422BD16268029B0199013A5B6887
:105CB000914201D1616002E0002202994A60002B0A
:105CC0001DD062680492002E07D0012201998A40FB
:105CD000311CFC314868104201D1984708E08968BE
:105CE000114203D105983968984701E03868984710
:105CF000049B62689342B7D12B68A342B4D1019B45
:105D0000043F013B0193029B043BBDE70D4B002B7D
:105D100012D062682368002A0BD1002B09D02B60B7
:105D2000002E02D0301CFFF763FE201CFFF760FE40
:105D30009BE7251C1C1C99E707B0F0BD90030020D1
:105D4000FFFFFF3FF1590000FEE7C046BA100E0208
:105D50009109800FA701BD09BE0F9901A40A270F61
:105D600042018B0AE80FBA01880917116301A509DE
:105D7000950E9C033007BE12A00413086513FF059F
:105D8000B509C20D6E3B103CE30B990789049C0BCF
:105D900042054405D60B3D059103D70B9008210021
:105DA000890AE3096536CF07C20B2D366C05ED0D68
:105DB0000300E803040EA3024000430DAC34C811F5
:105DC000E81BF4026B0CA5063F3DCB0E35047D406D
:105DD000A90F07049E02F40F23030703DF0F340308
:105DE0005C0219107B03BD010A105003C601EF0FBE
:105DF0008D03DD00580F0F04F302930DCA01773CA9
:105E00001401610E3301D700E70D24016D009C0DD4
:105E1000500069124E0E4C11A811940E471130110A
