:1000000000060020310500005905000059050000D8
:1000100000000000000000000000000000000000E0
:100020000000000000000000000000005905000072
:100030000000000000000000590500005905000004
:100040005905000059050000590500005905000038
:100050005905000059050000590500005905000028
:1000600031270000590500003B270000590500001A
:1000700059050000590500005905000081200000C5
:1000800059050000590500005905000059050000F8
:10009000A9160000C116000059050000590500000E
:1000A00059050000590500005905000059050000D8
:1000B00059050000590500005905000059050000C8
:10040000FFFFFFFFFFFFFFFFFFFFFFFFFE3DFFFFBF
:1004100008B5054B054803331B1A062B03D9044BBB
:10042000002B00D0984708BD94FFFF1F94FFFF1FCB
:10043000000000000648074908B5091A8910CB0FCB
:100440005918491003D0044B002B00D0984708BD21
:1004500094FFFF1F94FFFF1F0000000010B5074C22
:100460002378002B09D1FFF7D3FF054B002B02D0D7
:10047000044800E000BF0123237010BD94FFFF1F5C
:1004800000000000AC4A000008B5094B002B03D067
:100490000848094900E000BF08480368002B02D162
:1004A000FFF7C8FF08BD064B002BF9D09847F7E7C8
:1004B00000000000AC4A000098FFFF1F90FFFF1FE4
:1004C00000000000144B002B00D1124B9D4640222F
:1004D00092029A1A924600218B460F461148124A00
:1004E000121A03F038FE0D4B002B00D098470C4B2E
:1004F000002B00D098470020002104000D000B487D
:1005000003F0ADFD03F0E4FD2000290001F018FA2E
:1005100003F0B4FD00000800000600200000000009
:100520000000000094FFFF1F9C030020A940000072
:1005300072B606480649074A02600A6002F002F9EC
:1005400002F042F962B6FFF7BDFF000080E100E073
:1005500080E200E0FFFFFFFF004800475905000070
:1005600002B4714649084900095C49008E4402BC46
:100570007047C046002243088B4274D303098B4264
:100580005FD3030A8B4244D3030B8B4228D3030C63
:100590008B420DD3FF22090212BA030C8B4202D305
:1005A0001212090265D0030B8B4219D300E0090A2D
:1005B000C30B8B4201D3CB03C01A5241830B8B4236
:1005C00001D38B03C01A5241430B8B4201D34B031F
:1005D000C01A5241030B8B4201D30B03C01A524184
:1005E000C30A8B4201D3CB02C01A5241830A8B4209
:1005F00001D38B02C01A5241430A8B4201D34B02F2
:10060000C01A5241030A8B4201D30B02C01A524155
:10061000CDD2C3098B4201D3CB01C01A5241830909
:100620008B4201D38B01C01A524143098B4201D343
:100630004B01C01A524103098B4201D30B01C01A6E
:100640005241C3088B4201D3CB00C01A52418308E8
:100650008B4201D38B00C01A524143088B4201D315
:100660004B00C01A5241411A00D201465241104675
:100670007047FFE701B5002000F0FCF802BDC0465E
:100680000029F7D003B5FFF775FF0EBC4243891A66
:100690001847C04603460B437FD4002243088B42D1
:1006A00074D303098B425FD3030A8B4244D3030BF9
:1006B0008B4228D3030C8B420DD3FF22090212BABE
:1006C000030C8B4202D31212090265D0030B8B423A
:1006D00019D300E0090AC30B8B4201D3CB03C01A24
:1006E0005241830B8B4201D38B03C01A5241430BFF
:1006F0008B4201D34B03C01A5241030B8B4201D3EF
:100700000B03C01A5241C30A8B4201D3CB02C01A59
:100710005241830A8B4201D38B02C01A5241430AD1
:100720008B4201D34B02C01A5241030A8B4201D3C0
:100730000B02C01A5241CDD2C3098B4201D3CB0167
:10074000C01A524183098B4201D38B01C01A524116
:1007500043098B4201D34B01C01A524103098B421A
:1007600001D30B01C01A5241C3088B4201D3CB0005
:10077000C01A524183088B4201D38B00C01A5241E8
:1007800043088B4201D34B00C01A5241411A00D298
:1007900001465241104670475DE0CA0F00D0494201
:1007A000031000D34042534000229C4603098B4271
:1007B0002DD3030A8B4212D3FC22890112BA030AF9
:1007C0008B420CD3890192118B4208D3890192117B
:1007D0008B4204D389013AD0921100E08909C30900
:1007E0008B4201D3CB01C01A524183098B4201D302
:1007F0008B01C01A524143098B4201D34B01C01AED
:10080000524103098B4201D30B01C01A5241C30864
:100810008B4201D3CB00C01A524183088B4201D3D3
:100820008B00C01A5241D9D243088B4201D34B00EE
:10083000C01A5241411A00D20146634652415B1030
:10084000104601D34042002B00D549427047634611
:100850005B1000D3404201B5002000F00BF802BD50
:100860000029F8D003B5FFF715FF0EBC4243891AE3
:100870001847C0467047C0468446081C6146FFE7DB
:100880001FB500F073FB002801D40021C8421FBD32
:1008900010B500F0F7FA4042013010BD10B500F07D
:1008A00065FB002801DB002010BD012010BDC04603
:1008B00010B500F05BFB002801DD002010BD012019
:1008C00010BDC04610B500F007FB002801DC002079
:1008D00010BD012010BDC04610B500F0FDFA002883
:1008E00001DA002010BD012010BDC0469E2110B5C8
:1008F000C905041CFFF7F0FF002803D1201C00F0FD
:100900002BFE10BD9E21201CC90500F0A7FC00F0A5
:1009100023FE80231B069C466044F2E7F8B54A009C
:10092000430244004E02C50F240E281C9B09120EE0
:10093000C90FB7098D4240D0A01A002800DC84E01E
:10094000002A1CD1002F5CD15A0704D00F221A4074
:10095000042A00D004338022D2041A40281C002A22
:1009600024D00134FF2C00D17BE09B015B0AE4B270
:100970005B02E4055B0A2343C0071843F8BDFF2C64
:10098000E2D08022D204174301261B2808DC391C40
:1009900020223E1CC140101A8640771EBE410E43E5
:1009A0009B1B5A0133D4281C5A07CFD1DB08FF2CDC
:1009B0001ED05B025B0AE4B2DAE7A11A002957DD18
:1009C000002A3AD0FF2CBFD08022D2041743012640
:1009D0001B2972DD9B195A01E5D50134FF2C00D18A
:1009E00087E001218A4A194013405B080B43ABE7BB
:1009F000002B36D08022D20313435B025B0AFF2414
:100A0000B6E7013800283FD1DB1B5A01CBD59B014B
:100A10009E09301C00F008FE05388640844223DC25
:100A2000001B1F24321C431C201ADA408640131C72
:100A3000741EA6410024334386E7002F00D183E7CC
:100A40000139002950D1DB19C5E7002820D1621CEB
:100A5000D2B2012A5EDDDE1B720128D5FE1A0D1C02
:100A6000D7E7FF24002383E7694B241A33406BE761
:100A7000002958D1621CD1B201293CDDFF2A37D0B0
:100A8000FB185B08141C5FE7FF2C00D07CE75BE7DA
:100A9000002C1ED0FF2A23D08024E40440422343AC
:100AA0001B285BDD0123FB1A141C0D1CADE7002E77
:100AB000AFD100230020002478E73A1CCA409446B6
:100AC00020223E1C511A8E406246771EBE411643BC
:100AD00080E7002B3ED0C0430028E4D0FF2ADFD1BE
:100AE0003B1CFF240D1C2FE7FF2C00D06FE72BE7EA
:100AF000FF2400235AE7002C5AD1002B7FD0002F6F
:100B000000D121E7DB195A0100D44CE7404A0134F7
:100B1000134019E7002C15D1002B2FD1002F5DD0E9
:100B20003B1C0D1C10E7002C21D1002B53D0C943D6
:100B3000002904D0FF2A4BD01B2957DD0123DB19E4
:100B4000141C48E7002B22D1002F4AD03B1C0D1C5F
:100B5000FF24F9E63B1C141C0D1CF5E61D1C20248B
:100B6000C540201A8340581E83412B439BE7FF2A30
:100B70002ED08024E40449422343DDE7002F00D136
:100B8000E2E6DA1B50013CD5FB1A0D1CDCE6FF2423
:100B9000002F00D1D8E68022DB08D203134204D014
:100BA000FE08164201D1331C0D1CDB00FF24CBE6EE
:100BB000002B0DD0FF24002F00D1C5E68022DB08DA
:100BC000D2031342F1D0FE081642EED1331CECE7FB
:100BD0003B1CFF24B8E63B1C141CB5E6231C00207C
:100BE000E4E6802300209B04FF24DFE61E1C202473
:100BF000CE40611A8B40591E8B4133439FE73B1C0B
:100C0000A2E6131E00D0CEE600230020CEE6C046AA
:100C1000FFFFFFFBF0B556464D465F464446F0B435
:100C200043024500C70F83B08A465C0A2E0EB946C0
:100C300041D0FF2E26D080231B042343DC00002359
:100C400098469B467F3E53465B025D0A53465A00D8
:100C5000DB0F120E9A4639D0FF2A33D080231B04B3
:100C60002B43DD0000237F3A5146B21A46467940B5
:100C7000081C01921E430F2E00D976E07E4AB60072
:100C80009659B746002C30D108239846063B9B4620
:100C9000D9E780230021DB03FF245B02E4055B0A24
:100CA000C90723430B43181C03B03CBC904699462C
:100CB000A246AB46F0BD002C28D104239846033B46
:100CC0009B46C0E7002D1FD1022302E0002D11D169
:100CD0000123B21A50464646784001921E430F2E19
:100CE00027D86649B60089598F460C239846093B98
:100CF0009B46A8E7281C00F097FC7622431F52422F
:100D00009D40121A0023AFE70323ADE7201C00F03B
:100D10008BFC431F9C4076235B421E1A002398469F
:100D20009B4690E70025D1469B465B464846022BF2
:100D30006FD10121FF2401400023AEE77E23019AF9
:100D40005B429B1A1B2B6DDD01214B461940002491
:100D50000023A2E78023DB031C4249D18023DB036D
:100D600023435B025B0A391C96E763016D01AB42CA
:100D700037D389461A2001215B1B01241E1C490020
:100D80005B00002E01DBAB4201D35B1B214301382A
:100D90000028F3D1581E83410B431D1C019C7F3456
:100DA000002CCBDD6B0704D00F232B40042B00D08D
:100DB00004352B0104D5019A314B8032141C1D409F
:100DC000FE2C07DD4B460121FF241940002364E778
:100DD000251CAAE701214A46AB015B0AE4B2114097
:100DE0005BE7019A8946013A01921B200021C4E782
:100DF0001D4207D023435B025B0A391C4CE70025E8
:100E00006302ABD58023DB032B435B025B0A5146B5
:100E100042E7032B25D0012BC0D101210024014042
:100E200000233AE7291CD9402B1C019A9E3293409B
:100E30005D1EAB410B435A0704D00F221A40042A0F
:100E400000D004335A0105D54B4601210124194035
:100E5000002322E701214A469B015B0A114000243E
:100E60001BE7802301214A46DB032B435B020A4038
:100E70005B0A111C10E7C0467C450000BC45000021
:100E8000FFFFFFF7430270B542004C005D0AC30F3D
:100E90004802120E460A240EC90FFF2A05D0FF2C65
:100EA00008D00120A2420BD070BD0120002DFBD143
:100EB000FF2CF6D10120002EF6D10120A242F3D161
:100EC000B542F1D18B4205D0002AEDD1281C431E3A
:100ED0009841E9E70020E7E7F0B543024D024A00F8
:100EE00044005E0A240EC30F6D0A120EC90FFF2CB8
:100EF0000DD0FF2A31D0002C0DD177427741002A46
:100F000023D1002D21D10020002F0BD107E0002E8E
:100F100028D1FF2A21D0002A05D08B4207D0584281
:100F200001231843F0BD002DF9D08B42F7D1944234
:100F3000F5DC04DBAE42F2D80020AE42F2D25842D9
:100F4000434101205B421843ECE7002FE5D04842C3
:100F50004141012049420843E4E7002D02D1002C21
:100F6000CBD0DAE702204042DCE7C0464302F0B5CE
:100F700042004C005E0AC30F4802120E450A240EBE
:100F8000C90FFF2A0FD0FF2C1AD0002A10D17742A8
:100F90007741002C29D0002F17D048424141012031
:100FA000494208430BE00220002E08D1FF2C07D055
:100FB000002C0AD1002D08D1584201231843F0BD5E
:100FC0000220002DFBD1002AE1D08B42F4D1A242B5
:100FD000F2DC04DBAE42EFD80020AE42EFD2584242
:100FE000434101205B421843E9E7002DD3D10020A3
:100FF000002FE4D1E0E7C046F0B55F4656464D46C7
:101000004446F0B445024600C40F83B00F1C6D0A7D
:10101000360EA34645D0FF2E25D080231B041D434A
:1010200000239A46ED007F3E01937B025B0A9846BF
:101030007800FB0F000E994640D0FF2838D080235F
:1010400042461B041343DB00984600237F384A4680
:10105000019F30186240411C1F430F2F69D87D4EFD
:10106000BF00F659B746002D45D108230193063B32
:101070009A46DAE793465346022B2FD15B4601246A
:1010800000251C40FF236D02DB056D0AE4071D43AC
:101090002543281C03B03CBC90469946A246AB466B
:1010A000F0BD002D2CD104230193033B9A46BCE7ED
:1010B00043465A4253410322D31AC8E7424601230A
:1010C000002AC4D0404600F0AFFA4246431F9A407F
:1010D00076235B42181A90460023B8E7032B00D111
:1010E000ADE0012B00D08CE05B4654461C40E4B2DE
:1010F00000230025C7E70C230193093B9A4694E798
:10110000281C00F091FA7626431F9D40002376426A
:10111000361A01939A4688E780250024ED03FF23C1
:10112000B1E74546CB469A46A5E7454693469A46DB
:10113000A1E743462C041B0C9C46230C4446260482
:101140001C1C360C2F0C7443351C66467D437343C0
:101150007743EB18260C9E19B54203D980235B0216
:101160009C46674424043304240C1B199D016C1E07
:10117000A5419B0E360C2B43BD19AD011D432B0120
:1011800004D5012368081D400543081C031C7F3358
:10119000002B2CDD690704D00F212940042900D041
:1011A0000435290103D52C4B1D40031C8033FE2B35
:1011B00017DD0124FF231440002564E78020C003CD
:1011C000054209D04346034206D1454605436D0218
:1011D0006D0A4C46FF2356E705436D026D0AFF2357
:1011E00051E70124AD016D0ADBB214404BE77E23C9
:1011F0005B421B1A1B2B07DD012400231440002532
:1012000041E7081C5A46C1E79E30291C8540D94059
:10121000681E85410D436B0704D00F232B40042B20
:1012200000D004356B0104D50124012314400025AE
:1012300029E70124AD016D0A1440002323E7802330
:10124000DB031D4301245B466D0223401C1C6D0A19
:10125000FF2318E7FC450000FFFFFFF7F8B54A0041
:10126000430244004D02C00F240E061C9B09120EBF
:10127000C90FAD09FF2A00D175E0012779408842E6
:1012800050D0A01A002800DC8FE0002A1ED1002DCB
:1012900000D075E05A0704D00F221A40042A00D06B
:1012A000043380220120D2041A403040002A32D078
:1012B0000134FF2C00D184E09B015B0AE4B25B02A5
:1012C000E4055B0A2343C0071843F8BDFF2CE1D0B7
:1012D0008022D20415431B287ADD01255B1B5A01AD
:1012E0005DD59B019F09381C00F09EF905388740A9
:1012F000844269DC001B1F243A1C431C201ADA407C
:101300008740131C7C1EA74100243B43C2E7131EE9
:1013100045D100230020DB08FF2C28D05B025B0AAC
:10132000E4B2CCE7A11A00295BDD002A2ED0FF2C05
:10133000B0D08022D20415431B2974DC2F1C20223C
:10134000CF40511A8D40691E8D413D435B195A01B2
:1013500025D50134FF2C74D001217E4A1940134059
:101360005B080B4396E7002D00D088E785E7002B4C
:1013700027D08022D20313435B025B0AFF249EE73F
:1013800001380028AAD0FF2CA5D183E7002D00D179
:1013900080E701390029D9D0FF2CCDD17AE75A074F
:1013A00000D079E701203040B5E7002825D1621C44
:1013B000D2B2012A55DD5F1B7A012DD5EF1A0E1C22
:1013C00091E7FF2400237AE7624B241A3B4061E750
:1013D000291C2022C140101A8540681E85410D43FA
:1013E0007CE7002946D1621CD1B201292BDDFF2AFE
:1013F00026D0EB185B08141C4CE7002C15D0FF2AF4
:101400001AD08024E404404223431B284DDD0123ED
:10141000EB1A141C0E1C62E7002F00D063E70023B8
:101420000020002477E7012590E7002B39D0C04346
:101430000028EDD0FF2AE8D12B1CFF240E1C29E741
:10144000FF24002367E7002C5AD1002B7FD0002D0A
:1014500000D11FE75B195A01A1D53E4A0134134060
:1014600018E7002C15D1002B2FD1002D5ED02B1C9E
:101470000E1C0FE7002C21D1002B54D0C9430029AA
:1014800004D0FF2A4CD01B2958DD01235B19141C02
:101490005DE7002B23D1002D4BD02B1C0E1CFF240D
:1014A000F8E62B1C141C0E1CF4E61E1C2024C6405F
:1014B000201A8340581E83413343A9E7FF2A2FD0C7
:1014C0008024E40449422343DDE7002D00D1E1E616
:1014D0005A1B500100D41AE7EB1A0E1CDAE6FF245F
:1014E000002D00D1D6E68022DB08D203134204D0BF
:1014F000ED08154201D12B1C0E1CDB00FF24C9E6B0
:10150000002B0DD0FF24002D00D1C3E68022DB0884
:10151000D2031342F1D0ED081542EED12B1CECE7BB
:101520002B1CFF24B6E62B1C141CB3E6231C002046
:10153000F1E6802300209B04FF24ECE61F1C2024FE
:10154000CF40611A8B40591E8B413B439EE72B1CB9
:10155000A0E6C046FFFFFFFB4202510A4200C30F54
:10156000120E00207E2A0DDD9D2A0CDC8020000456
:101570000143952A0ADC9620821AD1400A1C58425F
:101580004240D0187047034A9818FBE7963A9140BA
:101590000A1CF4E7FFFFFF7F70B5041E39D0C50FAA
:1015A00000D04442201C00F03FF89E23261C1B1A4A
:1015B000962B07DC082801DD083884406402640AA1
:1015C000D8B21EE0992B0ADD0522211C121AD14047
:1015D0000A1C011C1B318E40711E8E4116430528CA
:1015E00001DD421F96400F4C3440720704D00F2299
:1015F0001640042E00D0043462010ED4A401640A03
:10160000D8B26402C005640AED0704432C43201CD1
:1016100070BD002500200024F3E7024B1C409F23EF
:101620001B1AEBE7FFFFFFFB1C2101231B04984261
:1016300001D3000C10391B0A984201D3000A083963
:101640001B09984201D30009043902A2105C40181A
:101650007047C046040302020101010100000000BE
:101660000000000008B50A4B1A68002A01D1094A97
:101670001A601A6808491018884206D902F0F8FC66
:101680000C2303600120404201E01860101C08BDDB
:10169000B0FFFF1FA0030020A103002002238078D9
:1016A000834280414042704708B5002002F09CF917
:1016B000002803D00020011C02F08AF908BD0000B8
:1016C000024A1368013313607047C046ECFFFF1FE6
:1016D00037B5002001F0C2FAC02300250D4A9B0057
:1016E00013600D4A0D4C13600D4A281C13600D4BFE
:1016F00025716571A5711A68FA239B0053430A4945
:10170000236002F0BFF9281C211C01AA02F0FEF997
:1017100037BDC0461890145420901454D8FFFF1FB2
:101720002490145400FEFF1FF0FFFF1F08B5002097
:1017300001F099FA8023054A9B001360044A0020B7
:101740001360044901F092FD08BDC0460CA014547A
:1017500010A01454B4FFFF1F08B5092001F0A6FC27
:1017600008BD08B50C2001F0A1FC08BD08B5FFF7C5
:10177000F3FFFFF7F6FF8320400001F089FC08BD6E
:10178000F0B5684CC5B0211C3C2208A802F0DAFC78
:10179000211C3C223C3117A802F0D4FC211C3C2225
:1017A000783126A802F0CEFC5F4935A834313C22BE
:1017B00002F0C8FC5D4B1B78002B05D100F0EEFB5E
:1017C000642001F0C3F8F5E700F010FC00240623C4
:1017D0006343574A00209B185B88221C55490134FB
:1017E00000F09AFF0A2CF2D10024002706940494FA
:1017F000029400254E4B08AAFB185E5BBB185B5B8E
:10180000181C70430193FFF7C7FE011C0298FFF7F5
:1018100085F817ABDB195B5B0290181C70430393D0
:10182000FFF7BAFE011C0498FFF778F826ABDB1926
:101830005B5B0490181C70430593FFF7ADFE011C21
:101840000698FFF76BF835ABDB195B5B0690181C4D
:1018500070430793FFF7A0FE011C201CFFF75EF802
:101860000235041C062DC5D106373C2FC1D1059B7E
:1018700001985B4340439BB280B20593FFF78CFE17
:10188000011C0298FFF7C6F9051C0398404380B27B
:10189000FFF782FE011C0498FFF7BCF9079E071CA6
:1018A0007643B0B2FFF778FE011C201CFFF7B2F9B7
:1018B000291C061C381CFFF705F83C1C002814D115
:1018C0000598FFF769FE011C0698FFF7A3F9291C8C
:1018D000041CFEF7F7FF002807D1301C291CFEF777
:1018E000F1FF341C002800D12C1C391C281CFFF7E8
:1018F00015F8211CFFF712F8311CFFF70FF8011C37
:10190000201CFFF787F90C49FFF776FBFEF7EEFF87
:101910000721C2B2094800F0C9F80022034B1A702F
:1019200048E7C0468C4400000C450000F000002051
:1019300068000020A14600000000C842B446000034
:1019400037B5002001F078F9012001F075F9802207
:10195000294B120201241A6001F016F80020FA2522
:10196000021C031C0094011C00F0E8FC6D002349DC
:10197000002000F0D7FC281C00F0E8FF20490020E0
:1019800000F0D0FC281C00F0E1FF1E49002000F010
:10199000C9FC281C00F0DAFF231C1B4A02211B484B
:1019A00001F016F8211C201C01F01EF818491948F6
:1019B00001F052FB0520FFF7B9FE1749682000F03F
:1019C00039FBFFF7D3FE752000F09AFA021CFE34B3
:1019D00022401249002000F09FFE422000F090FAC1
:1019E000021C0F492240002000F096FE00F0A0F8F3
:1019F00000F0B0FBFFF7C4FEF8020020BC46000078
:101A0000D7460000DD46000010FEFF1F14FFFF1F39
:101A100024FEFF1F14FEFF1FE0FFFF1FE44600002F
:101A2000F346000037B50E24FF34051C201C01F0DE
:101A30002FFB201C01F03AFB0C2001F037FB0123A7
:101A4000084A002015700093FA239B000193011CA3
:101A5000054B02F0B7F8051C201C01F019FB281CEF
:101A60003EBDC046410000202100002073B50E2479
:101A7000FF34051C201C0E1C01F00AFB201C01F089
:101A800015FB0C2001F012FBFA2300209B002A1CFE
:101A900000960193011C044B02F094F8051C201CD5
:101AA00001F0F6FA281C76BD21000020F0B5141CC8
:101AB00085B00E1C071C00F00DF92520FFF7B2FFC2
:101AC0000020FFF7AFFF0020FFF7ACFF5F20FFF71C
:101AD000A9FF3F20FFF7A6FF201C0A21FEF74AFDC1
:101AE000C0B2303001900A21201CFEF7C9FD252329
:101AF0000024C9B201AD30316960AB60062060439B
:101B0000C0B2B44205D03A5D0A2100F067F9013451
:101B1000F4E7002406206043A300C0B22D21EA5858
:101B2000013400F05BF9032CF4D105B0F0BD0000E6
:101B300038B50125604B614A1D70C0239B001360BE
:101B40005F4A85241360FFF7C3FD80235D4A5B0075
:101B500013605D4A640013605C4A201C136001F04E
:101B600097FA642000F0F2FE201C01F09FFA642036
:101B700000F0ECFE201C01F08BFA642000F0E6FE81
:101B8000AE20FFF74FFFA020FFF74CFF7220FFF7BA
:101B900049FFA120FFF746FF0020FFF743FFA220E7
:101BA000FFF740FF0020FFF73DFFA420FFF73AFFBB
:101BB000A820FFF737FF3F20FFF734FFAD20FFF7E6
:101BC00031FF8E20FFF72EFFB020FFF72BFF0B20F9
:101BD000FFF728FFB120FFF725FF3120FFF722FF95
:101BE000B320FFF71FFFF020FFF71CFF8A20FFF74D
:101BF00019FF6420FFF716FF8B20FFF713FF7820F3
:101C0000FFF710FF8A20FFF70DFF6420FFF70AFFA0
:101C1000BB20FFF707FF3A20FFF704FFBE20FFF7C6
:101C200001FF3E20FFF7FEFE8720FFF7FBFE0620A8
:101C3000FFF7F8FE8120FFF7F5FE9120FFF7F2FE97
:101C40008220FFF7EFFE5020FFF7ECFE8320FFF726
:101C5000E9FE7D20FFF7E6FEAF20FFF7E3FE26203A
:101C6000FFF7E0FE281CFFF7DDFE2520FFF7DAFE78
:101C70000020FFF7D7FE0020FFF7D4FE5F20FFF71C
:101C8000D1FE3F20FFF7CEFE8720FFF7CBFE0E20D0
:101C9000FFF7C8FE032000F07DF80020FF21021CA2
:101CA00000F028F800F070F8094803213222FFF70D
:101CB000FDFE002038BDC0462000002020901454B6
:101CC0002490145434A014543090145400A014548C
:101CD000FE4600000023044A1370044A13700122D8
:101CE000034B1A707047C046650000206600002054
:101CF00020000020C008800183B2890819434901EF
:101D0000D20889B21143081C7047F0B587B003AC04
:101D1000071C009201930B220CAB0E1C201C00210F
:101D20001D8802F018FA2623201C02212370FFF7D9
:101D30009DFE212323703B1C5F2F00D95F2363701E
:101D4000331C3F2E00D93F23A3706B46009A1B78AB
:101D50005F2A00D95F23E3706B46019A1B793F2A03
:101D600000D93F232371EB0A5B0063716B059B0E67
:101D7000A3711F232B405B00201C0821E371FFF798
:101D800075FE07B0F0BD0000014B18807047C046DB
:101D900062000020014B18707047C04664000020AC
:101DA00000B50D4A031C10780138032810D8FEF73F
:101DB000D7FB02060B0D02221A60012302E001226A
:101DC0001A6002230B6006E0022202E0062200E015
:101DD00001221A600A6000BD64000020F0B5424D87
:101DE00089B02B78141C012B09D1404B00201A78A4
:101DF0003F4B40491B7800F08FFC00232B70231CC5
:101E00001F3B0A2C07D10022384B1A70384A13782E
:101E10001033137065E0602B63D8344B1A78592A5D
:101E200009DD0021324A197013781033DBB21370C8
:101E30002E2B00D9117006A807A9FFF7B1FF0623C2
:101E40006343002404930025049B2B4AE318C03B02
:101E5000D3180593069B9D4236DA10270020059B78
:101E60001B7803930026079B9E4224DA6A46127B66
:101E700052B2002A02DA0130C0B21AE0002818D0AB
:101E80001B4A7B43127806999B186143174A9B1B98
:101E90001278DBB202388A18591E1B1817485219DB
:101EA0000088D2B20090C9B2101CDBB2FFF72DFF40
:101EB00000200136D7E7039B013F5B00DBB20393B1
:101EC000002FCFD10135C5E70134062CBBD106A8C0
:101ED00007A9FFF765FF069B044A5C431378E418E3
:101EE000147009B0F0BDC04620000020650000203D
:101EF00066000020024700001C470000620000202E
:101F000010B501240D4B88B01B7806A90B8004AADC
:101F100005AB10704C600093642301940293002081
:101F2000231C01F0EAFA031E04D00020221C011C2D
:101F300000F0F2FB059BD8B208B010BDE0FFFF1F18
:101F400010B53B20FFF7DCFF041C0F2000F0FEFC67
:101F50003C20FFF7D5FF2402204380B210BD10B50E
:101F60003D20FFF7CDFF041C0F2000F0EFFC3E20CA
:101F7000FFF7C6FF2402204380B210BD10B53F20FA
:101F8000FFF7BEFF041C0F2000F0E0FC4020FFF72D
:101F9000B7FF2402204380B210BD0000F8B506242C
:101FA0000F4D2F78FFF7CCFF67430E4EB8532F78B5
:101FB000FFF7D5FF6743F71978802F78FFF7DEFF2B
:101FC0007C432B7834190133DBB2A0800022092B2B
:101FD00001D82B7000E02A70034B1A70F8BDC04680
:101FE00067000020A4000020E0000020F0B50E48AB
:101FF0000E4C0378A11C3E3406225A430C4D8E1E13
:10200000575BAA18558837800D80928809254A8029
:1020100000220133DBB29D4252410631524213404D
:10202000A142E9D10370F0BD6700002068000020E4
:10203000A4000020E02300B55B0008704B600C4951
:1020400089B00878563B05AA06A9FF3B13700880A3
:1020500000230120537048600092022201926232F4
:102060000292181C1A1C01F03BFA09B000BDC046D0
:10207000E0FFFF1F0122014B1A707047F0000020A3
:1020800010B500240020211C032200F05FFF00286F
:102090000DD0211C002000F049FF074A6300985230
:1020A000064BA200D158002901D0D3589847012CE3
:1020B00001D00124E6E710BDEC000020E400002080
:1020C000F0B58BB06946061C00F0E6FD6B461D4975
:1020D0005A88002000F020FB01A9301C04AC00F05D
:1020E000DBFD01A9301C00F031FE201C00F050FE89
:1020F000002501270323211C301C23712770E57064
:10210000E571677200F056FE642302A90B80DB18AC
:102110004B80281CC63B0B7100F0C0FE0A4A0B4BDB
:10212000301C1A60092307AA291C536057721772C2
:10213000157000F0D7FE8022281C054B1A600BB0EA
:10214000F0BDC0465C49000075200000E40000209E
:102150001880845308B50949002000F0DDFA0020FA
:10216000FFF7AEFF00200921021C00F0EFFE04493A
:10217000021C002000F0D0FA08BDC0466B490000E8
:102180007D4900000269C3689A4203D8806810182C
:10219000013800E0501EC01A7047F7B58368C66862
:1021A000051C40680191141C9F1B8019974203D99C
:1021B00001F0C8FFA4190AE001993A1C01F0C2FF1E
:1021C000019BE41BD9196868221C01F0BBFFEC607D
:1021D000F7BD0023F7B5061C171CC56801910093D5
:1021E0003369B468AB4200D81B19013B5B1B641B0D
:1021F000BC4200D93C1C9C4200D91C1C7368221CA8
:102200005819019901F09EFF009B2D191B1900938D
:10221000019B3F1B1B190193B368EB1A5A1E934194
:102220005B421D40F560002FDAD10098FEBD000032
:10223000022310B5104C114A23616361104BA26157
:10224000E3618023A2640F4A5B002362E2640023FF
:102250001022A3626362E362A3656365E36522659E
:10226000E01D094902F030F8201C084902F02CF862
:102270002023A37110BDC04604020020894900003C
:1022800001010020F1000020924900009649000061
:10229000F8B51823451C5D434343141C134A0E1C18
:1022A000D018C76A5519012F0FD0002F07D0022F61
:1022B00017D1221C281CFFF78CFF041C14E0281CDB
:1022C000FFF760FFA0420ED305E0281CFFF75AFF7E
:1022D000844200D9041C281C311C221CFFF75DFF1E
:1022E00002E0002400E03C1C201CF8BD0402002099
:1022F000F8B50B4B071C1B780E1C151C002B01D1CD
:10230000FFF796FFEFF31084012181F31088381C4A
:10231000311C2A1CFFF7BCFF84F31088F8BDC046AF
:102320000402002038B5051C081C0C1C01F0D4FF69
:10233000211C021C281CFFF7DBFF38BDF7B5164C2B
:1023400001932378051C0F1C161C002B01D1FFF7ED
:102350006FFF23699D421CD2EFF31082012181F3AC
:102360001088002D0CD01823691C59436B4367500B
:1023700061184E600199E31819620021996259624F
:1023800018235D43089B6419E36282F310880020E0
:1023900001E001204042FEBD04020020826810B529
:1023A000041C4068531C834205D820688154A360F4
:1023B000E3680133E360A26863689A420CD1206944
:1023C0002168FFF795FFA368984203D001235B4281
:1023D000E36001E00023A36010BD0000F0B5051C20
:1023E0001F1C081C012685B00A9C00910192019BCC
:1023F000984204D30199FEF7BDF80136F7E702963B
:10240000BE4200D2029701230B9A1A40039218D1C0
:10241000002C01D1002414E00B9B20269B070DD536
:10242000002F0BD1103609E0281C311CFFF7B6FF36
:10243000EB68013C002B04DB002CEBD0029BA34299
:10244000F2D3EB68002B35DB0126012F01D9013FC8
:1024500006E00098311CFEF78DF8019B984208D3E6
:10246000019B5E43F1E7301C0199FEF783F8061EDD
:1024700010D00098311CFEF77DF8331C4343009ABE
:10248000D31A00930C4B195C281CFFF787FFEB68ED
:10249000002BE8DA039B002B0CD0002C0AD0029B07
:1024A000A34207D2281C2021FFF778FFEB68013CEC
:1024B000002BF2DA05B0F0BD9D490000F0B59FB0E9
:1024C0000EAB099340230A930023161C06900B932E
:1024D0000D900C930B784C1C002B04D10C9B039398
:1024E000002B22DC15E1252B16D1002502314F1ED1
:1024F0003B782B2B0CD003D8232B27D1082308E0C3
:102500002D2B03D0302B21D1022302E0012300E048
:1025100004231D430131EAE7191C09A8FFF73EFF18
:10252000211C0C9B002BD5DAD8E70B9A002A03D08C
:1025300006980EA9FFF7DCFE0C9B03930B9B0493FC
:10254000049A039B944663440C93E2E000243A7897
:10255000131C303B092B05D80A235C43303C013760
:10256000A418F4E7002303932E2A0DD101373A78FB
:10257000131C303B092B07D80A23039901374B431F
:10258000303B9B180393F2E7397804230A1C9A43E3
:10259000682A01D10137F7E7642926D008D85829DD
:1025A00000D195E063291AD0252900D0AFE0ABE037
:1025B000732900D195E00DD8702900D0A7E03268CA
:1025C0000021131D3360082301910093116809A8AD
:1025D000102296E0752971D0782979D097E0336878
:1025E00019681A1D3260C9B28EE033681A1D1B6863
:1025F0003260DA1798180493012350400593092894
:1026000005DD0A21FEF746F8059B0133F6E7059B39
:10261000039A934200D20592002C05D0049B002B14
:1026200001DB6B0700D5013CAB0702D5039B002BF8
:1026300010D0EB070ED4002C01D100240AE0059B3A
:10264000A34207D209A82021FFF7A8FE0C9B013C5A
:10265000002BF0DA0C9B0793002B58DB049B002B1C
:1026600004DA5B42049309A82D2103E06B0703D52C
:102670002B2109A8FFF792FE0C9B002B47DB0323BD
:102680002B40022B11D1039B002B0ED1002C01D12A
:1026900000240AE0059BA34207D209A83021FFF7D6
:1026A0007DFE0C9B013C002BF0DA0C9B0593002B6C
:1026B0002DDB0094019509A8049906E03368009485
:1026C00001951A1D1968326009A80A22039B18E0B7
:1026D000336800941A1D0195326009A81968102208
:1026E000F4E733681A1D32601C6821780134002930
:1026F0000DD009A8FFF752FE0C9B0393002BF4DAD0
:1027000005E0FFF76BFE02E009A8FFF747FE791C22
:1027100007E70C981FB0F0BD0EB403B503AB02CBB6
:1027200001AA0193FFF7CAFE02B008BC03B0184724
:1027300008B5002000F0C8FC08BD08B5002001F075
:102740006FF908BD082110B5164B9A780A4202D0DD
:102750009A780A439A70882200212220124B520153
:102760009950124A10708020114A400298501868FF
:10277000104A024010481A601C58104A2240C024D7
:10278000A40422431A5080220D4B19721A767F3A04
:1027900019705A700B4A11700C2299791142FBD1B1
:1027A00010BDC04600D007400070044000E0074064
:1027B00044100000FFFFF3FF04100000FFFFFFF0D4
:1027C0000040064000500640154B164810B5191E33
:1027D00081420CD00022144B9B089B009A4203D0EC
:1027E00084588C500432F9E7104B996001E00F4A8D
:1027F000936000230E4A0F49891A8B4204D0D45C9F
:102800000D48C4540133F8E700230C4A0C49891AD7
:102810008B4204D00024D01804700133F8E710BDB7
:1028200000000000000000000000000000ED00E0DB
:10283000D44A0000684C000000FEFF1F94FFFF1FF9
:102840009C03002000234170436003708360181CC8
:10285000704710B54378041C0120FF2B08D000F00E
:1028600013FA63780133DBB2637000F001FA0020E1
:1028700010BD38B5041C0D1C00F006FAE1682943B0
:10288000E16000F0F5F9002038BD000000220A4B9D
:102890009A641A1C40329A631A1C30329A621A1CCB
:1028A00020329A611A1C10329A60044A1360044B59
:1028B0009B60DB607047C046900200208C020020C5
:1028C0007C0200200022024B1A60186880B2704718
:1028D0000C007C5038B54378041C0D1C002B0BD029
:1028E000002500F0D1F96378013BDBB263702570FD
:1028F00000F0BEF9281C28E00220002925D023780A
:10290000002B15D0FFF7DEFF6368A268984201D361
:10291000C01A03E0C01A80235B02C018824213D29F
:1029200000F0B2F90023237000F0A2F902200CE0BD
:102930004B1C09D000F0A8F90123237000F098F98E
:10294000FFF7C0FFA5606060032038BD38B5051CE7
:10295000FFF7B8FF041CFFF7B5FFA04201D3001B2F
:1029600003E08023001B5B02C0188542F3D238BD10
:1029700008B5012801D100F087F908BD08B5012884
:1029800001D100F075F908BD10B5FFF77FFF0123F5
:102990000020084A08491360084A094C1060086082
:1029A00004212160074C216007490B60074908603A
:1029B000136010BD388004500000845000000450A3
:1029C000000004510400045104000C5000000453A2
:1029D00010B5044C206021710020A2602373637342
:1029E00010BDC046E0020020F0B587B06B460290F3
:1029F0001B7A05AC23706B4603911B7B3D4D6370C6
:102A00002B79029A0420934271D92B7B6B7301239B
:102A1000A37000230193374E0093337B009A371C39
:102A200093421AD9009BB2689B009B58002B10D090
:102A30001A79D2070DD51A68201C9968904700288A
:102A400007D06B461B787373039B002B3AD005238A
:102A50000193009B0133DBB2DDE7019E002E02D023
:102A6000039B012B2FD10120FFF782FF0C20029B3B
:102A700058432B68181800F0A3F86B461B7A012006
:102A80006B71FFF77BFF02230025A3703B7BAB42FA
:102A900016D9BA68AB009B58002B0ED01A79920752
:102AA0000BD51A68201C99689047002805D0039B15
:102AB0007D73002B1AD0062301930135EDB2E5E7B3
:102AC000019814E005260023009FA370013FFFB288
:102AD000FF2F09D0AA68BB009B58002BF6D01A68BC
:102AE000201C99689047F1E7301C00E0062007B0F1
:102AF000F0BDC046E002002013B500210378041C9D
:102B00000191022B07D0032B0BD0012B0ED10279A0
:102B1000191C134801E00279114801AB00F0ECFEEA
:102B200008E001A90E4800F029FF03E00C4801A9C4
:102B300000F0C6FE002812D1A3790A4ADB01DBB2FD
:102B400013706378084A5B00DBB21370A278074BFE
:102B50001A70E278064B1A706279064B1A7016BD2D
:102B60000040064018408653004086500040065002
:102B700001400650184016501F22802302405B057A
:102B8000D2051A43044943099B005B181A43106895
:102B9000431E9841C0B27047288004401F22802104
:102BA0000240D30549051943430904489B001B18FB
:102BB00019430123081C9340036070472880044098
:102BC0000022072373B5041C104D0093281C131C0E
:102BD000012100F017FF201CFFF78EFF0022637A0F
:102BE000217A0093281C131C00F00CFFE379084A9B
:102BF0009B041360074BA17A1D68281C00F0DAFEC5
:102C0000281CE17A00F0DDFE002076BD0070044053
:102C100000700C59C849000008B5054800F012FEC4
:102C2000044B1968C9B20131FDF7A4FC08BDC046C8
:102C3000004006404480145808B5024B185CFFF76A
:102C4000ADFF08BDAD49000008B5BB20FFF7A6FFEA
:102C500008BD08B5BB20FFF78FFF08BD08B576207B
:102C6000FFF79CFF08BD08B56620FFF797FF08BD7A
:102C7000044A1368002B04D0013B1360002B00D1E1
:102C800062B67047F002002072B6024A1368013340
:102C900013607047F0020020F8B5284B8200D4582A
:102CA0000123002948D00F1C051CFFF7D2FF002884
:102CB00002D1281CFFF7C8FF221C882304212432DC
:102CC0005B05134319601E4B0320191C1143086058
:102CD000211C1D1C002008310D432860194D29437B
:102CE00060250D60211C20310B43186098239C2522
:102CF0005B05194380236D05154308602B609C23F9
:102D00005B0523431B68012B07D098235B05134306
:102D10001B68012BF3D102230EE0231C0A4E28333B
:102D200033431B68201C10343B80344301F058F8B7
:102D30002368002378802B60181CF8BDB049000080
:102D40000000081000008812000078100E4B82006E
:102D500070B5061CD4580120002913D0301C0D1C5E
:102D6000FFF777FF002802D1301CFFF76DFF231C0F
:102D70000020064A29882833134319602C346B88B5
:102D80001443236070BDC046B049000000007810B5
:102D9000012300280CD0032200238270023A037022
:102DA0004370C270037143718371C37103724372C4
:102DB000181C7047F8B5324B8200D5580123002902
:102DC0005CD00C1C061CFFF73FFF281C00F0DEFF48
:102DD00062782B1C9C21501E82418C2008334905AF
:102DE0001943D2010A60A178264A49011A431160A9
:102DF000E178254A89001A431160244A40051343AB
:102E000094462279071C1A6063792A1C591E8B414B
:102E10000C321743DB003B6088235B051A43A37920
:102E20005F1EBB419B001360E3792A1C9827591E43
:102E30008B4120327F0517439B013B6063461A4359
:102E4000237A24351360637A05435A1E9341DB00CD
:102E50002B6023780E491F22002B08D08B5D1A406F
:102E6000012393401A1C0B4B1A60002306E0895D76
:102E70000A40012191400A1C0749CA67181CF8BD85
:102E8000B04900000000881200000811000008107E
:102E9000B449000000E100E004E100E038B50F4B68
:102EA0008000C4580120002916D0231C942220330E
:102EB0005205134320221A600D1C201C097900F0D2
:102EC0006DFF231C0020064A29881833134319601C
:102ED0001C346B881443236038BDC046B0490000E1
:102EE00000007810104B800030B5C4580120002A33
:102EF00019D0201C90250C306D05284305681378E7
:102F0000EDB2AB4203D05D1EAB411B010360107AF2
:102F10005368421E90411F2280011340034300204A
:102F2000890061180B6030BDB0490000054B80007E
:102F3000C35889001031C918034B1943086880B27F
:102F40007047C046B049000000007810084B800070
:102F5000C3580020032A09D1890059189C235B0516
:102F600019430868013843425841C0B27047C0460F
:102F7000B0490000F7B5FF2403681C4A1D0A25402C
:102F80001C40AB009F581A4A061C9B58281C0193F2
:102F9000FFF752FE211C0022381C00F053FF019B5A
:102FA000A4001C19842332795B05234352001A6064
:102FB000802372795B0523431A609023B2795B0505
:102FC000234312011A60F3790A4A14431A04226057
:102FD000002B0AD0084B5A5D002A06D01F2313404D
:102FE00001229A40131C054A1360F7BDD449000022
:102FF000CC49000000001818DC49000000E100E0A6
:10300000F8B5FF24051C0368114A180A20401C402B
:1030100083009F580F4A9E58FFF70EFE381C211C54
:10302000012200F00FFF6A68381C211C00F01AFF13
:1030300088232A7AA40034195B05234392001A607E
:1030400098235B051C436B7A9B012360F8BDC04647
:10305000D4490000CC49000038B50C1C002802D12E
:10306000002C09D112E003680133F9D0051C0835A2
:10307000FFF780FF281CF6E72368013306D0251CE4
:10308000201C0C35FFF7BCFF2C1CF5E738BD0000F9
:10309000FF22030A134002400120904002499B0096
:1030A0005B5858607047C046D4490000FF22030AAD
:1030B000134002400120904002499B005B589860F9
:1030C0007047C046D449000008B5084B8200D35869
:1030D00094220233520513431B78002B02D000F0D8
:1030E00019FA01E000F06EFA08BDC046B8490000C8
:1030F000031C80220C33520513431B78002BF7D09E
:103100000171704738B50D1C084B8000C458201C55
:10311000291C1830FFF7DEFB0328F8D0002801D067
:1031200004232374207CC0B238BDC046F4020020C2
:10313000F0B589B00290161C8200374805931058EC
:103140000EAB019035481B781458002007AA108058
:10315000A27C8F0A04920122E274A2745A42534163
:103160001E3FDBB203937B425F41FFB2CDB2874289
:1031700002D0CBB29C460D0A00216D00EDB28F4209
:1031800004D1391C002E01D16B46197B0D4307ABCE
:103190001D700122002F02D062465A700222A360E5
:1031A000E2600198291CFFF7A3FF02980F99FFF72F
:1031B000A9FF237C002B0CD1002E0AD0059BA66012
:1031C000E36031780198FFF793FF02980F99FFF7BA
:1031D00099FF237C002B16D1039B002B13D0002FCB
:1031E00001D1002E0FD000230127A3600198E760D2
:1031F00000F090FE391C01982943FFF779FF0298EF
:103200000F99FFF77FFF0023E3746B46207C1B7C44
:10321000C0B2A37409B0F0BDB8490000F4020020A8
:10322000104A830010B598580F4A9C58E37C002B35
:1032300005D0237C052B02D0237C042B09D19822B6
:10324000831C5205134300221A7000F075FE0123FF
:103250006374A37C002B03D0201C1830FFF7F9FA0D
:1032600010BDC046B8490000F4020020F7B5194B64
:103270008700FB5801250093174BFE58002E26D1DE
:103280000C1C24220190081C311C00F064FF201C3F
:10329000311C1830FFF7D6FA0198FFF7E4FC0098CC
:1032A00000F0E8FD0C4B019AFC500C4B9A5C1F237C
:1032B00013402A1C9A40131C094A13609C22009B4D
:1032C00052050233134380226574351C1A70281C82
:1032D000FEBDC046B8490000F4020020B549000018
:1032E00000E100E00A4B800070B5C558094BC65894
:1032F0004B68726993420AD00C1CFFF78DFC0023C7
:10330000011C6268281C00F0C3FD6368736170BD16
:10331000B8490000F4020020F0B587B00FAC334F7D
:10332000334D267884006559E459677C002F02D11B
:103330000320207458E0002E01D11E270E9705931C
:103340000023A674E360A360237423606374071CE6
:1033500004920391FFF7C6FF90231021AA1C5B057E
:10336000134319708421EB1C49050B43022119708A
:1033700098235B05134302934023029A281C137081
:1033800000F0C8FD039B381C1988012300930E9B95
:10339000049A0193059BFFF7CBFE0D9B002B15D0E4
:1033A000237C002B0FD10C9B281CA3600D9BE3609A
:1033B0000C9B1978FFF79CFE002E13D0381C0E9939
:1033C000FFF7A0FE0EE0237C042B0BD10023012687
:1033D000029A1370EB785B09334202D0281C00F08C
:1033E000ABFD6674207CC0B207B0F0BDF4020020D3
:1033F000B8490000F0B58BB013AC2478364E374D89
:10340000039484006559A459667C002E02D10320E0
:1034100020745FE0039E002E01D11E3612960993A0
:10342000109B00262360119BA66063606B461B7B8C
:10343000E660A37426746674079108920490FFF7FF
:1034400051FF9023AF1C5B053B4305931023059A66
:10345000281C13708422EB1C5205134302221A709D
:1034600098235B053B4306934023069A137000F0B4
:1034700051FD079B089A1988129B009601930498A6
:10348000099BFFF755FE227CD2B2B24212D1059BB6
:1034900011991A708C235B053B43012900D1082246
:1034A0001A702B79039B002B12D004981299FFF706
:1034B00029FE0DE0237C042B0AD1069B1E700126F9
:1034C000EB785B09334202D0281C00F035FD6674AE
:1034D000207CC0B20BB0F0BDF4020020B84900005F
:1034E0001FB5069C0094079C0194089C029401243B
:1034F0000394FFF711FF04B010BD1FB5069C0094A4
:10350000079C0194089C029401240394FFF772FF26
:1035100004B010BD842138B5244B8200D55849052C
:10352000EB1C0B4302211970214BD45890226B18CD
:1035300052051A431278E978D2B2890634D594211B
:1035400049051943097800292ED0012A15D1EB78B5
:10355000134202D0052323740CE0E368013BE360CF
:10356000002B07D0A368281C5A1CA2605978FFF7CB
:10357000BFFD19E0FFF754FE16E06268013A626091
:10358000002A06D08C214905012A05D10B430822C7
:1035900004E0FFF745FE02E000220B431A702368A7
:1035A0005A1C22602A791A7038BDC046B8490000FA
:1035B000F4020020842303305B05184302230370C8
:1035C00070470000902149050A1CF0B58F4B071C7D
:1035D0008000C55889B0EB1C0493EB78EE78DBB221
:1035E0000593F3B20693AB1D1A43944612789826BE
:1035F000D2B20792942252051A4314787605621EBD
:103600009441E2B2824C33430459A81C0090084311
:1036100001921A780178D2B2C9B20391019902904D
:1036200000292FD0079900290CD010236246281CAE
:103630001370FFF7BFFF236BF8B20121002B00D0FE
:10364000DCE0E0E0002A1DD04022281C1A70FFF7C1
:10365000B1FF231C2C331B78002B02D1009A164398
:103660003370236B002B03D0F8B28021626B984734
:10367000E37D002B04D0201C80211830FFF7F9F8DF
:103680000A23BFE0069B281C9E1101231E40FFF762
:1036900091FF0122059B1B11134219D09023049A1C
:1036A0005B05134310221A70002E04D0EB785B07E1
:1036B000DB0F10D11AE0082323702C342278002A63
:1036C00000D0A0E0982300995B050B431A709AE0A4
:1036D000002E16D0EAE71023029A1370236B002BFA
:1036E0006ED0F8B20221626B984769E0029A1370BB
:1036F000236B002B03D0F8B20421626B98472B791F
:1037000081E0039B012B29D1EB78039A134257D018
:10371000029B1E702B79231C2C331B78002B09D1A4
:10372000019B002B06D19823009A5B0513436A4640
:1037300012791A70236B002B03D0F8B20821626B48
:103740009847A37D002B04D0201C08211830FFF7D8
:1037500090F800236360E360237554E02B79A2683E
:10376000DBB2002A2AD02269137023690133236156
:10377000A368013BA360A368002B44D1019B002BED
:1037800013D1231C2C331B78002B06D19823009ACD
:103790005B0513436A4612791A70E37D002B04D04F
:1037A000201C20211830FFF764F800236375236183
:1037B000236BF8B22021002B20D124E0072321E045
:1037C0006368002B1DD0E3681A782B1C80210C3312
:1037D00049050B431B78002BF7D02A71E3680133AE
:1037E000E3606368013B63606368002B0BD1E360B7
:1037F0002375236B002B06D01021F8B2626B98471B
:1038000001E00623237009B0F0BDC046B8490000AE
:10381000F402002084235B0503431A7800239A42B4
:1038200009D0802301305B0518430378012B01D0B8
:10383000024B00E0024B181C7047C04680841E00FB
:1038400000127A0010B50D4A831D13431B78DBB2BA
:10385000002B10D0012B08D1041CFFF7DBFF084B15
:1038600008341C432378D84006E00020022B03D103
:10387000044B186800E0044810BDC0460000081161
:1038800000009010F8020020006CDC020B4A831D3F
:1038900013431B78DBB2012B06D0181E0CD003207B
:1038A000022B09D0052007E0802301305B05184377
:1038B00000784342584101307047C046000008116B
:1038C000021C031C9C201833400503438020187001
:1038D0000020064B134318700548931D03431B78C3
:1038E000D8B20028F8D1034B0B60704700000813D2
:1038F00000000811006CDC02F8B5041C0D1C171C3C
:103900001E1CFFF7C3FF012802D1002D04D007E0E1
:10391000022805D1012D03D1201C311CFFF7D0FF57
:103920008022631C520513431D70842302225B0511
:1039300023431A70231C0C4A083313437A00D2B273
:103940001A704022094B23431A70094AA31D1343DE
:103950001B78012BF9D1002D01D1064A00E0064A5F
:103960003A4100203260F8BD0000901000000813BA
:103970000000081180841E0000127A000A4B10B566
:103980001C681A1C0123002C0CD08024074B034315
:103990001C70074C831D23431B78022BF9D113683D
:1039A0000B600023181C10BDF80200200000081353
:1039B000000008119C23C9015B051843C9B20170BE
:1039C0007047942349015B051843C9B201707047E1
:1039D0008822044B8000C35852051C3313438900CE
:1039E00019607047BC4900008822054B8000C3580D
:1039F0005205143313431868431E9841C0B27047F0
:103A0000BC4900006B46E0221B78D2021B04134025
:103A100009071943014BC0180160704744100000AA
:103A200008B5084B8200D358902203335205134344
:103A30001B78002B02D000F0F1F801E000F056F9FD
:103A400008BDC046C449000008B50C4B8000C258F0
:103A50000B4B0021C3589C200333400518431171C0
:103A600001709420400503431970137F8B4203D0EB
:103A70002032101CFEF7EDFE08BDC046FC020020FF
:103A8000C4490000F7B5061C1C4B30220C1C8700F3
:103A9000081C0021FD5800F05EFB301CFFF7DEF82B
:103AA000FFF7BAF82060281C00F063FA201C002100
:103AB0002030FEF7C7FEEB1C01939023019A5B05B3
:103AC00013431022281C1A70032100F092FA281CBC
:103AD000002100F0B4FA0A4BFC500A4B9A5D1F23F8
:103AE000134001229A40131C074A13609823019A3D
:103AF0005B05134340221A70F7BDC046C44900005D
:103B0000FC020020C049000000E100E00A4B8000F8
:103B100070B5C658094B0C1CC358151C301C1A68CC
:103B2000096800F02DFA28602179301C6279A379A8
:103B300000F072FA70BDC046C4490000FC020020CB
:103B4000F7B51E4A83009C581D4A9E5822790423CB
:103B5000002A31D1071C002902D001AAFFF7D6FFA5
:103B6000982300214020F21C5B0513431970187044
:103B700025698D4203D1381CFFF766FF1BE0012346
:103B8000237194235B053343A1611978072300292E
:103B900012D0A368191E02D019780133A360B17145
:103BA0002369013B2361A3690133A3619C235B0566
:103BB0001A43802313700023181CFEBDFC02002052
:103BC000C4490000F8B5134F134C85002C59ED592A
:103BD0000127069E2777A2602661E3606661FFF7F2
:103BE000AFFF061E14D1201C07992030FEF772FE8D
:103BF0000328F8D000280BD09C210022EB1C49059B
:103C0000194322710A709421032649050B431A7047
:103C1000301CF8BDC4490000FC02002010B51E4B4A
:103C20008200D3581D4951581A79002A32D05A6956
:103C3000002A11D09C2252050A431278002A0BD088
:103C40008A79DC68D2B2002C03D02270DA680132A3
:103C5000DA605A69013A5A611A69002A12D094222C
:103C600052050A431278002A0CD09A68141E02D01A
:103C7000147801329A608C711A69013A1A619A6952
:103C800001329A611A69002A04D15B69002B01D1C3
:103C9000FFF7DAFE10BDC046FC020020C449000058
:103CA000104A80008158002208B50F4B0331C358D9
:103CB000581CC2779C2040050843DA621A701A83A8
:103CC0005A629A621A6302709420400501430A7096
:103CD0001A1C38321278002A03D0181D0121FEF771
:103CE000C8FD08BDC4490000FC02002038B5254BC2
:103CF0008200D35824495258591CC97F00293FD00B
:103D0000D96A002916DB9421490511430978002955
:103D100010D0596A1C7F002905D0DD6A002D02DD14
:103D20000C78013159629471D96A0139D962596BA1
:103D300001315963D96A002905DA9424D11C64053C
:103D4000214300240C70196B002911DD9C214905C9
:103D50001143097800290BD09279996AD2B20029CF
:103D600003D00A709A6A01329A621A6B013A1A6396
:103D7000DA6A002A04DC1B6B002B01DCFFF790FFE2
:103D800038BDC046FC020020C44900000023836007
:103D9000C3608361C36103624362704700B5031C63
:103DA00003291BD89022081C8C2120335205490579
:103DB0001A43FCF7D5FB02070C0E00200B431060E2
:103DC00018600BE010200B431060002205E000207B
:103DD00000E01020106008220B431A6000BD0000B4
:103DE000031C021C10B51349134C4C3348320B43CF
:103DF00022431B681268114CD218031C443323431E
:103E00001B688224D218031C6405403323431B68BB
:103E10000B4CD218031C3C3323431B683830084337
:103E2000D2180368D018802380B21B0240081843C0
:103E300010BDC046000028100000301000003810EF
:103E40000000481014308023012A04D18A401B0549
:103E50001843026005E0DB04184301238B40D9437B
:103E60000160704701238B40002A01D0436000E0CD
:103E7000836070470023C222037043708370C37055
:103E800043718371C371037242728372C37270474C
:103E9000F0B5002789B00393FA2301253C1C9B0051
:103EA00053430690079102936D4201970123A3406B
:103EB0000493174B9E1CCA330593049B31880798C3
:103EC0005943FCF757FB029B029AC31A824200D95E
:103ED000131AAB4204D2B21E177801941D1E03D0F0
:103EE000059B04369E42E8D10134032C01D0002DFD
:103EF000DCD1039B002B00D01D603F231F40019BA2
:103F00009B011F43069BFFB25F7009B0F0BDC04626
:103F1000DE490000942302305B0503431B78002B2D
:103F200004D088235B051843042303E080231B058A
:103F300018433023037070479422831C52051A43A0
:103F40001278011C0220012A12D18022D2041343CC
:103F5000CF221A708022D2002023C878034004D0D8
:103F6000013A002A03D0C046F6E7181C00E00920F9
:103F700070470423C370002383704370037170473C
:103F8000F0B5130B89B001250493082300266D4278
:103F900003935B1907900591069202930227002470
:103FA000731C191C069879430193FCF7E3FA059BEF
:103FB000834206D31B1A9D4203D91D1C049003940F
:103FC000029601347F00092C02D0002DE8D104E0D4
:103FD000072E02D0019E002DE0D17022029B049892
:103FE0001B011340039A1343079ADBB2537009B0C5
:103FF000F0BD8422C31C52051A4301230B405B0011
:10400000DBB2137090238907C90F5B0502300901E9
:104010001843C9B20170704710B58C240330640591
:10402000C9000443C9B221708821920049050143A7
:10403000D2B20A70802252051043037010BD802353
:10404000012202305B0503430A401A708C23890762
:10405000C90F5B05C9001843C9B201707047011C44
:10406000002008B5021C031C00F03EF908BD00004A
:10407000014B18687047C0468CFFFF1F084B10B5F6
:10408000041C002B02D0002100F08AF9054B1868AF
:10409000836A002B00D09847201C00F0F5F9C04639
:1040A000A1430000A84A000038B5074B074C1D1C6F
:1040B000E41AA410002C04D0013CA300EB5898474C
:1040C000F8E700F0F9FC38BDD04A0000D44A0000FF
:1040D0000E4B70B500251E1C0D4CE41AA410A54211
:1040E00004D0AB00F35898470135F8E700F0DEFC48
:1040F000084B00251E1C084CE41AA410A54204D04D
:10410000AB00F35898470135F8E770BDCC4A000082
:10411000CC4A0000CC4A0000D04A000008B5034B4E
:10412000011C186800F066F808BDC0468CFFFF1F30
:1041300008B5034B011C186800F016F808BDC0460E
:104140008CFFFF1F002310B5934203D0CC5CC454F6
:104150000133F9E710BD031C8218934202D0197095
:104160000133FAE77047000030B500293ED004392A
:104170000B68002B00DAC9181D4A1368141C002BA9
:1041800002D14B60116031E099420DD208680A18E3
:104190009A4203D11368C3180B6053684B602160C7
:1041A00024E08A4203D8131C5A68002AF9D11D68FA
:1041B0005C198C420BD10968691858181960904233
:1041C00014D110685268091819605A600EE08C42C8
:1041D00002D90C23036009E008680C18944203D14B
:1041E00014685268001908604A60596030BDC046C2
:1041F00004030020032370B5CC1C9C430834051C29
:104200000C2C01D20C2405E0002C03DA0C23002036
:104210002B6042E08C42F9D3204A1368101C191C11
:10422000002913D00A68121B0DD40B2A02D90A6088
:104230008B181FE08B4202D15A6802601BE04A686B
:104240005A600B1C17E00B1C4968E9E7144E3368F1
:10425000002B03D1281C00F025F83060281C211CFD
:1042600000F020F8031C421CD0D00322C61C964349
:1042700086420AD11C60181C07210B301A1D884386
:10428000821A0AD05142995007E0311A281C00F0D6
:1042900009F8431CBAD0331CECE770BD04030020BE
:1042A0000003002038B50023064C051C081C2360C1
:1042B000FDF7D8F9431C03D12368002B00D02B60F5
:1042C00038BDC04698030020031C0A7801311A70DB
:1042D0000133002AF9D170470023C25C0133002A60
:1042E000FBD1581E70470000F7B52A4D061C2C68FC
:1042F0000091171C0193002C01D1274C2C6063689E
:104300001F2B15DD254B002B02D10120404240E040
:104310008C20FFF703FF041EF7D02A6800230260F9
:10432000021C88324360286013609E420AD128E054
:10433000002E26D0231C88331868002810D1174B74
:10434000002BE2D084204000FFF7E8FE0028DCD0FC
:10435000031C0022FC335A609A60231C88331860C7
:10436000012261688A408B00C31880C3FC30416819
:10437000114341600199D967022E02D183681A4323
:104380008260002063685A1C62600233009A9B00BE
:104390001A51FEBD94030020080300201D410000B7
:1043A000F0B587B005900391344D2C68002C63D094
:1043B000231C88331E6863685A1E0192304A9B187A
:1043C0009B00F7180433E3180293019B002B3DDB9D
:1043D000039B002B07D0002E31D03B1C80331B6881
:1043E000039A93422BD16268029B0199013A5B6860
:1043F000914201D1616002E0002202994A60002BE3
:104400001DD062680492002E07D0012201998A40D3
:10441000311CFC314868104201D1984708E0896896
:10442000114203D105983968984701E038689847E8
:10443000049B62689342B7D12B68A342B4D1019B1D
:10444000043F013B0193029B043BBDE70D4B002B56
:1044500012D062682368002A0BD1002B09D02B6090
:10446000002E02D0301CFFF763FE201CFFF760FE19
:104470009BE7251C1C1C99E707B0F0BD94030020A6
:10448000FFFFFF3F31410000FEE7C046F4300CE67D
:1044900004211030A4E40C2BD8294CE8502B402EDA
:1044A0005CE17C28D02564D60C22BC5EC0CDD01D3A
:1044B000CC0518C258F7ACF610C158F938F5780198
:1044C0008C09CC1CD013045C4C29843370F2A429D1
:1044D000342F1CF1A82CD42CF0EE343364284CE398
:1044E0009C2A702BECD79C31802BE8EA54255CFB8E
:1044F000F4D8F4289CEF54D5C02EA0FB2CD9D43688
:10450000C809BCDA842B14304400642CFC2B1C0337
:10451000EC381428B4FE583DDC1C64F39C392C059F
:1045200008E3E43104FD60DA34436CEC00E0A02FD2
:10453000C8EA44FDC82A84EB4822C026A0F75425C7
:1045400000E780C608F8D0E694C584F734E644C690
:1045500034FACCE47CC5B4E9E8E30CC250030CF2B5
:1045600008CEC41460FDF4D55822481858045C30B5
:10457000AC2DB82690309037102F08226A0D00001D
:10458000320D00004E0D0000260D00004E0D000003
:10459000920C00004E0D0000260D0000320D0000B0
:1045A000320D0000920C0000260D0000D00D00001E
:1045B000D00D0000D00D0000540D0000320D0000A1
:1045C000320D00001A0E0000240D00001A0E00002B
:1045D000920C00001A0E0000240D0000320D0000A5
:1045E000320D0000920C0000240D0000D00D0000E0
:1045F000D00D0000D00D0000FE0D000032110000B3
:104600002A1100002A11000022110000741000007D
:104610007410000018110000221100007410000036
:104620001811000074100000221100007610000024
:104630007610000076100000BC1100001B5B306D8E
:104640001B5B343B34336D1B5B313B33376D0D5398
:10465000616E69747920436865636B204661696C9B
:104660006564211B5B306D0A001B5B306D1B5B3486
:104670003B34316D1B5B313B33376D0D496E7661D9
:104680006C696420737570706C7920766F6C7461DE
:104690006765205B25645D206D56211B5B306D0ACC
:1046A0000077617665666F726D5B25645D203D20E5
:1046B00025640A00736D6173680A0A000A0A0A0D0C
:1046C000426F6F74696E6720576172702C20696E3B
:1046D00020332E2E2E2000322E2E2E2000312E2E74
:1046E0002E0A0D0077686F5F616D5F49203D2025C0
:1046F000640A0074656D70203D2025640A00730A09
:104700000A00636861725F78203D2025642C206375
:104710006861725F79203D2025640A000000000076
:10472000000000005F000000040304030000287E76
:10473000143F0A00242A7F2A12002313086462000F
:10474000304E5926500000000201000000001C22DB
:10475000410041221C000000221408142200080815
:104760003E08080050300000000008080808080053
:104770006060000000002010080402003E5149451E
:104780003E0000427F4000006251494946002241FC
:10479000494936001814127F10002F45454539004D
:1047A0003E4949493200016119050300364949492A
:1047B0003600264949493E000036360000000056C2
:1047C00036000000000814224100141414141400D0
:1047D0004122140800000201590906003E415D55BE
:1047E0002E00601C131C60007F49494936003E4181
:1047F000414122007F4141221C007F49494941003B
:104800007F09090901001C2241493A007F08080874
:104810007F0000417F410000204040403F007F0872
:10482000142241007F40404000007F0418047F00B4
:104830007F0408107F003E4141413E007F09090985
:1048400006003E4151215E007F0919294600264994
:104850004949320001017F0101003F4040403F00D3
:10486000031C601C03000F700F700F0041360836E8
:1048700041000106780201006151494543000000F2
:104880007F41410015167C16110041417F00000058
:1048900000020102000040404040400000010200D0
:1048A0000000002054547800007F44443800003851
:1048B00044442800003844447F0000385454180011
:1048C00000043E050100000854543C00007F04042D
:1048D000780000007D0000000040403D0000007FA7
:1048E0001028440000017F0000007C047C04780054
:1048F000007C04047800003844443800007C141420
:104900000800000814147C00007C0804040000481F
:104910005454240000043E444000003C40407C00CD
:10492000007C20100C001C601C601C00006C10102F
:104930006C00004C50301C00004464544C000008D3
:104940003641410000007F00000041413608000070
:104950000804081008000000000000000D617574D4
:104960006F726573203D2025640A00696E697420AA
:104970006D696320726561636865640A000D666C29
:104980006167203D2025640A005465726D696E617F
:104990006C00525454005345474745520030313261
:1049A00033343536373839414243444546898A00E5
:1049B00000B003400F0800000060064000D0034034
:1049C0000A000000006007400050064000900440CC
:1049D00000A0044000F00F4040F00F401E1F0000F8
:1049E0001400010016000200180003001A00040061
:1049F0001C0005001E0009002000060022000A001D
:104A00002400070028000C002C00100030001100CA
:104A10003800120040000F0044001300480014004A
:104A200050001500580019006000160068001A00B8
:104A30007000170080001C0090001D00A0001E00E8
:104A4000C0002200E0001F00F0002300000124004D
:104A5000200125004001260080012A00C001270016
:104A6000E0012B0000022C0040022D0080022E00ED
:104A70000003320080032F00C00333000004340021
:104A8000800435000005360000063A0000073700B4
:104A900080073B0000083C0000093D00000A3E0082
:104AA000000C3F00000F43002CFFFF1FF8B5C0466D
:104AB000F8BC08BC9E467047F8B5C046F8BC08BCB8
:044AC0009E46704757
:084AC40000BAFF7F01000000B1
:044ACC008904000059
:044AD0005D04000081
:104AD400010000009D16000003000000000000001B
:104AE40004FEFF1F0101000001010000FFFFFFFFA2
:104AF40000000000000000000100000001000000B0
:104B0400010000000100000001000000020000009C
:104B14000100000001000000050000000100000089
:104B24000100000008000000010000000100000076
:104B34000C0000000100000001000000090000005A
:104B44000100000001000000050100000100000058
:104B54000100000006010000010000000100000047
:104B64000701000001000000010000000A0100002C
:104B740001000000010000000B0100000100000022
:104B8400010000000D010000010000000100000010
:104B94000201000001000000010000000301000008
:104BA40001000000010000000401000001000000F9
:104BB40001000000060000000100000001000000E8
:104BC40007000000010000000100000009000000CF
:104BD4000100000001000000FFFFFFFF00000000D3
:104BE40000000000010100000000000000010000BE
:104BF40000000000000001000001000000000000AF
:104C040000000000000000000000000000000000A0
:104C1400000000000000000000000000A64A0000A0
:104C24000000000000000000000000000000000080
:104C34000000000000000000000000000000000070
:104C44000000000000000000000000000000000060
:104C54000000000000000000000000002CFFFF1F07
:044C6400000000004C
:0400000300000531C3
:00000001FF
