S02B00002F686F6D652F646979612F4465736B746F702F6261646D696E746F6E5F73686F745F6465746563743D
S113000000060020310500005905000059050000D4
S113001000000000000000000000000000000000DC
S1130020000000000000000000000000590500006E
S11300300000000000000000590500005905000000
S11300405905000059050000590500005905000034
S11300505905000059050000590500005905000024
S1130060351A0000590500003F1A00005905000028
S11300705905000059050000590500005905000004
S113008059050000590500005905000059050000F4
S1130090E5080000FD0800005905000059050000AE
S11300A059050000590500005905000059050000D4
S11300B059050000590500005905000059050000C4
S1130400FFFFFFFFFFFFFFFFFFFFFFFFFE3DFFFFBB
S113041008B5054B054803331B1A062B03D9044BB7
S1130420002B00D0984708BD9CFFFF1F9CFFFF1FB7
S1130430000000000648074908B5091A8910CB0FC7
S11304405918491003D0044B002B00D0984708BD1D
S11304509CFFFF1F9CFFFF1F0000000010B5074C0E
S11304602378002B09D1FFF7D3FF054B002B02D0D3
S1130470044800E000BF0123237010BD9CFFFF1F50
S1130480000000009C44000008B5094B002B03D079
S11304900848094900E000BF08480368002B02D15E
S11304A0FFF7C8FF08BD064B002BF9D09847F7E7C4
S11304B0000000009C440000A0FFFF1F98FFFF1FE6
S11304C000000000144B002B00D1124B9D4640222B
S11304D092029A1A924600218B460F461148124AFC
S11304E0121A03F0F6FB0D4B002B00D098470C4B6F
S11304F0002B00D098470020002104000D000B4879
S113050003F06BFB03F0A2FB2000290000F0F0FADB
S113051003F072FB00000800000600200000000049
S1130520000000009CFFFF1F5C030020253C00002E
S113053072B606480649074A02600A6001F084FA66
S113054001F0C4FA62B6FFF7BDFF000080E100E0ED
S113055080E200E0FFFFFFFF00480047590500006C
S113056002B4714649084900095649008E4402BC48
S11305707047C04602B4714649084900095C490005
S11305808E4402BC7047C046002243088B4274D399
S113059003098B425FD3030A8B4244D3030B8B4280
S11305A028D3030C8B420DD3FF22090212BA030C89
S11305B08B4202D31212090265D0030B8B4219D36A
S11305C000E0090AC30B8B4201D3CB03C01A52418A
S11305D0830B8B4201D38B03C01A5241430B8B42D2
S11305E001D34B03C01A5241030B8B4201D30B03BB
S11305F0C01A5241C30A8B4201D3CB02C01A5241E2
S1130600830A8B4201D38B02C01A5241430A8B42A4
S113061001D34B02C01A5241030A8B4201D30B028D
S1130620C01A5241CDD2C3098B4201D3CB01C01AA7
S1130630524183098B4201D38B01C01A52414309B1
S11306408B4201D34B01C01A524103098B4201D39F
S11306500B01C01A5241C3088B4201D3CB00C01A0C
S1130660524183088B4201D38B00C01A5241430884
S11306708B4201D34B00C01A5241411A00D20146A9
S1130680524110467047FFE701B5002000F0FCF826
S113069002BDC0460029F7D003B5FFF775FF0EBCB5
S11306A04243891A1847C04603460B437FD40022AD
S11306B043088B4274D303098B425FD3030A8B42F2
S11306C044D3030B8B4228D3030C8B420DD3FF225C
S11306D0090212BA030C8B4202D31212090265D02A
S11306E0030B8B4219D300E0090AC30B8B4201D3DD
S11306F0CB03C01A5241830B8B4201D38B03C01A24
S11307005241430B8B4201D34B03C01A5241030B9A
S11307108B4201D30B03C01A5241C30A8B4201D34B
S1130720CB02C01A5241830A8B4201D38B02C01AF6
S11307305241430A8B4201D34B02C01A5241030A6D
S11307408B4201D30B02C01A5241CDD2C3098B4252
S113075001D3CB01C01A524183098B4201D38B01CF
S1130760C01A524143098B4201D34B01C01A524172
S113077003098B4201D30B01C01A5241C3088B42B7
S113078001D3CB00C01A524183088B4201D38B00A2
S1130790C01A524143088B4201D34B00C01A524144
S11307A0411A00D201465241104670475DE0CA0F1B
S11307B000D04942031000D34042534000229C46DB
S11307C003098B422DD3030A8B4212D3FC228901E5
S11307D012BA030A8B420CD3890192118B4208D3BB
S11307E0890192118B4204D389013AD0921100E01D
S11307F08909C3098B4201D3CB01C01A5241830931
S11308008B4201D38B01C01A524143098B4201D35D
S11308104B01C01A524103098B4201D30B01C01A88
S11308205241C3088B4201D3CB00C01A5241830802
S11308308B4201D38B00C01A5241D9D243088B4258
S113084001D34B00C01A5241411A00D201466346FB
S113085052415B10104601D34042002B00D549425F
S1130860704763465B1000D3404201B5002000F09E
S11308700BF802BD0029F8D003B5FFF715FF0EBC35
S11308804243891A1847C0467047C04608B50A4B08
S11308901A68002A01D1094A1A601A68084910180E
S11308A0884206D903F0A2F90C23036001204042D8
S11308B001E01860101C08BDB8FFFF1F6003002092
S11308C065030020022380788342804140427047C0
S11308D0437A0020013B012B03D901200B7801331B
S11308E00B70704708B5002002F0A8FD002803D063
S11308F00020011C02F096FD08BD0000024A1368A6
S1130900013313607047C0462400002037B500202F
S113091001F080FBC02300250D4A9B0013600D4AA3
S11309200D4C13600D4A281C13600D4B2571657125
S1130930A5711A68FA239B0053430A49236002F005
S1130940CBFD281C211C01AA02F00AFE37BDC046BB
S1130950189014542090145404000020249014542B
S113096008FEFF1F2800002008B5002001F057FBF7
S11309708023054A9B001360044A00201360044945
S113098002F002F808BDC0460CA0145410A0145480
S1130990C8FFFF1F08B50023384A39491360394A94
S11309A01360394A0133FF331360384A1360384AFD
S11309B01360384A1360384A1360384A13600122BE
S11309C008780240081C3649002A01D00B6000E078
S11309D00A60344A3449136000220A6033490A60C9
S11309E0334A1360334A1360334A1360334A136043
S11309F0334A1360334A13600378DB0703D50220BC
S1130A00FF3001F0D3FE8520400001F0DDFE092017
S1130A1001F0DAFE0C2001F0D7FE052001F0D4FE2F
S1130A20082001F0D1FE0620FF3001F0CDFE0E209B
S1130A30FF3001F0C9FE8320400001F0C5FE08200C
S1130A40FF3001F0C1FE0C20FF3001F0AFFE812029
S1130A50400001F0ABFE8220400001F0B5FE04200E
S1130A60FF3001F0B1FE072001F0AEFE062001F0D8
S1130A70ABFE092001F0A8FE08BDC0460C9014543A
S1130A8000FEFF1F10901454149014541890145422
S1130A901C901454209014542490145430901454E2
S1130AA004A0145408A014540CA0145410A01454FA
S1130AB014A0145418A014541CA0145428A01454A2
S1130AC02CA0145434A0145408B5092001F07CFE61
S1130AD008BD08B50C2001F077FE08BD08B5FFF786
S1130AE0F3FFFFF7F6FF8320400001F05FFE08BD2F
S1130AF0F0B5A7B015AC0021201C072203F0E9F8DB
S1130B00804A01261A92032205AB1D9307AB1E935C
S1130B100BAB21930DAB22930FAB239311AB249317
S1130B2013AB25931AAB09AF1A71002003AA1C92C8
S1130B30049326701F94209701F05AFA301C01F098
S1130B4057FA8022704B12021A6001F09FF80020BD
S1130B50FA25021C031C0096011C00F071FD6D00B7
S1130B606A49002000F060FD281C01F071F8684912
S1130B70002000F059FD281C01F06AF865490020A6
S1130B8000F052FD281C01F063F8634A331C022173
S1130B90624801F09FF8311C301C01F0A7F80020D6
S1130BA002F088FB0025FC2317A9DB00281C0B801E
S1130BB04E808E80CD800D818D7202F0A9FB291CA0
S1130BC0321C03A803F085F8159B69460993A28893
S1130BD03220BA80A279BA7103223A700B93A288A8
S1130BE002270A86A27909180A706A462C2152182B
S1130BF02739117069460593A28810380A83A279AF
S1130C000F758A760793A2880A84A27909180A7054
S1130C10694604220A770D93A28818300A87A279BC
S1130C2009180A7069460822063809180A706946C4
S1130C300F93A2880C3009180A806946A279C0195A
S1130C4009180A706A4609210638121811706A4692
S1130C501193A3880C30121813806A46A379C01923
S1130C60121813706A460A230638121813706B465A
S1130C704C2208249B181D7004AA331C1DA801F0E3
S1130C8017FA291C381CFF3400F07CF82449254845
S1130C9001F070FDFFF77EFE201C01F087FD201C93
S1130CA001F092FD201C01F081FD201C01F08CFD5F
S1130CB0201C01F07BFD201C01F086FD1D201A493B
S1130CC000F0D6F84920194900F0D8F8492018490D
S1130CD000F0DAF84020174900F006FB16496820B6
S1130CE000F004FBFFF7FAFE0520FFF73DFE00F0DD
S1130CF045F900F03BFB00F039FB00F09DFB281C9C
S1130D0027B0F0BDD1080000B40200206D400000FF
S1130D10884000008E40000018FEFF1F1CFFFF1FCC
S1130D202CFEFF1F1CFEFF1FF8FFFF1FBCFFFF1F51
S1130D3018000020ECFFFF1F0C0000201FB5041C4E
S1130D4001A9002002F00CFB01A8694602F046FA52
S1130D50009B68461C1901A9009402F0C7F901A977
S1130D600122002002F028FB1FBD00000022034BDB
S1130D701A608022024B1206DA67704700A01C58E2
S1130D8004E100E010B50A2308286FD80C1CFFF713
S1130D90F1FB051B283C48626466570001F01EFB0A
S1130DA00523012862D0FFF7E1FF201CFFF7C6FFEF
S1130DB00020011C01F0A0F9041C0020012100F016
S1130DC095FF002C4FD150E001F008FB06230128C9
S1130DD04CD0FFF7CBFF201CFFF7B0FF0120002110
S1130DE0E8E701F0FBFA082301283FD001F006F8F8
S1130DF0002803D00020012100F078FF0220002108
S1130E0001F07AF900282ED12FE001F0E7FA072348
S1130E1000282BD0FFF7AAFF201CFFF78FFF032029
S1130E2005E0FFF7A3FF201CFFF788FF0420002143
S1130E3001F062F9041C01F0D1FA0028C1D1BDE728
S1130E400820002101F058F900280CD10120011CD0
S1130E5000F04CFF09E0052002E0062000E0072036
S1130E60002101F049F9092300E00023181C10BDFA
S1130E70C223FF3308704B6070470000014B0870B9
S1130E804B60704701003F00014B08704B60704796
S1130E900100C00F37B50E24FF34051C201C01F0DF
S1130EA085FC201C01F090FC0C2001F08DFC01233A
S1130EB0084A002015700093FA239B000193011C3B
S1130EC0054B02F0A9FB051C201C01F06FFC281C3B
S1130ED03EBDC046780000205800002073B50E24A3
S1130EE0FF34051C201C0E1C01F060FC201C01F0CA
S1130EF06BFC0C2001F068FCFA2300209B002A1CE8
S1130F0000960193011C044B02F086FB051C201C77
S1130F1001F04CFC281C76BD58000020F0B5071CDD
S1130F2085B0101C0E1C0A21141CFFF72DFBC0B247
S1130F30303001900A21201CFFF7ACFB252300244C
S1130F40C9B201AD30316960AB6006206043C0B204
S1130F50B44205D03A5D0A2100F050F90134F4E7B7
S1130F60002406206043A300C0B22D21EA580134B6
S1130F7000F044F9032CF4D105B0F0BDC0235F4A5E
S1130F809B0010B513605E4A85241360FFF7BEFC16
S1130F9080235C4A5B0013605B4A640013605B4A15
S1130FA0201C136001F002FC642000F051FE201CA0
S1130FB001F00AFC642000F04BFE201C01F0F6FB5B
S1130FC0642000F045FEAE20FFF764FFA020FFF789
S1130FD061FF7220FFF75EFFA120FFF75BFF002097
S1130FE0FFF758FFA220FFF755FF0020FFF752FF3D
S1130FF0A420FFF74FFFA820FFF74CFF3F20FFF787
S113100049FFAD20FFF746FF8E20FFF743FFB020D6
S1131010FFF740FF0B20FFF73DFFB120FFF73AFF3A
S11310203120FFF737FFB320FFF734FFF020FFF73D
S113103031FF8A20FFF72EFF6420FFF72BFF8B2060
S1131040FFF728FF7820FFF725FF8A20FFF722FF0C
S11310506420FFF71FFFBB20FFF71CFF3A20FFF7B8
S113106019FFBE20FFF716FF3E20FFF713FF87206E
S1131070FFF710FF0620FFF70DFF8120FFF70AFF9F
S11310809120FFF707FF8220FFF704FF5020FFF7AE
S113109001FF8320FFF7FEFE7D20FFF7FBFEAF205C
S11310A0FFF7F8FE2620FFF7F5FE0120FFF7F2FE1A
S11310B02520FFF7EFFE0020FFF7ECFE0020FFF7EE
S11310C0E9FE5F20FFF7E6FE3F20FFF7E3FE8720FF
S11310D0FFF7E0FE0E20FFF7DDFE022000F06AF8C5
S11310E00020FF21021C00F015F800F05DF808480C
S11310F007213222FFF712FF002010BD2090145464
S11311002490145434A014543090145400A0145453
S113111095400000C008800183B289081943490141
S1131120D20889B21143081C7047F0B587B003ACEC
S1131130071C009201930B220CAB0E1C201C0021F7
S11311401D8802F0C6FD2623201C02212370FFF710
S1131150C5FE212323703B1C5F2F00D95F236370DE
S1131160331C3F2E00D93F23A3706B46009A1B7893
S11311705F2A00D95F23E3706B46019A1B793F2AEB
S113118000D93F232371EB0A5B0063716B059B0E4F
S1131190A3711F232B405B00201C0821E371FFF780
S11311A09DFE07B0F0BD0000014B18807047C0469B
S11311B098000020014B18707047C0469A00002028
S11311C000B50D4A031C10780138032810D8FFF726
S11311D0D1F902060B0D02221A60012302E001225A
S11311E01A6002230B6006E0022202E0062200E0FD
S11311F001221A600A6000BD9A000020131CF0B599
S11312001F3B89B00A2A07D10022334B1A70334A94
S11312101378103313705CE0602B5AD82E4B197876
S1131220592909DD00202D4918700B781033DBB2E1
S11312300B702E2B00D9087006A807A9141CFFF701
S1131240BFFF06226243002404920025049B244A23
S1131250E318C03BD3180593069B9D422CDA102754
S1131260059B1B7803930026079B9E421BDA6A4664
S1131270127B52B2002A14DA0699174A6143127893
S11312807B438A18154952190978D2B20139CB180F
S113129014499B1B0988DBB20091101C191CFFF731
S11312A044FF0136E0E7039B013F5B00DBB203939D
S11312B0002FD8D10135CFE70134062CC5D106A8BB
S11312C007A9FFF77DFF069B034A5C431378E418E4
S11312D0147009B0F0BDC0469B0000209C000020A3
S11312E09D4000009800002008707047E0235B00D8
S11312F008704B60704700006B22F0B500248BB07F
S113130006AB1A70174A08AD127805AF2A80164A40
S11313105C7012683870009302230193F333FF3337
S113132009920293291C221C231C201C01F066FC38
S113133007AB0093FA2301265B0002930196331C4A
S1131340201C291C3A1C01F066FC031EA34204D095
S1131350201C211C321C00F061FB079BD8B20BB08F
S1131360F0BDC0460C00002004FEFF1FF0B53B207A
S113137085B0FFF7C1FF071C3C20FFF7BDFF051C2C
S11313803D20FFF7B9FF061C3E20FFF7B5FF041C04
S11313903F20FFF7B1FF02904020FFF7ADFF03901D
S11313A06B20FFF7A9FF0299039809023A0233025E
S11313B0014315431C4389B20091AAB2A3B2034965
S11313C0002000F02BFB05B0F0BDC046DD4200005C
S11313D0F0B589B06946061C01F010F86B46154952
S11313E05A88002000F01AFB01A9301C02AC01F05D
S11313F005F801A9301C01F05BF8201C01F07AF813
S1131400002501270323211C301C23712570E7705C
S1131410E571677201F080F8092305AA301C291CC4
S1131420536057721572177001F0EAF8281C09B05E
S1131430F0BDC046FD42000010B51049002000F088
S1131440EDFA0020FFF7C4FF041C00200921021C50
S113145001F00AF90A49021C002000F0DFFA00201A
S1131460011C01F0F1F80749021C231C002000F0C4
S1131470D5FA322000F0ECFBF1E7C0460C43000043
S11314801E4300002A4300000269C3689A4203D83D
S113149080681018013800E0501EC01A7047F7B574
S11314A08368C668051C40680191141C9F1B801941
S11314B0974203D902F004FCA4190AE001993A1CEA
S11314C002F0FEFB019BE41BD9196868221C02F0A0
S11314D0F7FBEC60F7BD0023F7B5061C171CC568C5
S11314E0019100933369B468AB4200D81B19013BE6
S11314F05B1B641BBC4200D93C1C9C4200D91C1CD5
S11315007368221C5819019902F0DAFB009B2D190B
S11315101B190093019B3F1B1B190193B368EB1A22
S11315205A1E93415B421D40F560002FDAD10098AA
S1131530FEBD0000022310B5104C114A2361636103
S1131540104BA261E3618023A2640F4A5B00236213
S1131550E26400231022A3626362E362A36563650D
S1131560E3652265E01D094902F06CFC201C084972
S113157002F068FC2023A37110BDC046B001002016
S113158040430000AD0000209D00002049430000BE
S11315904D430000F8B51823451C5D434343141C18
S11315A0134A0E1CD018C76A5519012F0FD0002FEB
S11315B007D0022F17D1221C281CFFF78CFF041C14
S11315C014E0281CFFF760FFA0420ED305E0281C9E
S11315D0FFF75AFF844200D9041C281C311C221C2A
S11315E0FFF75DFF02E0002400E03C1C201CF8BD76
S11315F0B0010020F8B50B4B071C1B780E1C151C02
S1131600002B01D1FFF796FFEFF31084012181F342
S11316101088381C311C2A1CFFF7BCFF84F3108887
S1131620F8BDC046B001002038B5051C081C0C1CD0
S113163002F010FC211C021C281CFFF7DBFF38BD44
S1131640F7B5164C01932378051C0F1C161C002BB0
S113165001D1FFF76FFF23699D421CD2EFF3108283
S1131660012181F31088002D0CD01823691C5943E3
S11316706B43675061184E600199E31819620021A9
S11316809962596218235D43089B6419E36282F3EB
S11316901088002001E001204042FEBDB00100207E
S11316A0826810B5041C4068531C834205D8206826
S11316B08154A360E3680133E360A26863689A42DB
S11316C00CD120692168FFF795FFA368984203D0E5
S11316D001235B42E36001E00023A36010BD00002E
S11316E0F0B5051C1F1C081C012685B00A9C00913E
S11316F00192019B984204D30199FEF745FF0136FC
S1131700F7E70296BE4200D2029701230B9A1A40D1
S1131710039218D1002C01D1002414E00B9B202645
S11317209B070DD5002F0BD1103609E0281C311C66
S1131730FFF7B6FFEB68013C002B04DB002CEBD079
S1131740029BA342F2D3EB68002B35DB0126012F69
S113175001D9013F06E00098311CFEF715FF019BFB
S1131760984208D3019B5E43F1E7301C0199FEF7D0
S11317700BFF061E10D00098311CFEF705FF331C2A
S11317804343009AD31A00930C4B195C281CFFF7AF
S113179087FFEB68002BE8DA039B002B0CD0002CAE
S11317A00AD0029BA34207D2281C2021FFF778FF0E
S11317B0EB68013C002BF2DA05B0F0BD54430000A5
S11317C0F0B59FB00EAB099340230A930023161C77
S11317D006900B930D900C930B784C1C002B04D1AA
S11317E00C9B0393002B22DC15E1252B16D100253D
S11317F002314F1E3B782B2B0CD003D8232B27D13F
S1131800082308E02D2B03D0302B21D1022302E042
S1131810012300E004231D430131EAE7191C09A850
S1131820FFF73EFF211C0C9B002BD5DAD8E70B9A5F
S1131830002A03D006980EA9FFF7DCFE0C9B039345
S11318400B9B0493049A039B944663440C93E2E039
S113185000243A78131C303B092B05D80A235C4337
S1131860303C0137A418F4E7002303932E2A0DD14A
S113187001373A78131C303B092B07D80A23039904
S113188001374B43303B9B180393F2E73978042329
S11318900A1C9A43682A01D10137F7E7642926D044
S11318A008D8582900D195E063291AD0252900D0F9
S11318B0AFE0ABE0732900D195E00DD8702900D0DA
S11318C0A7E032680021131D3360082301910093BF
S11318D0116809A8102296E0752971D0782979D069
S11318E097E0336819681A1D3260C9B28EE0336814
S11318F01A1D1B683260DA179818049301235040AC
S11319000593092805DD0A21FEF7CEFE059B013368
S1131910F6E7059B039A934200D20592002C05D06A
S1131920049B002B01DB6B0700D5013CAB0702D500
S1131930039B002B10D0EB070ED4002C01D1002404
S11319400AE0059BA34207D209A82021FFF7A8FEBD
S11319500C9B013C002BF0DA0C9B0793002B58DB0B
S1131960049B002B04DA5B42049309A82D2103E0B5
S11319706B0703D52B2109A8FFF792FE0C9B002BC4
S113198047DB03232B40022B11D1039B002B0ED1E9
S1131990002C01D100240AE0059BA34207D209A828
S11319A03021FFF77DFE0C9B013C002BF0DA0C9BF1
S11319B00593002B2DDB0094019509A8049906E0FA
S11319C03368009401951A1D1968326009A80A2227
S11319D0039B18E0336800941A1D0195326009A82E
S11319E019681022F4E733681A1D32601C682178E4
S11319F0013400290DD009A8FFF752FE0C9B039374
S1131A00002BF4DA05E0FFF76BFE02E009A8FFF70C
S1131A1047FE791C07E70C981FB0F0BD0EB403B560
S1131A2003AB02CB01AA0193FFF7CAFE02B008BCC4
S1131A3003B0184708B5002000F0D4FE08BD08B56F
S1131A40002001F017FD08BD082110B5164B9A7847
S1131A500A4202D09A780A439A70882200212220EE
S1131A60124B52019950124A10708020114A4002C0
S1131A7098501868104A024010481A601C58104ABE
S1131A802240C024A40422431A5080220D4B197210
S1131A901A767F3A19705A700B4A11700C22997990
S1131AA01142FBD110BDC04600D007400070044075
S1131AB000E0074044100000FFFFF3FF04100000A3
S1131AC0FFFFFFF00040064000500640154B16484B
S1131AD010B5191E81420CD00022144B9B089B00A8
S1131AE09A4203D084588C500432F9E7104B996021
S1131AF001E00F4A936000230E4A0F49891A8B4272
S1131B0004D0D45C0D48C4540133F8E700230C4AD4
S1131B100C49891A8B4204D00024D0180470013374
S1131B20F8E710BD00000000000000000000000005
S1131B3000ED00E0C44400006046000000FEFF1F0A
S1131B409CFFFF1F5C03002000234170436003706F
S1131B508360181C704710B54378041C0120FF2BC8
S1131B6008D000F06DFA63780133DBB2637000F0E3
S1131B705BFA002010BD38B5041C0D1C00F060FA9F
S1131B80E1682943E16000F04FFA002038BD00000D
S1131B9000220A4B9A641A1C40329A631A1C30328F
S1131BA09A621A1C20329A611A1C10329A60044AF2
S1131BB01360044B9B60DB607047C0463C0200200E
S1131BC038020020280200200022024B1A60186804
S1131BD080B270470C007C5038B54378041C0D1C4F
S1131BE0002B0BD0002500F02BFA6378013BDBB20D
S1131BF06370257000F018FA281C28E002200029E0
S1131C0025D02378002B15D0FFF7DEFF6368A26888
S1131C10984201D3C01A03E0C01A80235B02C018A3
S1131C20824213D200F00CFA0023237000F0FCF976
S1131C3002200CE04B1C09D000F002FA01232370AF
S1131C4000F0F2F9FFF7C0FFA5606060032038BD23
S1131C5038B5051CFFF7B8FF041CFFF7B5FFA04219
S1131C6001D3001B03E08023001B5B02C0188542E4
S1131C70F3D238BD08B5012801D100F0E1F908BD5F
S1131C8008B5012801D100F0CFF908BD10B5FFF760
S1131C907FFF01230020084A08491360084A094CC1
S1131CA01060086004212160074C216007490B6023
S1131CB007490860136010BD388004500000845048
S1131CC000000450000004510400045104000C50AE
S1131CD00000045310B5044C206021710020A26060
S1131CE02373637310BDC0468C020020F0B587B027
S1131CF06B4602901B7A05AC23706B4603911B7BE9
S1131D003D4D63702B79029A0420934271D92B7B49
S1131D106B730123A37000230193374E0093337B2D
S1131D20009A371C93421AD9009BB2689B009B58B7
S1131D30002B10D01A79D2070DD51A68201C996887
S1131D409047002807D06B461B787373039B002BC6
S1131D503AD005230193009B0133DBB2DDE7019EFA
S1131D60002E02D0039B012B2FD10120FFF782FF0D
S1131D700C20029B58432B68181800F0A9F86B46F6
S1131D801B7A01206B71FFF77BFF02230025A370F0
S1131D903B7BAB4216D9BA68AB009B58002B0ED0E4
S1131DA01A7992070BD51A68201C99689047002865
S1131DB005D0039B7D73002B1AD0062301930135B4
S1131DC0EDB2E5E7019814E005260023009FA37017
S1131DD0013FFFB2FF2F09D0AA68BB009B58002B1C
S1131DE0F6D01A68201C99689047F1E7301C00E08F
S1131DF0062007B0F0BDC0468C020020014B587984
S1131E007047C0468C02002013B500210378041CDF
S1131E100191022B07D0032B0BD0012B0ED1027999
S1131E20191C134801E00279114801AB01F0F2F8E2
S1131E3008E001A90E4801F02FF903E00C4801A9BC
S1131E4001F0CCF8002812D1A3790A4ADB01DBB2F5
S1131E5013706378084A5B00DBB21370A278074BF7
S1131E601A70E278064B1A706279064B1A7016BD26
S1131E7000400640184086530040865000400650FB
S1131E8001400650184016501F22802302405B0573
S1131E90D2051A43044943099B005B181A4310688E
S1131EA0431E9841C0B27047288004401F228021FD
S1131EB00240D30549051943430904489B001B18F4
S1131EC019430123081C9340036070472880044091
S1131ED00022072373B5041C104D0093281C131C07
S1131EE0012101F0B9FA201CFFF78EFF0022637A6A
S1131EF0217A0093281C131C01F0AEFAE379084AF6
S1131F009B041360074BA17A1D68281C01F0E0F8BC
S1131F10281CE17A01F0E3F8002076BD007004404B
S1131F2000700C59B843000008B5054801F018F8D2
S1131F30044B1968C9B20131FEF726FB08BDC0463F
S1131F400040064044801C5E08B5054801F008F8CE
S1131F50044B1968C9B20131FEF716FB08BDC0462F
S1131F600040064044801C5E08B5054800F0F8FFB8
S1131F70044B1968C9B20131FEF706FB08BDC0461F
S1131F80004006404480145808B5054800F0E8FFB6
S1131F90044B1968C9B20131FEF7F6FA08BDC04610
S1131FA000400640448014580C4B1B68DBB2022BE3
S1131FB00DD0032B0ED0002B01D000200CE080218B
S1131FC0074A09021268101E8842F6D104E0054B44
S1131FD0186801E0FA2080007047C04600700C5970
S1131FE0B4020020B802002008B5FFF7DDFF08BDE9
S1131FF008B5024B185CFFF759FF08BD64430000A5
S113200008B5BB20FFF752FF08BD08B5BB20FFF79A
S11320103BFF08BD08B57620FFF748FF08BD08B5AB
S11320206620FFF743FF08BD044A1368002B04D061
S1132030013B1360002B00D162B670479C02002064
S113204072B6024A13680133136070479C02002081
S113205010B50B4B0B4A1278002A04D1013B002B1C
S1132060F8D103200AE0064C074801F067FC012878
S113207003D0013C002CF7D1F3E7002010BDC0468B
S1132080EA03000002D0075100E0074010B5064CF7
S1132090064801F053FC042804D0013C002CF7D17D
S11320A0032000E0002010BDEA03000000E0074028
S11320B0F7B5071C0E1C151C01930120002F18D026
S11320C0002916D0FFF7D6FD0A4C0021201C10224F
S11320D001F0FFFD27602671002D06D06B461B79A9
S11320E0A56023736B461B7963730120FFF7C8FD5A
S11320F00020FEBDA0020020F0B5B24C8BB00290CF
S11321000191237B01206373FFF7B4FD2379029AC5
S1132110934204D80120FFF7B3FD022050E1029A54
S113212023689200D6586B461B7907AC3578237226
S11321306B461B7A2A1C237002239A43666003921F
S1132140012A01D0052D0AD101219F4801F048FB45
S1132150002809D10120FFF793FD012030E1072D6C
S113216002D999480321F1E7012363720024009402
S1132170944F009A3B7B93421AD9009BBA689B0008
S11321809B58002B0FD01A79D2070CD51A6807A8D0
S113219099689047002806D06B461B7804247B730B
S11321A0019B012B04D1009B0133DBB20093DFE7D9
S11321B00120FFF765FD854800F0F6FE039B012B27
S11321C01DD10138C0B2022811D8FFF7DDFE804BC3
S11321D098420CD8FFF7A8FE7E4FB84207D8FFF705
S11321E0C3FEB84203D8FFF7AFFEB84207D9019B3C
S11321F0012B01D1062407E0002C05D1FAE7019B4D
S1132200012B52D0002C50D00120FFF733FD0023C6
S113221007AE009D7372013DEDB2FF2D40D0694BB6
S1132220AA009B68D358002BF5D01A79D207F2D5AF
S11322301A68301C99689047EDE7072205AB1A70BD
S113224000225A70F2789A703279DA702B1C083BAB
S113225005A9022B03D873798B71B379CB71737889
S1132260002B00D084E0584801F0EEFA002800D09A
S11322700324002D00D08AE0FFF7EAFE00240028A2
S113228000D09DE00120FFF7F5FC6B464D4E1B7A14
S11322900025B373022307AF7B72337BAB427CD838
S11322A00120FFF7EDFC201C8AE003200A2D00D951
S11322B086E0281CFEF754F906080A1940583339F9
S11322C0C1282D00002250E003224EE03E4801F0D8
S11322D035FB012807D03C48002101F091FAFFF7B3
S11322E0B7FE041E6CD101223FE0374801F026FB03
S11322F0042807D03448022101F082FAFFF7C6FE11
S1132300041E5DD1042230E0072205AB1A70063AA0
S113231003E0072205AB1A70043A5A7096E70222CA
S113232005AB1A70013A1A7104E00222012105ABCF
S11323301A7019715A7189E70222002705AB1A70C5
S11323402148013A1A715F7101F0F8FA012800D1AD
S11323507CE71D48391C01F053FAFFF779FE041E8F
S1132360BC4200D172E72BE0052205AB1A706DE781
S1132370012D00D877E7B2780220174B002A02D04B
S11323801A69024301E01A6982431A616BE7012D5D
S113239000D077E7FFF77AFE70E7B268AB009B588E
S11323A0002B0AD01A79920707D51A68381C996845
S11323B09047002801D0052475730135EDB26CE710
S11323C00BB0F0BDA002002000E007400040064032
S11323D040420F0080841E0000ED00E008B506486E
S11323E001F0ACFA0023012803D00133042800D003
S11323F00A33181C08BDC04600E00740F8B5284B56
S11324008200D4580123002948D00F1C051CFFF773
S1132410FCFD002802D1281CFFF7F2FD221C8823B2
S1132420042124325B05134319601E4B0320191C3D
S113243011430860211C1D1C002008310D43286035
S1132440194D294360250D60211C20310B43186070
S113245098239C255B05194380236D05154308606B
S11324602B609C235B0523431B68012B07D0982317
S11324705B0513431B68012BF3D102230EE0231CDD
S11324800A4E283333431B68201C10343B803443EA
S113249001F064FA2368002378802B60181CF8BDCF
S11324A06843000000000810000088120000781043
S11324B00E4B820070B5061CD4580120002913D09D
S11324C0301C0D1CFFF7A1FD002802D1301CFFF7C2
S11324D097FD231C0020064A2988283313431960DA
S11324E02C346B881443236070BDC04668430000DD
S11324F000007810012300280CD0032200238270EE
S1132500023A03704370C270037143718371C371E3
S113251003724372181C7047F8B5324B8200D558C9
S1132520012300295CD00C1C061CFFF769FD281C44
S113253001F00CFA62782B1C9C21501E82418C20E5
S1132540083349051943D2010A60A178264A490192
S11325501A431160E178254A89001A431160244A1C
S11325604005134394462279071C1A6063792A1C98
S1132570591E8B410C321743DB003B6088235B05FB
S11325801A43A3795F1EBB419B001360E3792A1CA5
S11325909827591E8B4120327F0517439B013B60CE
S11325A063461A43237A24351360637A05435A1E1B
S11325B09341DB002B6023780E491F22002B08D0A7
S11325C08B5D1A40012393401A1C0B4B1A600023A5
S11325D006E0895D0A40012191400A1C0749CA6747
S11325E0181CF8BD684300000000881200000811A0
S11325F0000008106C43000000E100E004E100E08A
S1132600104B800030B5C4580120002A19D0201C7A
S113261090250C306D05284305681378EDB2AB4264
S113262003D05D1EAB411B010360107A5368421E48
S113263090411F2280011340034300208900611848
S11326400B6030BD68430000054B8000C35889000F
S11326501031C918034B1943086880B27047C0464B
S11326606843000000007810084B8000C358002025
S1132670032A09D1890059189C235B05194308686A
S1132680013843425841C0B27047C0466843000015
S1132690F7B5FF2403681C4A1D0A25401C40AB0003
S11326A09F581A4A061C9B58281C0193FFF7A0FC4C
S11326B0211C0022381C01F083F9019BA4001C1981
S11326C0842332795B05234352001A608023727994
S11326D05B0523431A609023B2795B0523431201FF
S11326E01A60F3790A4A14431A042260002B0AD0B0
S11326F0084B5A5D002A06D01F23134001229A403A
S1132700131C054A1360F7BDC4430000BC4300001A
S113271000001818CC43000000E100E0F8B5FF24E5
S1132720051C0368114A180A20401C4083009F5866
S11327300F4A9E58FFF75CFC381C211C012201F053
S11327403FF96A68381C211C01F04AF988232A7A67
S1132750A40034195B05234392001A6098235B0597
S11327601C436B7A9B012360F8BDC046C443000040
S1132770BC43000038B50C1C002802D1002C09D140
S113278012E003680133F9D0051C0835FFF780FF18
S1132790281CF6E72368013306D0251C201C0C35C1
S11327A0FFF7BCFF2C1CF5E738BD0000FF22030A2D
S11327B0134002400120904002499B005B5858603E
S11327C07047C046C4430000FF22030A134002407E
S11327D00120904002499B005B5898607047C046B6
S11327E0C443000008B5084B8200D3589422023336
S11327F0520513431B78002B02D000F019FA01E0B4
S113280000F06EFA08BDC04670430000031C80222D
S11328100C33520513431B78002BF7D0017170471A
S113282038B50D1C084B8000C458201C291C1830D6
S1132830FFF7D2F90328F8D0002801D00423237429
S1132840207CC0B238BDC046B0020020F0B589B0CB
S11328500290161C82003748059310580EAB019065
S113286035481B781458002007AA1080A27C8F0AD0
S113287004920122E274A2745A4253411E3FDBB215
S113288003937B425F41FFB2CDB2874202D0CBB209
S11328909C460D0A00216D00EDB28F4204D1391C13
S11328A0002E01D16B46197B0D4307AB1D7001222D
S11328B0002F02D062465A700222A360E26001989F
S11328C0291CFFF7A3FF02980F99FFF7A9FF237CA8
S11328D0002B0CD1002E0AD0059BA660E360317852
S11328E00198FFF793FF02980F99FFF799FF237C54
S11328F0002B16D1039B002B13D0002F01D1002EE7
S11329000FD000230127A3600198E76001F0C0F80D
S1132910391C01982943FFF779FF02980F99FFF7B3
S11329207FFF0023E3746B46207C1B7CC0B2A3743E
S113293009B0F0BD70430000B0020020104A8300CB
S113294010B598580F4A9C58E37C002B05D0237C83
S1132950052B02D0237C042B09D19822831C520519
S1132960134300221A7001F0A5F801236374A37CB9
S1132970002B03D0201C1830FFF7EDF810BDC04623
S113298070430000B0020020F7B5194B8700FB58D4
S113299001250093174BFE58002E26D10C1C24222F
S11329A00190081C311C01F094F9201C311C1830D2
S11329B0FFF7CAF80198FFF732FB009801F018F806
S11329C00C4B019AFC500C4B9A5C1F2313402A1C9D
S11329D09A40131C094A13609C22009B520502333F
S11329E0134380226574351C1A70281CFEBDC04632
S11329F070430000B00200206D43000000E100E0DD
S1132A000A4B800070B5C558094BC6584B687269AB
S1132A1093420AD00C1CFFF7A7FA0023011C62683A
S1132A20281C00F0F3FF6368736170BD70430000FD
S1132A30B0020020F0B587B00FAC334F334D267889
S1132A4084006559E459677C002F02D10320207467
S1132A5058E0002E01D11E270E9705930023A6747B
S1132A60E360A360237423606374071C04920391DE
S1132A70FFF7C6FF90231021AA1C5B0513431970AE
S1132A808421EB1C49050B430221197098235B0533
S1132A90134302934023029A281C137000F0F8FF9A
S1132AA0039B381C1988012300930E9B049A0193FD
S1132AB0059BFFF7CBFE0D9B002B15D0237C002B31
S1132AC00FD10C9B281CA3600D9BE3600C9B197811
S1132AD0FFF79CFE002E13D0381C0E99FFF7A0FEC2
S1132AE00EE0237C042B0BD100230126029A1370E1
S1132AF0EB785B09334202D0281C00F0DBFF6674DC
S1132B00207CC0B207B0F0BDB002002070430000CA
S1132B10F0B58BB013AC2478364E374D0394840053
S1132B206559A459667C002E02D1032020745FE00D
S1132B30039E002E01D11E3612960993109B002687
S1132B402360119BA66063606B461B7BE660A374E5
S1132B5026746674079108920490FFF751FF90233E
S1132B60AF1C5B053B4305931023059A281C137087
S1132B708422EB1C5205134302221A7098235B052E
S1132B803B4306934023069A137000F081FF079B92
S1132B90089A1988129B009601930498099BFFF7E1
S1132BA055FE227CD2B2B24212D1059B11991A7001
S1132BB08C235B053B43012900D108221A702B7931
S1132BC0039B002B12D004981299FFF729FE0DE005
S1132BD0237C042B0AD1069B1E700126EB785B092B
S1132BE0334202D0281C00F065FF6674207CC0B21A
S1132BF00BB0F0BDB0020020704300001FB5069C6E
S1132C000094079C0194089C029401240394FFF708
S1132C1011FF04B010BD1FB5069C0094079C0194DD
S1132C20089C029401240394FFF772FF04B010BDC2
S1132C30842138B5244B8200D5584905EB1C0B433D
S1132C4002211970214BD45890226B1852051A4353
S1132C501278E978D2B2890634D59421490519430A
S1132C60097800292ED0012A15D1EB78134202D01D
S1132C70052323740CE0E368013BE360002B07D0D9
S1132C80A368281C5A1CA2605978FFF7BFFD19E0FD
S1132C90FFF754FE16E06268013A6260002A06D02B
S1132CA08C214905012A05D10B43082204E0FFF7D2
S1132CB045FE02E000220B431A7023685A1C22606E
S1132CC02A791A7038BDC04670430000B002002053
S1132CD0842303305B05184302230370704700000C
S1132CE0902149050A1CF0B58F4B071C8000C5587C
S1132CF089B0EB1C0493EB78EE78DBB20593F3B266
S1132D000693AB1D1A43944612789826D2B20792C2
S1132D10942252051A4314787605621E9441E2B255
S1132D20824C33430459A81C0090084301921A783A
S1132D300178D2B2C9B203910199029000292FD02F
S1132D40079900290CD010236246281C1370FFF742
S1132D50BFFF236BF8B20121002B00D0DCE0E0E0E0
S1132D60002A1DD04022281C1A70FFF7B1FF231C33
S1132D702C331B78002B02D1009A16433370236B3B
S1132D80002B03D0F8B28021626B9847E37D002BBF
S1132D9004D0201C80211830FEF7EDFE0A23BFE08A
S1132DA0069B281C9E1101231E40FFF791FF012260
S1132DB0059B1B11134219D09023049A5B051343FE
S1132DC010221A70002E04D0EB785B07DB0F10D1B1
S1132DD01AE0082323702C342278002A00D0A0E0C3
S1132DE0982300995B050B431A709AE0002E16D0C5
S1132DF0EAE71023029A1370236B002B6ED0F8B20B
S1132E000221626B984769E0029A1370236B002BCE
S1132E1003D0F8B20421626B98472B7981E0039BBD
S1132E20012B29D1EB78039A134257D0029B1E70D1
S1132E302B79231C2C331B78002B09D1019B002BED
S1132E4006D19823009A5B0513436A4612791A70D7
S1132E50236B002B03D0F8B20821626B9847A37D43
S1132E60002B04D0201C08211830FEF784FE002318
S1132E706360E360237554E02B79A268DBB2002A17
S1132E802AD022691370236901332361A368013BAB
S1132E90A360A368002B44D1019B002B13D1231CF6
S1132EA02C331B78002B06D19823009A5B0513431F
S1132EB06A4612791A70E37D002B04D0201C20216D
S1132EC01830FEF758FE002363752361236BF8B2B4
S1132ED02021002B20D124E0072321E06368002B6C
S1132EE01DD0E3681A782B1C80210C3349050B4351
S1132EF01B78002BF7D02A71E3680133E360636821
S1132F00013B63606368002B0BD1E3602375236B83
S1132F10002B06D01021F8B2626B984701E006231B
S1132F20237009B0F0BDC04670430000B002002019
S1132F3084235B0503431A7800239A4209D0802333
S1132F4001305B0518430378012B01D0024B00E0EC
S1132F50024B181C7047C04680841E0000127A0081
S1132F6010B50D4A831D13431B78DBB2002B10D020
S1132F70012B08D1041CFFF7DBFF084B08341C436A
S1132F802378D84006E00020022B03D1044B1868B4
S1132F9000E0044810BDC046000008110000901075
S1132FA0B4020020006CDC020B4A831D13431B781F
S1132FB0DBB2012B06D0181E0CD00320022B09D043
S1132FC0052007E0802301305B0518430078434265
S1132FD0584101307047C04600000811021C031C10
S1132FE09C20183340050343802018700020064BB2
S1132FF0134318700548931D03431B78D8B2002867
S1133000F8D1034B0B60704700000813000008114F
S1133010006CDC02F8B5041C0D1C171C1E1CFFF709
S1133020C3FF012802D1002D04D007E0022805D1F6
S1133030012D03D1201C311CFFF7D0FF8022631C1B
S1133040520513431D70842302225B0523431A7027
S1133050231C0C4A083313437A00D2B21A7040225C
S1133060094B23431A70094AA31D13431B78012BF0
S1133070F9D1002D01D1064A00E0064A3A41002068
S11330803260F8BD00009010000008130000081121
S113309080841E0000127A000A4B10B51C681A1CAA
S11330A00123002C0CD08024074B03431C70074CD5
S11330B0831D23431B78022BF9D113680B60002373
S11330C0181C10BDB40200200000081300000811F1
S11330D09C23C9015B051843C9B20170704794234E
S11330E049015B051843C9B20170704770B50668A1
S11330F00C1C301C2049FDF747FA1F49051C301CE5
S1133100FDF7C8FA0E1C081CE1210901FDF73CFA81
S1133110E121E0800901301CFDF7BCFA0E1C081CFB
S11331203C21FDF731FA3C212081301CFDF7B2FA35
S11331306E22124BA1722380FF32238895420BD951
S1133140AD1A032201339BB22380B72113405A1EC8
S113315093414900CA1AF0E709499B0700D109497C
S11331600123CA5C954201D8638003E00133AD1AA0
S11331700D2BF6D1A58070BD80510100B20700006F
S11331809B4300008E43000030B5114A0188031CA4
S11331908A180020812A19D85A88541E0B2C15D855
S11331A09C88651E1E2D11D8DD88172D0ED81D890B
S11331B03B2D0BD89B7A3B2B08D88B0701D0054BB2
S11331C000E0054B9B5CA3424041C0B230BDC04609
S11331D04EF8FFFF9B4300008E43000070B5124A77
S11331E0838804889A186E23FF3363434588D31871
S11331F0A2089B180D4A6E00B25A9B18A20702D16E
S1133200022D00D8013B0B60E1233C22C4881B0142
S11332105C4303895343827AE3189A180868044B81
S11332204343D3180B6070BD4A05F5FF7443000097
S113323080510100084B1A6880231B029A4209D16D
S1133240A02310305B0518430368002B02D101331F
S1133250FF3303607047C046B4020020021C802183
S113326010B500230124490510320A431460136089
S113327090224360520504601C300243136088228C
S1133280520502431360842252050243084313602B
S1133290036010BD031C9022143352051343002213
S11332A01A604260103201601A60704703680B6054
S11332B070470000114B820070B5D5588022104B26
S11332C092051A60041C281CFFF7C8FF281CFFF78E
S11332D0B1FF01201F22011C0A4B0B4E1B5D345D04
S11332E0134099402240C0250B1C904007496D00B3
S11332F04B5148510B60086070BDC046AC430000A0
S11333003C80845EA9430000A843000000E100E083
S1133310F7B50027114B8000C658081C0D1C0197F7
S1133320FFF732FF041EBC4216D001A9281CFFF788
S113333055FF381CFEF758FE011C80200002814214
S113334006D0FDF721F9011C0198FDF71DF9019044
S1133350301C0199FFF79EFF201CFEBDAC4300000A
S1133360F7B50025124B8000C4580E1C201C01A97F
S11333700195FFF79BFF281CFEF736FE051C8020F5
S1133380000285420ED00B4B291C04341C43FDF76C
S1133390FBF82768019C291C4443B8B2FDF7F4F8F4
S11333A020180190311C01A8FFF7A0FEF7BDC0460C
S11333B0AC43000000007810F0B50026184B8000E4
S11333C085B0C458081C0F1C01920396FFF7DCFE5D
S11333D0051EB54201D100251EE0381C03A9FFF7E4
S11333E0FDFE301C2768FEF7FFFD011C8020000253
S11333F0814206D0FDF7C8F8011C0398FDF7C4F814
S11334000390039BBB42E6D3A36088231C345B0573
S11334101C43019B9B002360281C05B0F0BDC046E3
S1133420AC4300008822044B8000C35852051C336F
S11334301343890019607047AC4300008822054B90
S11334408000C3585205143313431868431E98412F
S1133450C0B27047AC4300006B46E0221B78D20236
S11334601B04134009071943014BC018016070473E
S11334704410000008B5084B8200D358902203334F
S1133480520513431B78002B02D000F0F1F801E041
S113349000F056F908BDC046B443000008B50C4B13
S11334A08000C2580B4B0021C3589C2003334005B5
S11334B01843117101709420400503431970137F60
S11334C08B4203D02032101CFEF745FB08BDC046DA
S11334D0BC020020B4430000F7B5061C1C4B30228C
S11334E00C1C8700081C0021FD5800F0F2FB301C66
S11334F0FEF790FDFEF738FD2060281C00F0F7FA77
S1133500201C00212030FEF71FFBEB1C01939023AD
S1133510019A5B0513431022281C1A70032100F042
S113352026FB281C002100F048FB0A4BFC500A4BE8
S11335309A5D1F23134001229A40131C074A13600B
S11335409823019A5B05134340221A70F7BDC046C5
S1133550B4430000BC020020B043000000E100E0DE
S11335600A4B800070B5C658094B0C1CC358151C77
S1133570301C1A68096800F0C1FA28602179301CEF
S11335806279A37900F006FB70BDC046B443000025
S1133590BC020020F7B51E4A83009C581D4A9E5861
S11335A022790423002A31D1071C002902D001AA60
S11335B0FFF7D6FF982300214020F21C5B0513433C
S11335C01970187025698D4203D1381CFFF766FF06
S11335D01BE00123237194235B053343A161197814
S11335E00723002912D0A368191E02D019780133C9
S11335F0A360B1712369013B2361A3690133A36112
S11336009C235B051A43802313700023181CFEBD02
S1133610BC020020B4430000F8B5134F134C8500DE
S11336202C59ED590127069E2777A2602661E36095
S11336306661FFF7AFFF061E14D1201C07992030E6
S1133640FEF7CAFA0328F8D000280BD09C210022E8
S1133650EB1C4905194322710A709421032649057C
S11336600B431A70301CF8BDB4430000BC020020A8
S113367010B51E4B8200D3581D4951581A79002A9F
S113368032D05A69002A11D09C2252050A4312787A
S1133690002A0BD08A79DC68D2B2002C03D02270C5
S11336A0DA680132DA605A69013A5A611A69002A01
S11336B012D0942252050A431278002A0CD09A6838
S11336C0141E02D0147801329A608C711A69013A7E
S11336D01A619A6901329A611A69002A04D15B69F4
S11336E0002B01D1FFF7DAFE10BDC046BC0200205A
S11336F0B4430000104A80008158002208B50F4BE3
S11337000331C358581CC2779C2040050843DA6231
S11337101A701A835A629A621A63027094204005DE
S113372001430A701A1C38321278002A03D0181D7B
S11337300121FEF720FA08BDB4430000BC020020BA
S113374038B5254B8200D35824495258591CC97F97
S113375000293FD0D96A002916DB94214905114379
S11337600978002910D0596A1C7F002905D0DD6A28
S1133770002D02DD0C78013159629471D96A013946
S1133780D962596B01315963D96A002905DA942445
S1133790D11C6405214300240C70196B002911DD30
S11337A09C2149051143097800290BD09279996A23
S11337B0D2B2002903D00A709A6A01329A621A6B53
S11337C0013A1A63DA6A002A04DC1B6B002B01DC61
S11337D0FFF790FF38BDC046BC020020B443000090
S11337E0012903D0032909D1842300E094235B0534
S11337F018430078431E9841C0B200E0002070478F
S1133800034B013049011843C9B201707047C046E7
S113381000008812942302305B0549011843C9B2A1
S113382001707047034B023089011843C9B201701B
S11338307047C046000008138C2302305B05C900A2
S11338401843C9B201707047F7B5384EC21C16430D
S113385037780B78FFB20122072B65D8041C181C9B
S11338600D1CFCF787FE04192A0D192A2A3A002395
S11338702F480134044323703378012BFCD152E0E8
S11338800322012F50D140232948013404432370DB
S11338903378042BFCD146E00021012B01D0042312
S11338A002213078032298423ED1201CFFF7A8FF62
S11338B00421204A13698B4333E00227BB4207D11A
S11338C000270B79BB4203D04979201CFFF7AAFFDC
S11338D0194801340443277019E004231649621C73
S11338E00A4313706A78A31C0B431A706B78002B7D
S11338F006D1AB78002B03D0E978201CFFF78AFFB0
S1133900AB79002B03D0E979201CFFF795FF042144
S11339103378084ADBB20193019B013301931369A5
S11339200B43136130BF0022101CFEBD0000301099
S11339300000881200ED00E000001010024B03307C
S113394018430078C0B27047000030100023836031
S1133950C3608361C361036243627047031C021C3A
S113396010B51349134C4C3348320B4322431B68A4
S11339701268114CD218031C443323431B6882245D
S1133980D218031C6405403323431B680B4CD21824
S1133990031C3C3323431B6838300843D2180368A4
S11339A0D018802380B21B024008184310BDC046C3
S11339B000002810000030100000381000004810EB
S11339C014308023012A04D18A401B051843026065
S11339D005E0DB04184301238B40D94301607047A1
S11339E001238B40002A01D0436000E083607047CC
S11339F00023C222037043708370C37043718371C8
S1133A00C371037242728372C3727047F0B50027A8
S1133A1089B00393FA2301253C1C9B005343069071
S1133A20079102936D4201970123A3400493174B1E
S1133A309E1CCA330593049B318807985943FCF7AD
S1133A40A3FD029B029AC31A824200D9131AAB4205
S1133A5004D2B21E177801941D1E03D0059B0436B0
S1133A609E42E8D10134032C01D0002DDCD1039B0C
S1133A70002B00D01D603F231F40019B9B011F436F
S1133A80069BFFB25F7009B0F0BDC046CE43000094
S1133A90942302305B0503431B78002B04D0882356
S1133AA05B051843042303E080231B0518433023DC
S1133AB0037070479422831C52051A431278011C28
S1133AC00220012A12D18022D2041343CF221A7079
S1133AD08022D2002023C878034004D0013A002A6F
S1133AE003D0C046F6E7181C00E009207047042301
S1133AF0C37000238370437003717047F0B5130BD8
S1133B0089B001250493082300266D4203935B19B1
S1133B10079005910692029302270024731C191C36
S1133B20069879430193FCF72FFD059B834206D346
S1133B301B1A9D4203D91D1C049003940296013460
S1133B407F00092C02D0002DE8D104E0072E02D01A
S1133B50019E002DE0D17022029B04981B011340AA
S1133B60039A1343079ADBB2537009B0F0BD842261
S1133B70C31C52051A4301230B405B00DBB21370D4
S1133B8090238907C90F5B05023009011843C9B2A4
S1133B900170704710B58C2403306405C9000443D8
S1133BA0C9B221708821920049050143D2B20A703A
S1133BB0802252051043037010BD8023012202307D
S1133BC05B0503430A401A708C238907C90F5B0500
S1133BD0C9001843C9B201707047011C002008B520
S1133BE0021C031C00F03EF908BD0000014B1868DC
S1133BF07047C04694FFFF1F084B10B5041C002BF0
S1133C0002D0002100F08AF9054B1868836A002B62
S1133C1000D09847201C00F0F5F9C0461D3F000075
S1133C209844000038B5074B074C1D1CE41AA41037
S1133C30002C04D0013CA300EB589847F8E700F0AF
S1133C4033FC38BDC0440000C44400000E4B70B5C2
S1133C5000251E1C0D4CE41AA410A54204D0AB0090
S1133C60F35898470135F8E700F018FC084B002595
S1133C701E1C084CE41AA410A54204D0AB00F3584F
S1133C8098470135F8E770BDBC440000BC4400000F
S1133C90BC440000C044000008B5034B011C186874
S1133CA000F066F808BDC04694FFFF1F08B5034B3B
S1133CB0011C186800F016F808BDC04694FFFF1FE9
S1133CC0002310B5934203D0CC5CC4540133F9E70C
S1133CD010BD031C8218934202D019700133FAE715
S1133CE07047000030B500293ED004390B68002B22
S1133CF000DAC9181D4A1368141C002B02D14B604A
S1133D00116031E099420DD208680A189A4203D131
S1133D101368C3180B6053684B60216024E08A4227
S1133D2003D8131C5A68002AF9D11D685C198C4207
S1133D300BD10968691858181960904214D1106899
S1133D405268091819605A600EE08C4202D90C239B
S1133D50036009E008680C18944203D1146852689F
S1133D60001908604A60596030BDC046C402002092
S1133D70032370B5CC1C9C430834051C0C2C01D2C5
S1133D800C2405E0002C03DA0C2300202B6042E015
S1133D908C42F9D3204A1368101C191C002913D033
S1133DA00A68121B0DD40B2A02D90A608B181FE073
S1133DB08B4202D15A6802601BE04A685A600B1CAD
S1133DC017E00B1C4968E9E7144E3368002B03D154
S1133DD0281C00F025F83060281C211C00F020F875
S1133DE0031C421CD0D00322C61C964386420AD12F
S1133DF01C60181C07210B301A1D8843821A0AD034
S1133E005142995007E0311A281C00F009F8431C6C
S1133E10BAD0331CECE770BDC4020020C0020020FD
S1133E2038B50023064C051C081C2360FCF72EFD46
S1133E30431C03D12368002B00D02B6038BDC0463F
S1133E4058030020031C0A7801311A700133002A38
S1133E50F9D170470023C25C0133002AFBD1581EFC
S1133E6070470000F7B52A4D061C2C680091171CFA
S1133E700193002C01D1274C2C6063681F2B15DDA6
S1133E80254B002B02D10120404240E08C20FFF75B
S1133E9003FF041EF7D02A6800230260021C883244
S1133EA04360286013609E420AD128E0002E26D089
S1133EB0231C88331868002810D1174B002BE2D03C
S1133EC084204000FFF7E8FE0028DCD0031C002219
S1133ED0FC335A609A60231C88331860012261689D
S1133EE08A408B00C31880C3FC3041681143416091
S1133EF00199D967022E02D183681A438260002097
S1133F0063685A1C62600233009A9B001A51FEBD1A
S1133F1054030020C8020020993C0000F0B587B08B
S1133F2005900391344D2C68002C63D0231C8833F6
S1133F301E6863685A1E0192304A9B189B00F7184A
S1133F400433E3180293019B002B3DDB039B002BFE
S1133F5007D0002E31D03B1C80331B68039A934258
S1133F602BD16268029B0199013A5B68914201D1AD
S1133F70616002E0002202994A60002B1DD0626851
S1133F800492002E07D0012201998A40311CFC3191
S1133F904868104201D1984708E08968114203D16A
S1133FA005983968984701E038689847049B626827
S1133FB09342B7D12B68A342B4D1019B043F013B88
S1133FC00193029B043BBDE70D4B002B12D06268AA
S1133FD02368002A0BD1002B09D02B60002E02D0BD
S1133FE0301CFFF763FE201CFFF760FE9BE7251CD7
S1133FF01C1C99E707B0F0BD54030020FFFFFF3FEE
S1134000AD3C0000FEE7C0461B5B306D1B5B343BE0
S113401034336D1B5B313B33376D0D53616E697403
S11340207920436865636B204661696C6564211B74
S11340305B306D0A001B5B306D1B5B343B34316DB0
S11340401B5B313B33376D0D496E76616C696420BF
S1134050737570706C7920766F6C74616765205B22
S113406025645D206D56211B5B306D0A000A0A0A27
S11340700D426F6F74696E6720576172702C2069EE
S11340806E20332E2E2E2000322E2E2E2000312E86
S11340902E2E0A0D00736D6173680A0A0000000079
S11340A000000000005F0000000403040300002877
S11340B07E143F0A00242A7F2A1200231308646214
S11340C000304E5926500000000201000000001C80
S11340D022410041221C000000221408142200087E
S11340E0083E0808005030000000000808080808CE
S11340F0006060000000002010080402003E5149E6
S1134100453E0000427F400000625149494600227A
S113411041494936001814127F10002F454545398E
S1134120003E4949493200016119050300364949F5
S1134130493600264949493E000036360000000051
S113414056360000000008142241001414141414FC
S1134150004122140800000201590906003E415D95
S1134160552E00601C131C60007F49494936003EEF
S113417041414122007F4141221C007F494949417C
S1134180007F09090901001C2241493A007F0808FF
S1134190087F0000417F410000204040403F007FF5
S11341A008142241007F40404000007F0418047F2F
S11341B0007F0408107F003E4141413E007F090911
S11341C00906003E4151215E007F09192946002657
S11341D0494949320001017F0101003F4040403F0D
S11341E000031C601C03000F700F700F00413608A1
S11341F0364100010678020100615149454300003F
S1134200007F41410015167C16110041417F0000DA
S11342100000020102000040404040400000010252
S1134220000000002054547800007F44443800000B
S11342303844442800003844447F0000385454185B
S11342400000043E050100000854543C00007F04B3
S113425004780000007D0000000040403D000000A4
S11342607F1028440000017F0000007C047C047857
S113427000007C04047800003844443800007C14B6
S1134280140800000814147C00007C0804040000D6
S1134290485454240000043E444000003C40407C08
S11342A000007C20100C001C601C601C00006C10C2
S11342B0106C00004C50301C00004464544C00004E
S11342C0083641410000007F0000004141360800EB
S11342D0000804081008000000000000000D785FCA
S11342E06163633D20256420795F6163633D20251C
S11342F064207A5F6163633D2025640A000D617563
S1134300746F726573203D2025640A00696E6974B8
S1134310206D696320726561636865640A000D66D7
S11343206C6167203D2025640A000D6D6963206F70
S11343307574707574203D2025642C2025640A0052
S11343405465726D696E616C005254540053454754
S113435047455200303132333435363738394142EB
S113436043444546898A000000B003400F0800001A
S113437000600640000000001F003B005A00780067
S11343809700B500D400F300110130014E01001F65
S11343901D1F1E1F1E1F1F1E1F1E1F001F1C1F1E52
S11343A01F1E1F1F1E1F1E1F1514000000D00340D8
S11343B00A000000006007400050064000900440DE
S11343C000A0044000F00F4040F00F401E1F00000A
S11343D01400010016000200180003001A00040073
S11343E01C0005001E0009002000060022000A002F
S11343F02400070028000C002C00100030001100DD
S11344003800120040000F0044001300480014005C
S113441050001500580019006000160068001A00CA
S11344207000170080001C0090001D00A0001E00FA
S1134430C0002200E0001F00F0002300000124005F
S1134440200125004001260080012A00C001270028
S1134450E0012B0000022C0040022D0080022E00FF
S11344600003320080032F00C00333000004340033
S1134470800435000005360000063A0000073700C6
S113448080073B0000083C0000093D00000A3E0094
S1134490000C3F00000F430034FFFF1FF8B5C04677
S11344A0F8BC08BC9E467047F8B5C046F8BC08BCCA
S10744B09E46704769
S10B44B410C0FF7F01000000AD
S10744BC890400006B
S10744C05D04000093
S11344C4010000000100000001000000C508000014
S11344D403000000000000000CFEFF1F01010000A7
S11344E401010000FFFFFFFF0000000000000000C6
S11344F401000000010000000100000001000000B0
S1134504010000000200000001000000010000009E
S11345140500000001000000010000000800000084
S113452401000000010000000C0000000100000074
S11345340100000009000000010000000100000067
S11345440501000001000000010000000601000054
S11345540100000001000000070100000100000048
S1134564010000000A010000010000000100000035
S11345740B01000001000000010000000D01000017
S1134584010000000100000002010000010000001D
S1134594010000000301000001000000010000000C
S11345A404010000010000000100000006000000F6
S11345B401000000010000000700000001000000E9
S11345C401000000090000000100000001000000D7
S11345D4FFFFFFFF000000000000000001010000D5
S11345E400000000000100000000000000000100C1
S11345F400010000000000000000000000000000B2
S113460400000000000000000000000000000000A2
S113461400000000964400000000000000000000B8
S11346240000000000000000000000000000000082
S11346340000000000000000000000000000000072
S11346440000000000000000000000000000000062
S10F46540000000034FFFF1F0000000005
S9030531C6
