S02B00002F686F6D652F646979612F4465736B746F702F6261646D696E746F6E5F73686F745F6465746563743D
S113000000060020310500005905000059050000D4
S113001000000000000000000000000000000000DC
S1130020000000000000000000000000590500006E
S11300300000000000000000590500005905000000
S11300405905000059050000590500005905000034
S11300505905000059050000590500005905000024
S11300600917000059050000131700005905000086
S11300705905000059050000590500005D100000F5
S113008059050000590500005905000059050000F4
S1130090BD080000D50800005905000059050000FE
S11300A059050000590500005905000059050000D4
S11300B0E90F00005905000059050000590500002A
S1130400FFFFFFFFFFFFFFFFFFFFFFFFFE3DFFFFBB
S113041008B5054B054803331B1A062B03D9044BB7
S1130420002B00D0984708BD98FFFF1F98FFFF1FBF
S1130430000000000648074908B5091A8910CB0FC7
S11304405918491003D0044B002B00D0984708BD1D
S113045098FFFF1F98FFFF1F0000000010B5074C16
S11304602378002B09D1FFF7D3FF054B002B02D0D3
S1130470044800E000BF0123237010BD98FFFF1F54
S1130480000000008035000008B5094B002B03D0A4
S11304900848094900E000BF08480368002B02D15E
S11304A0FFF7C8FF08BD064B002BF9D09847F7E7C4
S11304B000000000803500009CFFFF1F94FFFF1F19
S11304C000000000144B002B00D1124B9D4640222B
S11304D092029A1A924600218B460F461148124AFC
S11304E0121A02F0D8FC0D4B002B00D098470C4B8D
S11304F0002B00D098470020002104000D000B4879
S113050002F04DFC02F084FC2000290000F0D8FA2F
S113051002F054FC00000800000600200000000067
S11305200000000098FFFF1F28030020E92D0000B1
S113053072B606480649074A02600A6001F0EEF8FE
S113054001F02EF962B6FFF7BDFF000080E100E084
S113055080E200E0FFFFFFFF00480047590500006C
S113056002B4714649084900095C49008E4402BC42
S11305707047C046002243088B4274D303098B4260
S11305805FD3030A8B4244D3030B8B4228D3030C5F
S11305908B420DD3FF22090212BA030C8B4202D301
S11305A01212090265D0030B8B4219D300E0090A29
S11305B0C30B8B4201D3CB03C01A5241830B8B4232
S11305C001D38B03C01A5241430B8B4201D34B031B
S11305D0C01A5241030B8B4201D30B03C01A524180
S11305E0C30A8B4201D3CB02C01A5241830A8B4205
S11305F001D38B02C01A5241430A8B4201D34B02EE
S1130600C01A5241030A8B4201D30B02C01A524151
S1130610CDD2C3098B4201D3CB01C01A5241830905
S11306208B4201D38B01C01A524143098B4201D33F
S11306304B01C01A524103098B4201D30B01C01A6A
S11306405241C3088B4201D3CB00C01A52418308E4
S11306508B4201D38B00C01A524143088B4201D311
S11306604B00C01A5241411A00D201465241104671
S11306707047FFE701B5002000F0FCF802BDC0465A
S11306800029F7D003B5FFF775FF0EBC4243891A62
S11306901847C04603460B437FD4002243088B42CD
S11306A074D303098B425FD3030A8B4244D3030BF5
S11306B08B4228D3030C8B420DD3FF22090212BABA
S11306C0030C8B4202D31212090265D0030B8B4236
S11306D019D300E0090AC30B8B4201D3CB03C01A20
S11306E05241830B8B4201D38B03C01A5241430BFB
S11306F08B4201D34B03C01A5241030B8B4201D3EB
S11307000B03C01A5241C30A8B4201D3CB02C01A55
S11307105241830A8B4201D38B02C01A5241430ACD
S11307208B4201D34B02C01A5241030A8B4201D3BC
S11307300B02C01A5241CDD2C3098B4201D3CB0163
S1130740C01A524183098B4201D38B01C01A524112
S113075043098B4201D34B01C01A524103098B4216
S113076001D30B01C01A5241C3088B4201D3CB0001
S1130770C01A524183088B4201D38B00C01A5241E4
S113078043088B4201D34B00C01A5241411A00D294
S113079001465241104670475DE0CA0F00D04942FD
S11307A0031000D34042534000229C4603098B426D
S11307B02DD3030A8B4212D3FC22890112BA030AF5
S11307C08B420CD3890192118B4208D38901921177
S11307D08B4204D389013AD0921100E08909C309FC
S11307E08B4201D3CB01C01A524183098B4201D3FE
S11307F08B01C01A524143098B4201D34B01C01AE9
S1130800524103098B4201D30B01C01A5241C30860
S11308108B4201D3CB00C01A524183088B4201D3CF
S11308208B00C01A5241D9D243088B4201D34B00EA
S1130830C01A5241411A00D20146634652415B102C
S1130840104601D34042002B00D54942704763460D
S11308505B1000D3404201B5002000F00BF802BD4C
S11308600029F8D003B5FFF715FF0EBC4243891ADF
S11308701847C0467047C04608B50A4B1A68002A94
S113088001D1094A1A601A6808491018884206D921
S113089002F08EFA0C2303600120404201E018604C
S11308A0101C08BDB4FFFF1F280300202D030020E7
S11308B002238078834280414042704708B500207B
S11308C001F086FF002803D00020011C01F074FF12
S11308D008BD0000024A1368013313607047C04624
S11308E0F0FFFF1F37B5002001F0A4F9C023002555
S11308F00D4A9B0013600D4A0D4C13600D4A281CD1
S113090013600D4B25716571A5711A68FA239B005C
S113091053430A49236001F0A9FF281C211C01AAA2
S113092001F0E8FF37BDC0461890145420901454C9
S1130930DCFFFF1F2490145404FEFF1FF4FFFF1F6D
S113094008B5002001F07BF98023054A9B00136061
S1130950044A00201360044901F0E6FB08BDC046C8
S11309600CA0145410A01454B8FFFF1F08B50023A2
S1130970364A37491360374A1360374A0133FF3325
S11309801360364A1360364A1360364A1360364A97
S11309901360364A1360012208780240081C344967
S11309A0002A01D00B6000E00A60324A3249136029
S11309B000220A6031490A60314A1360314A1360E7
S11309C0314A1360314A1360314A1360314A13606B
S11309D00378DB0703D50220FF3001F045FB8520B7
S11309E0400001F04FFB092001F04CFB0C2001F00A
S11309F049FB052001F046FB082001F043FB0E20D3
S1130A00FF3001F03FFB8320400001F03BFB082056
S1130A10FF3001F037FB0C20FF3001F025FB812073
S1130A20400001F021FB8220400001F02BFB042058
S1130A30FF3001F027FB072001F024FB062001F022
S1130A4021FB092001F01EFB08BDC0460C90145484
S1130A5000FEFF1F10901454149014541890145452
S1130A601C90145420901454249014543090145412
S1130A7004A0145408A014540CA0145410A014542A
S1130A8014A0145418A014541CA0145428A01454D2
S1130A902CA0145434A0145408B5092001F0F2FA1F
S1130AA008BD08B50C2001F0EDFA08BD08B5FFF744
S1130AB0F3FFFFF7F6FF8320400001F0D5FA08BDED
S1130AC037B5002001F0A4F8012001F0A1F880223C
S1130AD0224B120201241A6000F042FF0020FA2582
S1130AE0021C031C0094011C00F014FC6D001C4942
S1130AF0002000F003FC281C00F014FF194900201A
S1130B0000F0FCFB281C00F00DFF1749002000F04A
S1130B10F5FB281C00F006FF144A231C022114488C
S1130B2000F042FF211C201C00F04AFF002001F0CD
S1130B3015FE1049104801F07BFAFFF717FF052056
S1130B40FFF7FEFE0D49682000F054FAFFF7AEFFF0
S1130B5000F08AF800F0EAFA00203EBD840200208A
S1130B60313200004C3200005232000014FEFF1FEC
S1130B7018FFFF1F28FEFF1F18FEFF1FE4FFFF1FC3
S1130B8037B50E24FF34051C201C01F06DFA201C1F
S1130B9001F078FA0C2001F075FA0123084A0020CC
S1130BA015700093FA239B000193011C054B01F07F
S1130BB0FDFE051C201C01F057FA281C3EBDC04652
S1130BC0440000202400002073B50E24FF34051CCB
S1130BD0201C0E1C01F048FA201C01F053FA0C20D2
S1130BE001F050FAFA2300209B002A1C009601937E
S1130BF0011C044B01F0DAFE051C201C01F034FA40
S1130C00281C76BD24000020F0B5071C85B0101CFC
S1130C100E1C0A21141CFFF7ADFCC0B23030019049
S1130C200A21201CFFF72CFD25230024C9B201ADA5
S1130C3030316960AB6006206043C0B2B44205D075
S1130C403A5D0A2100F050F90134F4E7002406204B
S1130C506043A300C0B22D21EA58013400F044F9E6
S1130C60032CF4D105B0F0BDC0235F4A9B0010B53E
S1130C7013605E4A85241360FFF734FE80235C4AC8
S1130C805B0013605B4A640013605B4A201C1360C2
S1130C9001F0EAF9642000F045FE201C01F0F2F9AD
S1130CA0642000F03FFE201C01F0DEF9642000F017
S1130CB039FEAE20FFF764FFA020FFF761FF72202A
S1130CC0FFF75EFFA120FFF75BFF0020FFF758FF4F
S1130CD0A220FFF755FF0020FFF752FFA420FFF7E3
S1130CE04FFFA820FFF74CFF3F20FFF749FFAD203F
S1130CF0FFF746FF8E20FFF743FFB020FFF740FFCA
S1130D000B20FFF73DFFB120FFF73AFF3120FFF73B
S1130D1037FFB320FFF734FFF020FFF731FF8A20BD
S1130D20FFF72EFF6420FFF72BFF8B20FFF728FF30
S1130D307820FFF725FF8A20FFF722FF6420FFF7C2
S1130D401FFFBB20FFF71CFF3A20FFF719FFBE204F
S1130D50FFF716FF3E20FFF713FF8720FFF710FF72
S1130D600620FFF70DFF8120FFF70AFF9120FFF710
S1130D7007FF8220FFF704FF5020FFF701FF8320C5
S1130D80FFF7FEFE7D20FFF7FBFEAF20FFF7F8FE26
S1130D902620FFF7F5FE0120FFF7F2FE2520FFF7DE
S1130DA0EFFE0020FFF7ECFE0020FFF7E9FE5F20D6
S1130DB0FFF7E6FE3F20FFF7E3FE8720FFF7E0FEA4
S1130DC00E20FFF7DDFE032000F06AF80020FF216B
S1130DD0021C00F015F800F05DF8084803213222E7
S1130DE0FFF712FF002010BD2090145424901454D7
S1130DF034A014543090145400A0145459320000F8
S1130E00C008800183B2890819434901D20889B214
S1130E101143081C7047F0B587B003AC071C00925F
S1130E2001930B220CAB0E1C201C00211D8802F028
S1130E3032F82623201C02212370FFF7C5FE21234C
S1130E4023703B1C5F2F00D95F236370331C3F2E3C
S1130E5000D93F23A3706B46009A1B785F2A00D900
S1130E605F23E3706B46019A1B793F2A00D93F2325
S1130E702371EB0A5B0063716B059B0EA3711F2347
S1130E802B405B00201C0821E371FFF79DFE07B097
S1130E90F0BD0000014B18807047C046640000207C
S1130EA0014B18707047C0466600002000B50D4A1B
S1130EB0031C10780138032810D8FFF751FB0206F1
S1130EC00B0D02221A60012302E001221A600223A0
S1130ED00B6006E0022202E0062200E001221A6012
S1130EE00A6000BD66000020131CF0B51F3B89B0EA
S1130EF00A2A07D10022384B1A70384A1378103363
S1130F00137066E0602B64D8334B1978592909DDD6
S1130F100020324918700B781033DBB20B702E2B83
S1130F2000D9087006A807A9141CFFF7BFFF062202
S1130F306243002404920025049B294AE318C03B21
S1130F40D3180593069B9D4236DA10270020059B93
S1130F501B7803930026079B9E4224DA6A46127B81
S1130F6052B2002A02DA0130C0B21AE0002818D0C6
S1130F701A4A7B43127806999B186143164A9B1BB5
S1130F801278DBB202388A18591E1B1815485219F8
S1130F900088D2B20090C9B2101CDBB2FFF73BFF4D
S1130FA000200136D7E7039B013F5B00DBB20393CC
S1130FB0002FCFD10135C5E70134062CBBD106A8DB
S1130FC007A9FFF773FF069B034A5C431378E418F1
S1130FD0147009B0F0BDC04667000020680000200E
S1130FE05D3200006400002008B5002001F08EFA94
S1130FF008BD000008B5E0235B0008704B600020CA
S1131000054900F075FB002001F04AFA0349C2B219
S1131010002000F06DFB08BDD5340000E234000070
S1131020012208B5034B002003491A7000F060FB4D
S113103008BDC04678000020C13400008022044B63
S11310401A600022034B1A60034B0E321A60704779
S1131050188084531880045218801C5010B5002442
S11310600020211C032200F05DFF00280DD0211C6C
S1131070002000F047FF074A63009852064BA20085
S1131080D158002901D0D3589847012C01D001240C
S1131090E6E710BD740000206C000020F0B58BB0B2
S11310A06946061C00F0E4FD6B461D495A88002081
S11310B000F01EFB01A9301C04AD00F0D9FD01A90C
S11310C0301C00F02FFE281C00F04EFE00240127E7
S11310D00323291C301C2B712F70EC70EC716F7280
S11310E000F054FE642302A90B80DB184B80201C03
S11310F0C63B0B7100F0BEFE0A4A0B4B211C1A6062
S1131100092307AA301C536057721772147000F039
S1131110D5FE201CFFF792FF201C0BB0F0BDC0468B
S1131120EF340000211000006C00002008B50949CC
S1131130002000F0DDFA0020FFF7B0FF00200921B5
S1131140021C00F0EFFE0449021C002000F0D0FA5B
S113115008BDC046FE340000103500000269C368B3
S11311609A4203D880681018013800E0501EC01A53
S11311707047F7B58368C668051C40680191141C64
S11311809F1B8019974203D901F07CFEA4190AE041
S113119001993A1C01F076FE019BE41BD919686899
S11311A0221C01F06FFEEC60F7BD0023F7B5061CAE
S11311B0171CC568019100933369B468AB4200D829
S11311C01B19013B5B1B641BBC4200D93C1C9C42A9
S11311D000D91C1C7368221C5819019901F052FE95
S11311E0009B2D191B190093019B3F1B1B19019395
S11311F0B368EB1A5A1E93415B421D40F560002F01
S1131200DAD10098FEBD0000022310B5104C114A3B
S113121023616361104BA261E3618023A2640F4ADE
S11312205B002362E26400231022A3626362E36230
S1131230A3656365E3652265E01D094901F0E4FEE9
S1131240201C084901F0E0FE2023A37110BDC04614
S11312508C0100201C35000089000020790000204A
S11312602535000029350000F8B51823451C5D43D9
S11312704343141C134A0E1CD018C76A5519012F76
S11312800FD0002F07D0022F17D1221C281CFFF7E4
S11312908CFF041C14E0281CFFF760FFA0420ED34F
S11312A005E0281CFFF75AFF844200D9041C281CBF
S11312B0311C221CFFF75DFF02E0002400E03C1C0F
S11312C0201CF8BD8C010020F8B50B4B071C1B78C3
S11312D00E1C151C002B01D1FFF796FFEFF31084B1
S11312E0012181F31088381C311C2A1CFFF7BCFF34
S11312F084F31088F8BDC0468C01002038B5051C65
S1131300081C0C1C01F088FE211C021C281CFFF781
S1131310DBFF38BDF7B5164C01932378051C0F1C71
S1131320161C002B01D1FFF76FFF23699D421CD2CD
S1131330EFF31082012181F31088002D0CD01823C3
S1131340691C59436B43675061184E600199E31857
S1131350196200219962596218235D43089B64193C
S1131360E36282F31088002001E001204042FEBDC8
S11313708C010020826810B5041C4068531C834211
S113138005D820688154A360E3680133E360A26850
S113139063689A420CD120692168FFF795FFA3681E
S11313A0984203D001235B42E36001E00023A36081
S11313B010BD0000F0B5051C1F1C081C012685B0DB
S11313C00A9C00910192019B984204D30199FFF772
S11313D0D1F80136F7E70296BE4200D20297012304
S11313E00B9A1A40039218D1002C01D1002414E066
S11313F00B9B20269B070DD5002F0BD1103609E03F
S1131400281C311CFFF7B6FFEB68013C002B04DB02
S1131410002CEBD0029BA342F2D3EB68002B35DB0C
S11314200126012F01D9013F06E00098311CFFF786
S1131430A1F8019B984208D3019B5E43F1E7301C5D
S11314400199FFF797F8061E10D00098311CFFF79A
S113145091F8331C4343009AD31A00930C4B195C44
S1131460281CFFF787FFEB68002BE8DA039B002BAF
S11314700CD0002C0AD0029BA34207D2281C2021A6
S1131480FFF778FFEB68013C002BF2DA05B0F0BD02
S113149030350000F0B59FB00EAB099340230A939A
S11314A00023161C06900B930D900C930B784C1C88
S11314B0002B04D10C9B0393002B22DC15E1252B7C
S11314C016D1002502314F1E3B782B2B0CD003D8AC
S11314D0232B27D1082308E02D2B03D0302B21D137
S11314E0022302E0012300E004231D430131EAE763
S11314F0191C09A8FFF73EFF211C0C9B002BD5DA11
S1131500D8E70B9A002A03D006980EA9FFF7DCFE51
S11315100C9B03930B9B0493049A039B9446634490
S11315200C93E2E000243A78131C303B092B05D8D5
S11315300A235C43303C0137A418F4E700230393E7
S11315402E2A0DD101373A78131C303B092B07D8CA
S11315500A23039901374B43303B9B180393F2E76B
S1131560397804230A1C9A43682A01D10137F7E722
S1131570642926D008D8582900D195E063291AD0C7
S1131580252900D0AFE0ABE0732900D195E00DD858
S1131590702900D0A7E032680021131D33600823AE
S11315A001910093116809A8102296E0752971D061
S11315B0782979D097E0336819681A1D3260C9B266
S11315C08EE033681A1D1B683260DA17981804938A
S11315D0012350400593092805DD0A21FFF75AF835
S11315E0059B0133F6E7059B039A934200D20592CB
S11315F0002C05D0049B002B01DB6B0700D5013CBC
S1131600AB0702D5039B002B10D0EB070ED4002CA4
S113161001D100240AE0059BA34207D209A8202196
S1131620FFF7A8FE0C9B013C002BF0DA0C9B079300
S1131630002B58DB049B002B04DA5B42049309A8BB
S11316402D2103E06B0703D52B2109A8FFF792FE98
S11316500C9B002B47DB03232B40022B11D1039B54
S1131660002B0ED1002C01D100240AE0059BA342DB
S113167007D209A83021FFF77DFE0C9B013C002B0B
S1131680F0DA0C9B0593002B2DDB0094019509A83F
S1131690049906E03368009401951A1D19683260B4
S11316A009A80A22039B18E0336800941A1D0195C7
S11316B0326009A819681022F4E733681A1D3260F1
S11316C01C682178013400290DD009A8FFF752FEC7
S11316D00C9B0393002BF4DA05E0FFF76BFE02E0AA
S11316E009A8FFF747FE791C07E70C981FB0F0BD67
S11316F00EB403B503AB02CB01AA0193FFF7CAFEF4
S113170002B008BC03B0184708B5002000F0C8FCBC
S113171008BD08B5002001F077F808BD082110B510
S1131720164B9A780A4202D09A780A439A70882211
S113173000212220124B52019950124A107080202D
S1131740114A400298501868104A024010481A6022
S11317501C58104A2240C024A40422431A50802258
S11317600D4B19721A767F3A19705A700B4A117020
S11317700C2299791142FBD110BDC04600D007401C
S11317800070044000E0074044100000FFFFF3FF36
S113179004100000FFFFFFF0004006400050064028
S11317A0154B164810B5191E81420CD00022144B5B
S11317B09B089B009A4203D084588C500432F9E76A
S11317C0104B996001E00F4A936000230E4A0F49C1
S11317D0891A8B4204D0D45C0D48C4540133F8E711
S11317E000230C4A0C49891A8B4204D00024D018D7
S11317F004700133F8E710BD000000000000000091
S11318000000000000ED00E0A835000040370000B3
S113181000FEFF1F98FFFF1F2803002000234170D4
S1131820436003708360181C704710B54378041C30
S11318300120FF2B08D000F013FA63780133DBB2E8
S1131840637000F001FA002010BD38B5041C0D1CB3
S113185000F006FAE1682943E16000F0F5F90020A0
S113186038BD000000220A4B9A641A1C40329A6365
S11318701A1C30329A621A1C20329A611A1C1032D5
S11318809A60044A1360044B9B60DB607047C04657
S11318901802002014020020040200200022024B3F
S11318A01A60186880B270470C007C5038B54378D1
S11318B0041C0D1C002B0BD0002500F0D1F963781B
S11318C0013BDBB26370257000F0BEF9281C28E0F0
S11318D00220002925D02378002B15D0FFF7DEFF46
S11318E06368A268984201D3C01A03E0C01A802337
S11318F05B02C018824213D200F0B2F900232370B5
S113190000F0A2F902200CE04B1C09D000F0A8F969
S11319100123237000F098F9FFF7C0FFA560606011
S1131920032038BD38B5051CFFF7B8FF041CFFF7CA
S1131930B5FFA04201D3001B03E08023001B5B0220
S1131940C0188542F3D238BD08B5012801D100F092
S113195087F908BD08B5012801D100F075F908BD63
S113196010B5FFF77FFF01230020084A08491360E0
S1131970084A094C1060086004212160074C21606A
S113198007490B6007490860136010BD3880045094
S1131990000084500000045000000451040004516D
S11319A004000C500000045310B5044C2060217155
S11319B00020A2602373637310BDC0466802002038
S11319C0F0B587B06B4602901B7A05AC23706B466A
S11319D003911B7B3D4D63702B79029A0420934243
S11319E071D92B7B6B730123A37000230193374EB2
S11319F00093337B009A371C93421AD9009BB26838
S1131A009B009B58002B10D01A79D2070DD51A6869
S1131A10201C99689047002807D06B461B78737385
S1131A20039B002B3AD005230193009B0133DBB2C7
S1131A30DDE7019E002E02D0039B012B2FD1012054
S1131A40FFF782FF0C20029B58432B68181800F004
S1131A50A3F86B461B7A01206B71FFF77BFF02230F
S1131A600025A3703B7BAB4216D9BA68AB009B58E8
S1131A70002B0ED01A7992070BD51A68201C99688E
S1131A809047002805D0039B7D73002B1AD00623B2
S1131A9001930135EDB2E5E7019814E00526002332
S1131AA0009FA370013FFFB2FF2F09D0AA68BB00BB
S1131AB09B58002BF6D01A68201C99689047F1E7D0
S1131AC0301C00E0062007B0F0BDC04668020020CC
S1131AD013B500210378041C0191022B07D0032BBA
S1131AE00BD0012B0ED10279191C134801E00279A5
S1131AF0114801AB00F096FD08E001A90E4800F082
S1131B00D3FD03E00C4801A900F070FD002812D1B8
S1131B10A3790A4ADB01DBB213706378084A5B00DD
S1131B20DBB21370A278074B1A70E278064B1A7076
S1131B306279064B1A7016BD004006401840865361
S1131B400040865000400650014006501840165090
S1131B501F22802302405B05D2051A43044943092E
S1131B609B005B181A431068431E9841C0B270472B
S1131B70288004401F2280210240D30549051943CF
S1131B80430904489B001B1819430123081C934074
S1131B9003607047288004400022072373B5041CA7
S1131BA0104D0093281C131C012100F01FFE201C63
S1131BB0FFF78EFF0022637A217A0093281C131CFE
S1131BC000F014FEE379084A9B041360074BA17AE2
S1131BD01D68281C00F084FD281CE17A00F087FDB4
S1131BE0002076BD0070044000700C59643500007C
S1131BF008B5054800F0BCFC044B1968C9B20131B2
S1131C00FEF7B8FC08BDC0460040064044801458A6
S1131C1008B5024B185CFFF7ADFF08BD4035000066
S1131C2008B5BB20FFF7A6FF08BD08B5BB20FFF72A
S1131C308FFF08BD08B57620FFF79CFF08BD08B5E7
S1131C406620FFF797FF08BD044A1368002B04D0F1
S1131C50013B1360002B00D162B67047780200206C
S1131C6072B6024A13680133136070477802002089
S1131C70F8B5284B8200D4580123002948D00F1C02
S1131C80051CFFF7D2FF002802D1281CFFF7C8FF6C
S1131C90221C8823042124325B05134319601E4B44
S1131CA00320191C11430860211C1D1C002008314D
S1131CB00D432860194D294360250D60211C2031F6
S1131CC00B43186098239C255B05194380236D05FD
S1131CD0154308602B609C235B0523431B68012B81
S1131CE007D098235B0513431B68012BF3D1022310
S1131CF00EE0231C0A4E283333431B68201C103487
S1131D003B80344300F060FF2368002378802B601D
S1131D10181CF8BD443500000000081000008812AB
S1131D20000078100E4B820070B5061CD4580120B8
S1131D30002913D0301C0D1CFFF777FF002802D1B7
S1131D40301CFFF76DFF231C0020064A2988283326
S1131D50134319602C346B881443236070BDC04650
S1131D604435000000007810012300280CD0032221
S1131D7000238270023A03704370C270037143718E
S1131D808371C37103724372181C7047F8B5324BE8
S1131D908200D558012300295CD00C1C061CFFF7D7
S1131DA03FFF281C00F0E6FE62782B1C9C21501E8D
S1131DB082418C20083349051943D2010A60A17875
S1131DC0264A49011A431160E178254A89001A43D9
S1131DD01160244A4005134394462279071C1A6073
S1131DE063792A1C591E8B410C321743DB003B607C
S1131DF088235B051A43A3795F1EBB419B001360D4
S1131E00E3792A1C9827591E8B4120327F051743FA
S1131E109B013B6063461A43237A24351360637A3B
S1131E2005435A1E9341DB002B6023780E491F2281
S1131E30002B08D08B5D1A40012393401A1C0B4BD6
S1131E401A60002306E0895D0A40012191400A1CC2
S1131E500749CA67181CF8BD443500000000881201
S1131E6000000811000008104835000000E100E0FF
S1131E7004E100E038B50F4B8000C458012000296C
S1131E8016D0231C942220335205134320221A60B7
S1131E900D1C201C097900F075FE231C0020064A45
S1131EA029881833134319601C346B881443236046
S1131EB038BDC0464435000000007810104B800047
S1131EC030B5C4580120002A19D0201C90250C30AC
S1131ED06D05284305681378EDB2AB4203D05D1E4F
S1131EE0AB411B010360107A5368421E90411F22CC
S1131EF08001134003430020890061180B6030BD4A
S1131F0044350000054B8000C35889001031C918BE
S1131F10034B1943086880B27047C046443500003B
S1131F2000007810084B8000C3580020032A09D110
S1131F30890059189C235B051943086801384342FA
S1131F405841C0B27047C04644350000F7B5FF247D
S1131F5003681C4A1D0A25401C40AB009F581A4ABE
S1131F60061C9B58281C0193FFF752FE211C0022DB
S1131F70381C00F05BFE019BA4001C1984233279F9
S1131F805B05234352001A60802372795B05234367
S1131F901A609023B2795B05234312011A60F37926
S1131FA00A4A14431A042260002B0AD0084B5A5DD3
S1131FB0002A06D01F23134001229A40131C054A0D
S1131FC01360F7BD70350000683500000000181874
S1131FD07835000000E100E0F8B5FF24051C036833
S1131FE0114A180A20401C4083009F580F4A9E58EB
S1131FF0FFF70EFE381C211C012200F017FE6A6850
S1132000381C211C00F022FE88232A7AA4003419EB
S11320105B05234392001A6098235B051C436B7A8B
S11320209B012360F8BDC046703500006835000090
S113203038B50C1C002802D1002C09D112E0036829
S11320400133F9D0051C0835FFF780FF281CF6E79B
S11320502368013306D0251C201C0C35FFF7BCFF78
S11320602C1CF5E738BD0000FF22030A1340024090
S11320700120904002499B005B5858607047C0465D
S113208070350000FF22030A1340024001209040F3
S113209002499B005B5898607047C0467035000049
S11320A008B5084B8200D3589422023352051343D7
S11320B01B78002B02D000F073F801E000F0C8F8A0
S11320C008BDC0464C350000031C80220C33520569
S11320D013431B78002BF7D001717047104A83001B
S11320E010B598580F4A9C58E37C002B05D0237CEC
S11320F0052B02D0237C042B09D19822831C520582
S1132100134300221A7000F0B7FD01236374A37C0B
S1132110002B03D0201C1830FFF787FB10BDC046EE
S11321204C3500007C020020F7B5194B8700FB58A2
S113213001250093174BFE58002E26D10C1C242297
S11321400190081C311C00F0A6FE201C311C183024
S1132150FFF764FB0198FFF772FD009800F07EFD25
S11321600C4B019AFC500C4B9A5C1F2313402A1C05
S11321709A40131C094A13609C22009B52050233A7
S1132180134380226574351C1A70281CFEBDC0469A
S11321904C3500007C0200204935000000E100E0DD
S11321A0842138B5244B8200D5584905EB1C0B43D8
S11321B002211970214BD45890226B1852051A43EE
S11321C01278E978D2B2890634D5942149051943A5
S11321D0097800292ED0012A15D1EB78134202D0B8
S11321E0052323740CE0E368013BE360002B07D074
S11321F0A368281C5A1CA2605978FFF765FF19E0F0
S1132200FFF76CFF16E06268013A6260002A06D0AC
S11322108C214905012A05D10B43082204E0FFF76C
S11322205DFF02E000220B431A7023685A1C2260EF
S11322302A791A7038BDC0464C3500007C02002053
S1132240842303305B0518430223037070470000A6
S1132250902149050A1CF0B58F4B071C8000C55816
S113226089B0EB1C0493EB78EE78DBB20593F3B200
S11322700693AB1D1A43944612789826D2B207925D
S1132280942252051A4314787605621E9441E2B2F0
S1132290824C33430459A81C0090084301921A78D5
S11322A00178D2B2C9B203910199029000292FD0CA
S11322B0079900290CD010236246281C1370FFF7DD
S11322C0BFFF236BF8B20121002B00D0DCE0E0E07B
S11322D0002A1DD04022281C1A70FFF7B1FF231CCE
S11322E02C331B78002B02D1009A16433370236BD6
S11322F0002B03D0F8B28021626B9847E37D002B5A
S113230004D0201C80211830FFF79FFA0A23BFE075
S1132310069B281C9E1101231E40FFF791FF0122FA
S1132320059B1B11134219D09023049A5B05134398
S113233010221A70002E04D0EB785B07DB0F10D14B
S11323401AE0082323702C342278002A00D0A0E05D
S1132350982300995B050B431A709AE0002E16D05F
S1132360EAE71023029A1370236B002B6ED0F8B2A5
S11323700221626B984769E0029A1370236B002B69
S113238003D0F8B20421626B98472B7981E0039B58
S1132390012B29D1EB78039A134257D0029B1E706C
S11323A02B79231C2C331B78002B09D1019B002B88
S11323B006D19823009A5B0513436A4612791A7072
S11323C0236B002B03D0F8B20821626B9847A37DDE
S11323D0002B04D0201C08211830FFF736FA002304
S11323E06360E360237554E02B79A268DBB2002AB2
S11323F02AD022691370236901332361A368013B46
S1132400A360A368002B44D1019B002B13D1231C90
S11324102C331B78002B06D19823009A5B051343B9
S11324206A4612791A70E37D002B04D0201C202107
S11324301830FFF70AFA002363752361236BF8B29F
S11324402021002B20D124E0072321E06368002B06
S11324501DD0E3681A782B1C80210C3349050B43EB
S11324601B78002BF7D02A71E3680133E3606368BB
S1132470013B63606368002B0BD1E3602375236B1E
S1132480002B06D01021F8B2626B984701E00623B6
S1132490237009B0F0BDC0464C3500007C0200201A
S11324A08421154B8200D35849051943096870B536
S11324B0C9B2052001291ED01049114C50580C33C3
S11324C0466800200F4D23431860AE4208D81868B0
S11324D0535884B259680C48FEF74CF860430AE03C
S11324E01C68535808495868FEF744F8A4B2011C04
S11324F0201CFEF73FF870BD50350000800200201C
S1132500000078103F420F0040420F009C2208B5A3
S1132510094B8000C3585205134380221A60074BAD
S1132520C258002A06D0C2581268002A02D0C358E2
S11325301B68984708BDC046503500008002002043
S113254084235B0503431A7800239A4209D080232D
S113255001305B0518430378012B01D0024B00E0E6
S1132560024B181C7047C04680841E0000127A007B
S113257010B50D4A831D13431B78DBB2002B10D01A
S1132580012B08D1041CFFF7DBFF084B08341C4364
S11325902378D84006E00020022B03D1044B1868AE
S11325A000E0044810BDC04600000811000090106F
S11325B084020020006CDC020B4A831D13431B7849
S11325C0DBB2012B06D0181E0CD00320022B09D03D
S11325D0052007E0802301305B051843007843425F
S11325E0584101307047C04600000811021C031C0A
S11325F09C20183340050343802018700020064BAC
S1132600134318700548931D03431B78D8B2002860
S1132610F8D1034B0B607047000008130000081149
S1132620006CDC02F8B5041C0D1C171C1E1CFFF703
S1132630C3FF012802D1002D04D007E0022805D1F0
S1132640012D03D1201C311CFFF7D0FF8022631C15
S1132650520513431D70842302225B0523431A7021
S1132660231C0C4A083313437A00D2B21A70402256
S1132670094B23431A70094AA31D13431B78012BEA
S1132680F9D1002D01D1064A00E0064A3A41002062
S11326903260F8BD0000901000000813000008111B
S11326A080841E0000127A000A4B10B51C681A1CA4
S11326B00123002C0CD08024074B03431C70074CCF
S11326C0831D23431B78022BF9D113680B6000236D
S11326D0181C10BD8402002000000813000008111B
S11326E09C23C9015B051843C9B201707047942348
S11326F049015B051843C9B201707047084B1A6859
S113270080231B029A4209D1A02310305B05184391
S11327100368002B02D10133FF3303607047C046C6
S113272084020020021C802110B5002301244905E5
S113273010320A431460136090224360520504600F
S11327401C30024313608822520502431360842222
S11327505205024308431360036010BD114B82000D
S113276070B5D5588022104B92051A60041C281CA1
S1132770FFF7D8FF281CFFF7C1FF01201F22011C0F
S11327800A4B0B4E1B5D345D134099402240C0251B
S11327900B1C904007496D004B5148510B60086079
S11327A070BDC046583500003C80845E553500003D
S11327B05435000000E100E08822044B8000C35837
S11327C052051C33134389001960704758350000C3
S11327D08822054B8000C3585205143313431868EC
S11327E0431E9841C0B27047583500006B46E02242
S11327F01B78D2021B04134009071943014BC0186C
S1132800016070474410000008B5084B8200D3589B
S113281090220333520513431B78002B02D000F09F
S1132820F1F801E000F056F908BDC046603500003B
S113283008B50C4B8000C2580B4B0021C3589C2098
S1132840033340051843117101709420400503437C
S11328501970137F8B4203D02032101CFEF7E5FF62
S113286008BDC0468802002060350000F7B5061C8C
S11328701C4B30220C1C8700081C0021FD5800F062
S11328800AFB301CFFF7D6F9FFF7B2F92060281CC9
S113289000F00FFA201C00212030FEF7BFFFEB1CD4
S11328A001939023019A5B0513431022281C1A708C
S11328B0032100F03EFA281C002100F060FA0A4BC4
S11328C0FC500A4B9A5D1F23134001229A40131CAB
S11328D0074A13609823019A5B05134340221A7038
S11328E0F7BDC04660350000880200205C3500005A
S11328F000E100E00A4B800070B5C658094B0C1C7F
S1132900C358151C301C1A68096800F0D9F92860EE
S11329102179301C6279A37900F01EFA70BDC0469B
S11329206035000088020020F7B51E4A83009C58D9
S11329301D4A9E5822790423002A31D1071C0029FC
S113294002D001AAFFF7D6FF982300214020F21CF1
S11329505B0513431970187025698D4203D1381C27
S1132960FFF766FF1BE00123237194235B053343C8
S1132970A16119780723002912D0A368191E02D077
S113298019780133A360B1712369013B2361A36901
S11329900133A3619C235B051A4380231370002336
S11329A0181CFEBD8802002060350000F8B5134FE6
S11329B0134C85002C59ED590127069E2777A260F8
S11329C02661E3606661FFF7AFFF061E14D1201C89
S11329D007992030FEF76AFF0328F8D000280BD0AF
S11329E09C210022EB1C4905194322710A70942191
S11329F0032649050B431A70301CF8BD60350000EE
S1132A008802002010B51E4B8200D3581D4951582E
S1132A101A79002A32D05A69002A11D09C22520510
S1132A200A431278002A0BD08A79DC68D2B2002CCF
S1132A3003D02270DA680132DA605A69013A5A61C5
S1132A401A69002A12D0942252050A431278002AE5
S1132A500CD09A68141E02D0147801329A608C71DA
S1132A601A69013A1A619A6901329A611A69002A4B
S1132A7004D15B69002B01D1FFF7DAFE10BDC0461B
S1132A808802002060350000104A8000815800222E
S1132A9008B50F4B0331C358581CC2779C2040051E
S1132AA00843DA621A701A835A629A621A630270CD
S1132AB09420400501430A701A1C38321278002A07
S1132AC003D0181D0121FEF7C0FE08BD60350000CB
S1132AD08802002038B5254B8200D3582449525827
S1132AE0591CC97F00293FD0D96A002916DB9421DB
S1132AF0490511430978002910D0596A1C7F00291F
S1132B0005D0DD6A002D02DD0C7801315962947123
S1132B10D96A0139D962596B01315963D96A0029DB
S1132B2005DA9424D11C6405214300240C70196B2C
S1132B30002911DD9C2149051143097800290BD096
S1132B409279996AD2B2002903D00A709A6A013242
S1132B509A621A6B013A1A63DA6A002A04DC1B6B64
S1132B60002B01DCFFF790FF38BDC046880200202F
S1132B706035000000238360C3608361C361036226
S1132B804362704700B5031C03291BD89022081C1C
S1132B908C212033520549051A43FDF7E1FC020755
S1132BA00C0E00200B43106018600BE010200B4348
S1132BB01060002205E0002000E0102010600822D0
S1132BC00B431A6000BD0000031C021C10B513491E
S1132BD0134C4C3348320B4322431B681268114C8C
S1132BE0D218031C443323431B688224D218031CC9
S1132BF06405403323431B680B4CD218031C3C333D
S1132C0023431B6838300843D2180368D018802344
S1132C1080B21B024008184310BDC04600002810B3
S1132C2000003010000038100000481014308023D9
S1132C30012A04D18A401B051843026005E0DB0425
S1132C40184301238B40D9430160704701238B4013
S1132C50002A01D0436000E0836070470023C22251
S1132C60037043708370C37043718371C3710372C3
S1132C7042728372C37270479422831C52051A43B2
S1132C801278011C0220012A12D18022D20413439B
S1132C90CF221A708022D2002023C878034004D0A7
S1132CA0013A002A03D0C046F6E7181C00E00920C8
S1132CB070470423C370002383704370037170470B
S1132CC0F0B5130B89B001250493082300266D4247
S1132CD003935B190790059106920293022700243F
S1132CE0731C191C069879430193FDF743FC059B5B
S1132CF0834206D31B1A9D4203D91D1C04900394DE
S1132D00029601347F00092C02D0002DE8D104E0A2
S1132D10072E02D0019E002DE0D17022029B049860
S1132D201B011340039A1343079ADBB2537009B093
S1132D30F0BD8422C31C52051A4301230B405B00DF
S1132D40DBB2137090238907C90F5B0502300901B8
S1132D501843C9B20170704710B58C240330640560
S1132D60C9000443C9B22170882192004905014376
S1132D70D2B20A70802252051043037010BD802322
S1132D80012202305B0503430A401A708C23890731
S1132D90C90F5B05C9001843C9B201707047011C13
S1132DA0002008B5021C031C00F03EF908BD000019
S1132DB0014B18687047C04690FFFF1F084B10B5C1
S1132DC0041C002B02D0002100F08AF9054B18687E
S1132DD0836A002B00D09847201C00F0F5F9C04608
S1132DE0E13000007C35000038B5074B074C1D1C52
S1132DF0E41AA410002C04D0013CA300EB5898471B
S1132E00F8E700F0C3FB38BDA4350000A835000086
S1132E100E4B70B500251E1C0D4CE41AA410A542DF
S1132E2004D0AB00F35898470135F8E700F0A8FB4D
S1132E30084B00251E1C084CE41AA410A54204D01B
S1132E40AB00F35898470135F8E770BDA035000092
S1132E50A0350000A0350000A435000008B5034BE0
S1132E60011C186800F066F808BDC04690FFFF1FFB
S1132E7008B5034B011C186800F016F808BDC046DD
S1132E8090FFFF1F002310B5934203D0CC5CC454C1
S1132E900133F9E710BD031C8218934202D0197064
S1132EA00133FAE77047000030B500293ED00439F9
S1132EB00B68002B00DAC9181D4A1368141C002B78
S1132EC002D14B60116031E099420DD208680A18B2
S1132ED09A4203D11368C3180B6053684B60216096
S1132EE024E08A4203D8131C5A68002AF9D11D68C9
S1132EF05C198C420BD10968691858181960904202
S1132F0014D110685268091819605A600EE08C4296
S1132F1002D90C23036009E008680C18944203D119
S1132F2014685268001908604A60596030BDC04690
S1132F3090020020032370B5CC1C9C430834051C6C
S1132F400C2C01D20C2405E0002C03DA0C23002005
S1132F502B6042E08C42F9D3204A1368101C191CE0
S1132F60002913D00A68121B0DD40B2A02D90A6057
S1132F708B181FE08B4202D15A6802601BE04A683A
S1132F805A600B1C17E00B1C4968E9E7144E3368C0
S1132F90002B03D1281C00F025F83060281C211CCC
S1132FA000F020F8031C421CD0D00322C61C964318
S1132FB086420AD11C60181C07210B301A1D884355
S1132FC0821A0AD05142995007E0311A281C00F0A5
S1132FD009F8431CBAD0331CECE770BD9002002002
S1132FE08C02002038B50023064C051C081C236005
S1132FF0FDF742FC431C03D12368002B00D02B6057
S113300038BDC04624030020031C0A7801311A701D
S11330100133002AF9D170470023C25C0133002A2E
S1133020FBD1581E70470000F7B52A4D061C2C68CA
S11330300091171C0193002C01D1274C2C6063686C
S11330401F2B15DD254B002B02D10120404240E00F
S11330508C20FFF703FF041EF7D02A6800230260C8
S1133060021C88324360286013609E420AD128E023
S1133070002E26D0231C88331868002810D1174B43
S1133080002BE2D084204000FFF7E8FE0028DCD0CB
S1133090031C0022FC335A609A60231C8833186096
S11330A0012261688A408B00C31880C3FC304168E8
S11330B0114341600199D967022E02D183681A43F2
S11330C08260002063685A1C62600233009A9B008D
S11330D01A51FEBD20030020940200205D2E000042
S11330E0F0B587B005900391344D2C68002C63D063
S11330F0231C88331E6863685A1E0192304A9B1849
S11331009B00F7180433E3180293019B002B3DDB6B
S1133110039B002B07D0002E31D03B1C80331B684F
S1133120039A93422BD16268029B0199013A5B682E
S1133130914201D1616002E0002202994A60002BB1
S11331401DD062680492002E07D0012201998A40A2
S1133150311CFC314868104201D1984708E0896865
S1133160114203D105983968984701E038689847B7
S1133170049B62689342B7D12B68A342B4D1019BEC
S1133180043F013B0193029B043BBDE70D4B002B25
S113319012D062682368002A0BD1002B09D02B605F
S11331A0002E02D0301CFFF763FE201CFFF760FEE8
S11331B09BE7251C1C1C99E707B0F0BD20030020E9
S11331C0FFFFFF3F712E0000FEE7C0461B5B306D22
S11331D01B5B343B34336D1B5B313B33376D0D5319
S11331E0616E69747920436865636B204661696C1C
S11331F06564211B5B306D0A001B5B306D1B5B3407
S11332003B34316D1B5B313B33376D0D496E766159
S11332106C696420737570706C7920766F6C74615E
S11332206765205B25645D206D56211B5B306D0A4C
S1133230000A0A0A0D426F6F74696E672057617243
S1133240702C20696E20332E2E2E2000322E2E2E2E
S11332502000312E2E2E0A0D00730A0A00000000F1
S113326000000000005F00000004030403000028C5
S11332707E143F0A00242A7F2A1200231308646262
S113328000304E5926500000000201000000001CCE
S113329022410041221C00000022140814220008CC
S11332A0083E08080050300000000008080808081C
S11332B0006060000000002010080402003E514934
S11332C0453E0000427F40000062514949460022C9
S11332D041494936001814127F10002F45454539DD
S11332E0003E494949320001611905030036494944
S11332F0493600264949493E0000363600000000A0
S1133300563600000000081422410014141414144A
S1133310004122140800000201590906003E415DE3
S1133320552E00601C131C60007F49494936003E3D
S113333041414122007F4141221C007F49494941CA
S1133340007F09090901001C2241493A007F08084D
S1133350087F0000417F410000204040403F007F43
S113336008142241007F40404000007F0418047F7D
S1133370007F0408107F003E4141413E007F09095F
S11333800906003E4151215E007F091929460026A5
S1133390494949320001017F0101003F4040403F5B
S11333A000031C601C03000F700F700F00413608EF
S11333B0364100010678020100615149454300008D
S11333C0007F41410015167C16110041417F000029
S11333D000000201020000404040404000000102A1
S11333E0000000002054547800007F44443800005A
S11333F03844442800003844447F000038545418AA
S11334000000043E050100000854543C00007F0401
S113341004780000007D0000000040403D000000F2
S11334207F1028440000017F0000007C047C0478A5
S113343000007C04047800003844443800007C1404
S1133440140800000814147C00007C080404000024
S1133450485454240000043E444000003C40407C56
S113346000007C20100C001C601C601C00006C1010
S1133470106C00004C50301C00004464544C00009C
S1133480083641410000007F000000414136080039
S1133490000804081008000000000000000D785F18
S11334A06163633D20256420795F6163633D20256A
S11334B064207A5F6163633D2025640A006163636D
S11334C02049535220656E74657265642120574803
S11334D06F6F210A00496E697469616C6973656470
S11334E00A00737461747573203D2025640A000D0D
S11334F06175746F726573203D2025640A00696EDE
S11335006974206D696320726561636865640A008B
S11335100D666C6167203D2025640A005465726D58
S1133520696E616C0052545400534547474552003C
S113353030313233343536373839414243444546E5
S1133540898A000000B003400F08000000600640B4
S1133550000004401514000000D003400A000000DD
S113356000600740005006400090044000A0044062
S113357000F00F4040F00F401E1F430030FFFF1FBC
S1133580F8B5C046F8BC08BC9E467047F8B5C046BE
S10B3590F8BC08BC9E4670471C
S10B35982CCFFF7F01000000AD
S10735A08904000096
S10735A45D040000BE
S11335A80100000001000000B10800000300000051
S11335B80000000008FEFF1F0101000001010000D7
S11335C8FFFFFFFF000000000000000001000000F2
S11335D801000000010000000100000001000000DB
S11335E802000000010000000100000005000000C6
S11335F801000000010000000800000001000000B4
S1133608010000000C00000001000000010000009F
S1133618090000000100000001000000050100008D
S11336280100000001000000060100000100000084
S11336380100000007010000010000000100000073
S11336480A01000001000000010000000B01000055
S113365801000000010000000D010000010000004D
S11336680100000002010000010000000100000048
S11336780301000001000000010000000401000033
S11336880100000001000000060000000100000025
S11336980100000007000000010000000100000014
S11336A8090000000100000001000000FFFFFFFF07
S11336B800000000000000000101000000000000FC
S11336C800010000000000000000010000010000EB
S11336D800000000000000000000000000000000DE
S11336E800000000000000000000000000000000CE
S11336F87A3500000000000000000000000000000F
S113370800000000000000000000000000000000AD
S1133718000000000000000000000000000000009D
S1133728000000000000000000000000000000008D
S10B373830FFFF1F0000000038
S9030531C6
