S02B00002F686F6D652F646979612F4465736B746F702F6261646D696E746F6E5F73686F745F6465746563743D
S113000000060020310500005905000059050000D4
S113001000000000000000000000000000000000DC
S1130020000000000000000000000000590500006E
S11300300000000000000000590500005905000000
S11300405905000059050000590500005905000034
S11300505905000059050000590500005905000024
S11300606D100000590500007710000059050000CC
S11300705905000059050000590500005905000004
S113008059050000590500005905000059050000F4
S113009059050000590500005905000059050000E4
S11300A059050000590500005905000059050000D4
S11300B059050000590500005905000059050000C4
S1130400FFFFFFFFFFFFFFFFFFFFFFFFFE3DFFFFBB
S113041008B5054B054803331B1A062B03D9044BB7
S1130420002B00D0984708BD6CFEFF1F6CFEFF1F19
S1130430000000000648074908B5091A8910CB0FC7
S11304405918491003D0044B002B00D0984708BD1D
S11304506CFEFF1F6CFEFF1F0000000010B5074C70
S11304602378002B09D1FFF7D3FF054B002B02D0D3
S1130470044800E000BF0123237010BD6CFEFF1F81
S1130480000000000027000008B5094B002B03D032
S11304900848094900E000BF08480368002B02D15E
S11304A0FFF7C8FF08BD064B002BF9D09847F7E7C4
S11304B0000000000027000070FEFF1F68FEFF1F01
S11304C000000000144B002B00D1124B9D4640222B
S11304D092029A1A924600218B460F461148124AFC
S11304E0121A01F0AAFE0D4B002B00D098470C4BBA
S11304F0002B00D098470020002104000D000B4879
S113050001F01FFE01F056FE2000290000F0DCF986
S113051001F026FE00000800000600200000000094
S1130520000000006CFEFF1F840100208D210000EC
S113053072B606480649074A02600A6000F0A0FD48
S113054000F0E0FD62B6FFF7BDFF000080E100E0CF
S113055080E200E0FFFFFFFF00480047590500006C
S1130560002243088B4274D303098B425FD3030AEE
S11305708B4244D3030B8B4228D3030C8B420DD301
S1130580FF22090212BA030C8B4202D3121209028F
S113059065D0030B8B4219D300E0090AC30B8B42CD
S11305A001D3CB03C01A5241830B8B4201D38B037B
S11305B0C01A5241430B8B4201D34B03C01A524120
S11305C0030B8B4201D30B03C01A5241C30A8B4263
S11305D001D3CB02C01A5241830A8B4201D38B024E
S11305E0C01A5241430A8B4201D34B02C01A5241F2
S11305F0030A8B4201D30B02C01A5241CDD2C30964
S11306008B4201D3CB01C01A524183098B4201D3DF
S11306108B01C01A524143098B4201D34B01C01ACA
S1130620524103098B4201D30B01C01A5241C30842
S11306308B4201D3CB00C01A524183088B4201D3B1
S11306408B00C01A524143088B4201D34B00C01A9D
S11306505241411A00D20146524110467047FFE709
S113066001B5002000F0FCF802BDC0460029F7D017
S113067003B5FFF775FF0EBC4243891A1847C046FD
S113068003460B437FD4002243088B4274D30309EF
S11306908B425FD3030A8B4244D3030B8B4228D390
S11306A0030C8B420DD3FF22090212BA030C8B42B6
S11306B002D31212090265D0030B8B4219D300E056
S11306C0090AC30B8B4201D3CB03C01A5241830BDB
S11306D08B4201D38B03C01A5241430B8B4201D38B
S11306E04B03C01A5241030B8B4201D30B03C01AB4
S11306F05241C30A8B4201D3CB02C01A5241830A2E
S11307008B4201D38B02C01A5241430A8B4201D35C
S11307104B02C01A5241030A8B4201D30B02C01A86
S11307205241CDD2C3098B4201D3CB01C01A5241ED
S113073083098B4201D38B01C01A524143098B4276
S113074001D34B01C01A524103098B4201D30B015F
S1130750C01A5241C3088B4201D3CB00C01A524184
S113076083088B4201D38B00C01A524143088B4249
S113077001D34B00C01A5241411A00D201465241E2
S1130780104670475DE0CA0F00D04942031000D301
S11307904042534000229C4603098B422DD3030A56
S11307A08B4212D3FC22890112BA030A8B420CD366
S11307B0890192118B4208D3890192118B4204D38F
S11307C089013AD0921100E08909C3098B4201D30F
S11307D0CB01C01A524183098B4201D38B01C01A49
S11307E0524143098B4201D34B01C01A52410309C0
S11307F08B4201D30B01C01A5241C3088B4201D36F
S1130800CB00C01A524183088B4201D38B00C01A1B
S11308105241D9D243088B4201D34B00C01A5241F2
S1130820411A00D20146634652415B10104601D37F
S11308304042002B00D54942704763465B1000D309
S1130840404201B5002000F00BF802BD0029F8D0A9
S113085003B5FFF715FF0EBC4243891A1847C0467B
S11308607047C04608B50A4B1A68002A01D1094AE4
S11308701A601A6808491018884206D901F06AFCFF
S11308800C2303600120404201E01860101C08BDE5
S113089088FEFF1F880100208D01002008B500207C
S11308A000F066FD8023054A9B001360044A002083
S11308B01360044900F092FF08BDC0460CA0145414
S11308C010A0145498FEFF1F10B5FA2400F0EEFC9B
S11308D064001A49002000F0F3F9201C00F0D4FC55
S11308E01749002000F0ECF9201C00F0CDFC15495C
S11308F0002000F0E5F9201C00F0C6FC1D20124980
S113090000F02CF84920114900F02EF84920104934
S113091000F030F840200F4900F032F80E4968200A
S113092000F030F80520FFF7B9FF00F06BF800F095
S113093069F800F0CDF8002010BDC0467025000015
S11309408B25000091250000C8FEFF1F8CFEFF1FB1
S1130950E0FEFF1FBCFEFF1FD4FEFF1FC223FF33B8
S113096008704B6070470000014B08704B60704783
S113097001003F00014B08704B6070470100C00F3D
S113098008707047E0235B0008704B6070470000FC
S11309906B22F0B500248BB006AB1A70174A08AD71
S11309A0127805AF2A80164A5C701268387000937A
S11309B002230193F333FF3309920293291C221C6F
S11309C0231C201C01F044F807AB0093FA230126F2
S11309D05B0002930196331C201C291C3A1C01F075
S11309E044F8031EA34204D0201C211C321C00F036
S11309F031FB079BD8B20BB0F0BDC046D4FEFF1F3D
S1130A0000FEFF1FF0B53B2085B0FFF7C1FF071CB8
S1130A103C20FFF7BDFF051C3D20FFF7B9FF061C76
S1130A203E20FFF7B5FF041C3F20FFF7B1FF029003
S1130A304020FFF7ADFF03906B20FFF7A9FF029959
S1130A40039809023A023302014315431C4389B255
S1130A500091AAB2A3B20349002000F0FBFA05B04A
S1130A60F0BDC04698250000F0B589B06946061C63
S1130A7000F098FC6B4615495A88002000F0EAFA09
S1130A8001A9301C02AC00F08DFC01A9301C00F05F
S1130A90E3FC201C00F002FD002501270323211C98
S1130AA0301C23712570E570E571677200F008FD54
S1130AB0092305AA301C291C53605772157217703C
S1130AC000F072FD281C09B0F0BDC046B825000036
S1130AD010B51049002000F0BDFA0020FFF7C4FF54
S1130AE0041C00200921021C00F092FD0A49021C8A
S1130AF0002000F0AFFA0020011C00F079FD074946
S1130B00021C231C002000F0A5FA322000F0BCFBDC
S1130B10F1E7C046C7250000D9250000E5250000FF
S1130B200269C3689A4203D880681018013800E04B
S1130B30501EC01A7047F7B58368C668051C406824
S1130B400191141C9F1B8019974203D901F06CFB7F
S1130B50A4190AE001993A1C01F066FB019BE41B0D
S1130B60D9196868221C01F05FFBEC60F7BD002313
S1130B70F7B5061C171CC568019100933369B46866
S1130B80AB4200D81B19013B5B1B641BBC4200D960
S1130B903C1C9C4200D91C1C7368221C58190199E6
S1130BA001F042FB009B2D191B190093019B3F1B75
S1130BB01B190193B368EB1A5A1E93415B421D4003
S1130BC0F560002FDAD10098FEBD0000022310B5B5
S1130BD0104C114A23616361104BA261E3618023CD
S1130BE0A2640F4A5B002362E26400231022A36222
S1130BF06362E362A3656365E3652265E01D0949F9
S1130C0001F0D4FB201C084901F0D0FB2023A37180
S1130C1010BDC046FCFFFF1FFB250000FCFEFF1FAC
S1130C20ECFEFF1F0426000008260000F8B5182378
S1130C30451C5D434343141C134A0E1CD018C76A59
S1130C405519012F0FD0002F07D0022F17D1221CC6
S1130C50281CFFF78CFF041C14E0281CFFF760FF1E
S1130C60A0420ED305E0281CFFF75AFF844200D9A6
S1130C70041C281C311C221CFFF75DFF02E0002429
S1130C8000E03C1C201CF8BDFCFFFF1FF8B50B4B1B
S1130C90071C1B780E1C151C002B01D1FFF796FFB7
S1130CA0EFF31084012181F31088381C311C2A1CB5
S1130CB0FFF7BCFF84F31088F8BDC046FCFFFF1F9C
S1130CC038B5051C081C0C1C01F078FB211C021C07
S1130CD0281CFFF7DBFF38BD826810B5041C406890
S1130CE0531C834205D820688154A360E368013310
S1130CF0E360A26863689A420CD120692168FFF717
S1130D00C5FFA368984203D001235B42E36001E07E
S1130D100023A36010BD0000F0B5051C1F1C081CB7
S1130D20012685B00A9C00910192019B984204D34C
S1130D300199FFF715FC0136F7E70296BE4200D28F
S1130D40029701230B9A1A40039218D1002C01D167
S1130D50002414E00B9B20269B070DD5002F0BD1FC
S1130D60103609E0281C311CFFF7B6FFEB68013C84
S1130D70002B04DB002CEBD0029BA342F2D3EB68E4
S1130D80002B35DB0126012F01D9013F06E0009835
S1130D90311CFFF7E5FB019B984208D3019B5E439E
S1130DA0F1E7301C0199FFF7DBFB061E10D0009819
S1130DB0311CFFF7D5FB331C4343009AD31A00932D
S1130DC00C4B195C281CFFF787FFEB68002BE8DA53
S1130DD0039B002B0CD0002C0AD0029BA34207D209
S1130DE0281C2021FFF778FFEB68013C002BF2DA86
S1130DF005B0F0BD0F260000F0B59FB00EAB09930F
S1130E0040230A930023161C06900B930D900C9319
S1130E100B784C1C002B04D10C9B0393002B22DC7D
S1130E2015E1252B16D1002502314F1E3B782B2BC3
S1130E300CD003D8232B27D1082308E02D2B03D073
S1130E40302B21D1022302E0012300E004231D43BF
S1130E500131EAE7191C09A8FFF73EFF211C0C9B8E
S1130E60002BD5DAD8E70B9A002A03D006980EA9EE
S1130E70FFF70CFF0C9B03930B9B0493049A039BB7
S1130E80944663440C93E2E000243A78131C303B0C
S1130E90092B05D80A235C43303C0137A418F4E736
S1130EA0002303932E2A0DD101373A78131C303BCB
S1130EB0092B07D80A23039901374B43303B9B186E
S1130EC00393F2E7397804230A1C9A43682A01D170
S1130ED00137F7E7642926D008D8582900D195E0CE
S1130EE063291AD0252900D0AFE0ABE0732900D1E3
S1130EF095E00DD8702900D0A7E032680021131DB9
S1130F003360082301910093116809A8102296E028
S1130F10752971D0782979D097E0336819681A1D3A
S1130F203260C9B28EE033681A1D1B683260DA176A
S1130F3098180493012350400593092805DD0A21DC
S1130F40FFF79EFB059B0133F6E7059B039A93424B
S1130F5000D20592002C05D0049B002B01DB6B070B
S1130F6000D5013CAB0702D5039B002B10D0EB0747
S1130F700ED4002C01D100240AE0059BA34207D221
S1130F8009A82021FFF7A8FE0C9B013C002BF0DAF6
S1130F900C9B0793002B58DB049B002B04DA5B4269
S1130FA0049309A82D2103E06B0703D52B2109A87D
S1130FB0FFF792FE0C9B002B47DB03232B40022BF5
S1130FC011D1039B002B0ED1002C01D100240AE087
S1130FD0059BA34207D209A83021FFF77DFE0C9B95
S1130FE0013C002BF0DA0C9B0593002B2DDB0094C5
S1130FF0019509A8049906E03368009401951A1D27
S11310001968326009A80A22039B18E03368009427
S11310101A1D0195326009A819681022F4E7336893
S11310201A1D32601C682178013400290DD009A8EA
S1131030FFF752FE0C9B0393002BF4DA05E0FFF755
S11310406BFE02E009A8FFF747FE791C07E70C983E
S11310501FB0F0BD0EB403B503AB02CB01AA0193DC
S1131060FFF7CAFE02B008BC03B0184708B5002059
S113107000F0E2FA08BD08B5002000F0BFFE08BD8C
S1131080082110B5164B9A780A4202D09A780A437E
S11310909A70882200212220124B52019950124A40
S11310A010708020114A400298501868104A02407B
S11310B010481A601C58104A2240C024A404224339
S11310C01A5080220D4B19721A767F3A19705A7091
S11310D00B4A11700C2299791142FBD110BDC04604
S11310E000D007400070044000E0074044100000B6
S11310F0FFFFF3FF04100000FFFFFFF00040064075
S113110000500640154B164810B5191E81420CD0EC
S11311100022144B9B089B009A4203D084588C50A5
S11311200432F9E7104B996001E00F4A9360002301
S11311300E4A0F49891A8B4204D0D45C0D48C4541A
S11311400133F8E700230C4A0C49891A8B4204D076
S11311500024D01804700133F8E710BD000000002B
S1131160000000000000000000ED00E0282700005F
S11311709427000000FEFF1F6CFEFF1F8401002067
S113118000234170436003708360181C704710B5DE
S11311904378041C0120FF2B08D000F0FBF863788F
S11311A00133DBB2637000F0E9F8002010BD38B5FC
S11311B0041C0D1C00F0EEF8E1682943E16000F026
S11311C0DDF8002038BD000000220A4B9A641A1C86
S11311D040329A631A1C30329A621A1C20329A6185
S11311E01A1C10329A60044A1360044B9B60DB6043
S11311F07047C0468800002084000020740000204E
S11312000022024B1A60186880B270470C007C50B0
S113121038B54378041C0D1C002B0BD0002500F0BE
S1131220B9F86378013BDBB26370257000F0A6F86F
S1131230281C28E00220002925D02378002B15D073
S1131240FFF7DEFF6368A268984201D3C01A03E087
S1131250C01A80235B02C018824213D200F09AF8AD
S11312600023237000F08AF802200CE04B1C09D004
S113127000F090F80123237000F080F8FFF7C0FF1E
S1131280A5606060032038BD38B5051CFFF7B8FFC2
S1131290041CFFF7B5FFA04201D3001B03E0802329
S11312A0001B5B02C0188542F3D238BD10B5FFF7AE
S11312B08BFF01230020084A08491360084A094C9F
S11312C01060086004212160074C216007490B600D
S11312D007490860136010BD388004500000845032
S11312E000000450000004510400045104000C5098
S11312F0000004531F22802302405B05D2051A43D9
S1131300044943099B005B181A431068431E984123
S1131310C0B27047288004401F2280210240D305B8
S113132049051943430904489B001B181943012329
S1131330081C9340036070472880044008B50548A2
S113134000F038FD044B1968C9B20131FFF708F900
S113135008BDC046004006404480145808B5BB2070
S1131360FFF7DAFF08BD08B5BB20FFF7C3FF08BDD0
S113137008B56620FFF7D0FF08BD0000044A1368D3
S1131380002B04D0013B1360002B00D162B67047E0
S1131390D800002072B6024A136801331360704704
S11313A0D8000020F8B5284B8200D4580123002926
S11313B048D00F1C051CFFF7D6FF002802D1281CBB
S11313C0FFF7CCFF221C8823042124325B0513433E
S11313D019601E4B0320191C11430860211C1D1C9D
S11313E0002008310D432860194D294360250D6004
S11313F0211C20310B43186098239C255B0519435D
S113140080236D05154308602B609C235B052343F3
S11314101B68012B07D098235B0513431B68012B22
S1131420F3D102230EE0231C0A4E283333431B68F6
S1131430201C10343B80344300F0D2FD2368002389
S113144078802B60181CF8BD2026000000000810CE
S113145000008812000078100E4B820070B5061C44
S1131460D4580120002913D0301C0D1CFFF77BFF3A
S1131470002802D1301CFFF771FF231C0020064A0C
S113148029882833134319602C346B881443236050
S113149070BDC046202600000000781001230028FB
S11314A00CD0032200238270023A03704370C2708E
S11314B0037143718371C37103724372181C7047C3
S11314C0F8B5324B8200D558012300295CD00C1C9E
S11314D0061CFFF743FF281C00F07AFD62782B1CE2
S11314E09C21501E82418C20083349051943D201A6
S11314F00A60A178264A49011A431160E178254A15
S113150089001A431160244A400513439446227902
S1131510071C1A6063792A1C591E8B410C3217432D
S1131520DB003B6088235B051A43A3795F1EBB4144
S11315309B001360E3792A1C9827591E8B412032A3
S11315407F0517439B013B6063461A43237A243586
S11315501360637A05435A1E9341DB002B602378A2
S11315600E491F22002B08D08B5D1A4001239340A3
S11315701A1C0B4B1A60002306E0895D0A40012106
S113158091400A1C0749CA67181CF8BD20260000B0
S11315900000881200000811000008102426000032
S11315A000E100E004E100E0104B800030B5C458D5
S11315B00120002A19D0201C90250C306D052843E9
S11315C005681378EDB2AB4203D05D1EAB411B013D
S11315D00360107A5368421E90411F228001134019
S11315E003430020890061180B6030BD20260000F1
S11315F0054B8000C35889001031C918034B1943A7
S1131600086880B27047C0462026000000007810A9
S1131610084B8000C3580020032A09D189005918B7
S11316209C235B0519430868013843425841C0B202
S11316307047C0462026000008B5084B8200D358E6
S113164094220233520513431B78002B02D000F07E
S113165019FA01E000F06EFA08BDC0462826000021
S1131660031C80220C33520513431B78002BF7D044
S11316700171704738B50D1C084B8000C458201CFC
S1131680291C1830FFF7C4FD0328F8D0002801D026
S113169004232374207CC0B238BDC046DC00002083
S11316A0F0B589B00290161C820037480593105893
S11316B00EAB019035481B781458002007AA1080FF
S11316C0A27C8F0A04920122E274A2745A4253410A
S11316D01E3FDBB203937B425F41FFB2CDB2874230
S11316E002D0CBB29C460D0A00216D00EDB28F42B0
S11316F004D1391C002E01D16B46197B0D4307AB75
S11317001D700122002F02D062465A700222A3608B
S1131710E2600198291CFFF7A3FF02980F99FFF7D5
S1131720A9FF237C002B0CD1002E0AD0059BA660B8
S1131730E36031780198FFF793FF02980F99FFF760
S113174099FF237C002B16D1039B002B13D0002F71
S113175001D1002E0FD000230127A3600198E76078
S113176000F0C0FC391C01982943FFF779FF029867
S11317700F99FFF77FFF0023E3746B46207C1B7CEB
S1131780C0B2A37409B0F0BD28260000DC0000201C
S1131790104A830010B598580F4A9C58E37C002BDC
S11317A005D0237C052B02D0237C042B09D198225D
S11317B0831C5205134300221A7000F0A5FC012378
S11317C06374A37C002B03D0201C1830FFF7DFFCCC
S11317D010BDC04628260000DC000020F7B5194BD8
S11317E08700FB5801250093174BFE58002E26D185
S11317F00C1C24220190081C311C00F01EFD201C2E
S1131800311C1830FFF7BCFC0198FFF7B1FD0098BC
S113181000F018FC0C4B019AFC500C4B9A5C1F23F3
S113182013402A1C9A40131C094A13609C22009BF3
S113183052050233134380226574351C1A70281C28
S1131840FEBDC04628260000DC000020252600003E
S113185000E100E00A4B800070B5C558094BC6583A
S11318604B68726993420AD00C1CFFF767FD002392
S1131870011C6268281C00F0F3FB6368736170BD8F
S113188028260000DC000020F0B587B00FAC334FF1
S1131890334D267884006559E459677C002F02D1C2
S11318A00320207458E0002E01D11E270E970593C3
S11318B00023A674E360A360237423606374071C8D
S11318C004920391FFF7C6FF90231021AA1C5B0525
S11318D0134319708421EB1C49050B430221197031
S11318E098235B05134302934023029A281C137028
S11318F000F0F8FB039B381C1988012300930E9B0E
S1131900049A0193059BFFF7CBFE0D9B002B15D08A
S1131910237C002B0FD10C9B281CA3600D9BE36040
S11319200C9B1978FFF79CFE002E13D0381C0E99DF
S1131930FFF7A0FE0EE0237C042B0BD1002301262D
S1131940029A1370EB785B09334202D0281C00F032
S1131950DBFB6674207CC0B207B0F0BDDC00002065
S113196028260000F0B58BB013AC2478364E374DE2
S1131970039484006559A459667C002E02D1032087
S113198020745FE0039E002E01D11E361296099347
S1131990109B00262360119BA66063606B461B7B33
S11319A0E660A37426746674079108920490FFF7A6
S11319B051FF9023AF1C5B053B4305931023059A0D
S11319C0281C13708422EB1C5205134302221A7044
S11319D098235B053B4306934023069A137000F05B
S11319E081FB079B089A1988129B0096019304981F
S11319F0099BFFF755FE227CD2B2B24212D1059B5D
S1131A0011991A708C235B053B43012900D10822EC
S1131A101A702B79039B002B12D004981299FFF7AC
S1131A2029FE0DE0237C042B0AD1069B1E7001269F
S1131A30EB785B09334202D0281C00F065FB667426
S1131A40207CC0B20BB0F0BDDC00002028260000D2
S1131A501FB5069C0094079C0194089C02940124E1
S1131A600394FFF711FF04B010BD1FB5069C00944A
S1131A70079C0194089C029401240394FFF772FFCD
S1131A8004B010BD842138B5244B8200D5584905D3
S1131A90EB1C0B4302211970214BD45890226B1874
S1131AA052051A431278E978D2B2890634D59421C2
S1131AB049051943097800292ED0012A15D1EB785C
S1131AC0134202D0052323740CE0E368013BE36076
S1131AD0002B07D0A368281C5A1CA2605978FFF772
S1131AE0BFFD19E0FFF754FE16E06268013A626038
S1131AF0002A06D08C214905012A05D10B4308226E
S1131B0004E0FFF745FE02E000220B431A7023684D
S1131B105A1C22602A791A7038BDC0462826000053
S1131B20DC000020842303305B0518430223037088
S1131B3070470000902149050A1CF0B58F4B071C23
S1131B408000C55889B0EB1C0493EB78EE78DBB2C7
S1131B500593F3B20693AB1D1A4394461278982664
S1131B60D2B20792942252051A4314787605621E63
S1131B709441E2B2824C33430459A81C00900843B8
S1131B8001921A780178D2B2C9B2039101990290F4
S1131B9000292FD0079900290CD010236246281C55
S1131BA01370FFF7BFFF236BF8B20121002B00D0A5
S1131BB0DCE0E0E0002A1DD04022281C1A70FFF768
S1131BC0B1FF231C2C331B78002B02D1009A16433F
S1131BD03370236B002B03D0F8B28021626B9847DB
S1131BE0E37D002B04D0201C80211830FFF7DFFA9E
S1131BF00A23BFE0069B281C9E1101231E40FFF709
S1131C0091FF0122059B1B11134219D09023049AC2
S1131C105B05134310221A70002E04D0EB785B0787
S1131C20DB0F10D11AE0082323702C342278002A09
S1131C3000D0A0E0982300995B050B431A709AE04A
S1131C40002E16D0EAE71023029A1370236B002BA0
S1131C506ED0F8B20221626B984769E0029A137061
S1131C60236B002B03D0F8B20421626B98472B79C5
S1131C7081E0039B012B29D1EB78039A134257D0BF
S1131C80029B1E702B79231C2C331B78002B09D14B
S1131C90019B002B06D19823009A5B0513436A46E7
S1131CA012791A70236B002B03D0F8B20821626BEF
S1131CB09847A37D002B04D0201C08211830FFF77F
S1131CC076FA00236360E360237554E02B79A268FD
S1131CD0DBB2002A2AD022691370236901332361FD
S1131CE0A368013BA360A368002B44D1019B002B94
S1131CF013D1231C2C331B78002B06D19823009A74
S1131D005B0513436A4612791A70E37D002B04D0F5
S1131D10201C20211830FFF74AFA00236375236141
S1131D20236BF8B22021002B20D124E0072321E0EB
S1131D306368002B1DD0E3681A782B1C80210C33B8
S1131D4049050B431B78002BF7D02A71E368013354
S1131D50E3606368013B63606368002B0BD1E3605D
S1131D602375236B002B06D01021F8B2626B9847C1
S1131D7001E00623237009B0F0BDC0462826000008
S1131D80DC00002084235B0503431A7800239A4275
S1131D9009D0802301305B0518430378012B01D05F
S1131DA0024B00E0024B181C7047C04680841E00A2
S1131DB000127A0010B50D4A831D13431B78DBB261
S1131DC0002B10D0012B08D1041CFFF7DBFF084BBC
S1131DD008341C432378D84006E00020022B03D1AA
S1131DE0044B186800E0044810BDC0460000081108
S1131DF000009010E0000020006CDC0208B5084BE5
S1131E008200D35890220333520513431B78002BCE
S1131E1002D000F025F801E000F08AF808BDC046C1
S1131E202C26000008B50C4B8000C2580B4B002137
S1131E30C3589C200333400518431171017094204A
S1131E40400503431970137F8B4203D02032101CCA
S1131E50FFF79DF908BDC046E40000202C260000D1
S1131E6010B51E4B8200D3581D4951581A79002AC7
S1131E7032D05A69002A11D09C2252050A431278A2
S1131E80002A0BD08A79DC68D2B2002C03D02270ED
S1131E90DA680132DA605A69013A5A611A69002A29
S1131EA012D0942252050A431278002A0CD09A6860
S1131EB0141E02D0147801329A608C711A69013AA6
S1131EC01A619A6901329A611A69002A04D15B691C
S1131ED0002B01D1FFF7A6FF10BDC046E40000208F
S1131EE02C260000104A80008158002208B50F4BB0
S1131EF00331C358581CC2779C2040050843DA625A
S1131F001A701A835A629A621A6302709420400506
S1131F1001430A701A1C38321278002A03D0181DA3
S1131F200121FFF744F908BD2C260000E40000203D
S1131F3038B5254B8200D35824495258591CC97FBF
S1131F4000293FD0D96A002916DB942149051143A1
S1131F500978002910D0596A1C7F002905D0DD6A50
S1131F60002D02DD0C78013159629471D96A01396E
S1131F70D962596B01315963D96A002905DA94246D
S1131F80D11C6405214300240C70196B002911DD58
S1131F909C2149051143097800290BD09279996A4B
S1131FA0D2B2002903D00A709A6A01329A621A6B7B
S1131FB0013A1A63DA6A002A04DC1B6B002B01DC89
S1131FC0FFF790FF38BDC046E40000202C26000037
S1131FD000238360C3608361C3610362436270470B
S1131FE0031C021C10B51349134C4C3348320B43E9
S1131FF022431B681268114CD218031C4433234338
S11320001B688224D218031C6405403323431B68D5
S11320100B4CD218031C3C3323431B683830084351
S1132020D2180368D018802380B21B0240081843DA
S113203010BDC04600002810000030100000381009
S1132040000048100023C222037043708370C370E1
S113205043718371C371037242728372C372704796
S1132060F0B5002789B00393FA2301253C1C9B009B
S113207053430690079102936D4201970123A340B5
S11320800493174B9E1CCA330593049B318807980D
S11320905943FEF765FA029B029AC31A824200D999
S11320A0131AAB4204D2B21E177801941D1E03D03A
S11320B0059B04369E42E8D10134032C01D0002D47
S11320C0DCD1039B002B00D01D603F231F40019BEC
S11320D09B011F43069BFFB25F7009B0F0BDC04671
S11320E030260000942302305B0503431B78002B49
S11320F004D088235B051843042303E080231B05D5
S113210018433023037070479422831C52051A43EA
S11321101278011C0220012A12D18022D204134316
S1132120CF221A708022D2002023C878034004D022
S1132130013A002A03D0C046F6E7181C00E0092043
S11321407047011C002008B5021C031C00F03EF976
S113215008BD0000014B18687047C04664FEFF1FAD
S1132160084B10B5041C002B02D0002100F08AF9A2
S1132170054B1868836A002B00D09847201C00F098
S1132180F5F9C04685240000FC26000038B5074B4D
S1132190074C1D1CE41AA410002C04D0013CA3001D
S11321A0EB589847F8E700F0B1FA38BD242700004F
S11321B0282700000E4B70B500251E1C0D4CE41A98
S11321C0A410A54204D0AB00F35898470135F8E7B2
S11321D000F096FA084B00251E1C084CE41AA410C3
S11321E0A54204D0AB00F35898470135F8E770BD19
S11321F020270000202700002027000024270000BB
S113220008B5034B011C186800F066F808BDC04609
S113221064FEFF1F08B5034B011C186800F016F894
S113222008BDC04664FEFF1F002310B5934203D0CF
S1132230CC5CC4540133F9E710BD031C82189342EB
S113224002D019700133FAE77047000030B5002955
S11322503ED004390B68002B00DAC9181D4A1368F4
S1132260141C002B02D14B60116031E099420DD255
S113227008680A189A4203D11368C3180B6053689C
S11322804B60216024E08A4203D8131C5A68002A58
S1132290F9D11D685C198C420BD10968691858186A
S11322A01960904214D110685268091819605A6074
S11322B00EE08C4202D90C23036009E008680C1874
S11322C0944203D114685268001908604A60596046
S11322D030BDC046EC000020032370B5CC1C9C43E9
S11322E00834051C0C2C01D20C2405E0002C03DA64
S11322F00C2300202B6042E08C42F9D3204A13685F
S1132300101C191C002913D00A68121B0DD40B2AA7
S113231002D90A608B181FE08B4202D15A6802600E
S11323201BE04A685A600B1C17E00B1C4968E9E77C
S1132330144E3368002B03D1281C00F025F83060BC
S1132340281C211C00F020F8031C421CD0D00322BE
S1132350C61C964386420AD11C60181C07210B3008
S11323601A1D8843821A0AD05142995007E0311A43
S1132370281C00F009F8431CBAD0331CECE770BDEC
S1132380EC000020E800002038B50023064C051CB2
S1132390081C2360FEF766FA431C03D12368002B54
S11323A000D02B6038BDC04680010020031C0A7891
S11323B001311A700133002AF9D170470023C25C3D
S11323C00133002AFBD1581E70470000F7B52A4D8F
S11323D0061C2C680091171C0193002C01D1274C7A
S11323E02C6063681F2B15DD254B002B02D10120C7
S11323F0404240E08C20FFF703FF041EF7D02A6818
S113240000230260021C88324360286013609E42ED
S11324100AD128E0002E26D0231C8833186800280F
S113242010D1174B002BE2D084204000FFF7E8FEC8
S11324300028DCD0031C0022FC335A609A60231C61
S113244088331860012261688A408B00C31880C3F6
S1132450FC304168114341600199D967022E02D1D1
S113246083681A438260002063685A1C62600233E6
S1132470009A9B001A51FEBD7C010020F000002050
S113248001220000F0B587B005900391344D2C680B
S1132490002C63D0231C88331E6863685A1E019283
S11324A0304A9B189B00F7180433E3180293019BEE
S11324B0002B3DDB039B002B07D0002E31D03B1CAF
S11324C080331B68039A93422BD16268029B019963
S11324D0013A5B68914201D1616002E000220299F5
S11324E04A60002B1DD062680492002E07D001229E
S11324F001998A40311CFC314868104201D1984747
S113250008E08968114203D105983968984701E0C9
S113251038689847049B62689342B7D12B68A342FA
S1132520B4D1019B043F013B0193029B043BBDE7F3
S11325300D4B002B12D062682368002A0BD1002BAC
S113254009D02B60002E02D0301CFFF763FE201C44
S1132550FFF760FE9BE7251C1C1C99E707B0F0BD44
S11325607C010020FFFFFF3F15220000FEE7C0466C
S11325700A0A0A0D426F6F74696E672057617270A0
S11325802C20696E20332E2E2E2000322E2E2E204B
S113259000312E2E2E0A0D000D785F6163633D20FD
S11325A0256420795F6163633D202564207A5F613F
S11325B063633D2025640A000D6175746F72657351
S11325C0203D2025640A00696E6974206D696320CA
S11325D0726561636865640A000D666C6167203D1D
S11325E02025640A000D6D6963206F75747075741D
S11325F0203D2025642C2025640A005465726D69F1
S11326006E616C00525454005345474745520030A4
S11326103132333435363738394142434445460044
S113262000B003400F08000000600640006007404F
S113263000001400010016000200180003001A0034
S113264004001C0005001E000900200006002200F2
S11326500A002400070028000C002C0010003000A1
S113266011003800120040000F004400130048001D
S1132670140050001500580019006000160068008E
S11326801A007000170080001C0090001D00A000BC
S11326901E00C0002200E0001F00F0002300000123
S11326A02400200125004001260080012A00C001E9
S11326B02700E0012B0000022C0040022D008002C4
S11326C02E000003320080032F00C00333000004F7
S11326D03400800435000005360000063A00000787
S11326E0370080073B0000083C0000093D00000A59
S11326F03E00000C3F00000F4300000004FEFF1FDB
S1132700F8B5C046F8BC08BC9E467047F8B5C0464C
S10B2710F8BC08BC9E467047AA
S10B2718ACDDFF7F01000000AD
S10727208904000024
S10727245D0400004C
S1132728010000000000000000000000000000009C
S1132738000000000000000000000000000000008D
S113274800000000F826000000000000000000005F
S1132758000000000000000000000000000000006D
S1132768000000000000000000000000000000005D
S1132778000000000000000000000000000000004D
S10F27880000000004FEFF1F0000000021
S9030531C6
