:1000000000060020310500005905000059050000D8
:1000100000000000000000000000000000000000E0
:100020000000000000000000000000005905000072
:100030000000000000000000590500005905000004
:100040005905000059050000590500005905000038
:100050005905000059050000590500005905000028
:1000600065140000590500006F14000059050000D8
:10007000590500005905000059050000B50D0000A4
:1000800059050000590500005905000059050000F8
:10009000BD080000D5080000590500005905000002
:1000A00059050000590500005905000059050000D8
:1000B00059050000590500005905000059050000C8
:10040000FFFFFFFFFFFFFFFFFFFFFFFFFE3DFFFFBF
:1004100008B5054B054803331B1A062B03D9044BBB
:10042000002B00D0984708BD94FFFF1F94FFFF1FCB
:10043000000000000648074908B5091A8910CB0FCB
:100440005918491003D0044B002B00D0984708BD21
:1004500094FFFF1F94FFFF1F0000000010B5074C22
:100460002378002B09D1FFF7D3FF054B002B02D0D7
:10047000044800E000BF0123237010BD94FFFF1F5C
:10048000000000003C34000008B5094B002B03D0ED
:100490000848094900E000BF08480368002B02D162
:1004A000FFF7C8FF08BD064B002BF9D09847F7E7C8
:1004B000000000003C34000098FFFF1F90FFFF1F6A
:1004C00000000000144B002B00D1124B9D4640222F
:1004D00092029A1A924600218B460F461148124A00
:1004E000121A02F0D2FC0D4B002B00D098470C4B97
:1004F000002B00D098470020002104000D000B487D
:1005000002F047FC02F07EFC2000290000F042FAD5
:1005100002F04EFC00000800000600200000000071
:100520000000000094FFFF1F1C030020DD2D0000D1
:1005300072B606480649074A02600A6000F09CFF4E
:1005400000F0DCFF62B6FFF7BDFF000080E100E0D5
:1005500080E200E0FFFFFFFF004800475905000070
:1005600002B4714649084900095C49008E4402BC46
:100570007047C046002243088B4274D303098B4264
:100580005FD3030A8B4244D3030B8B4228D3030C63
:100590008B420DD3FF22090212BA030C8B4202D305
:1005A0001212090265D0030B8B4219D300E0090A2D
:1005B000C30B8B4201D3CB03C01A5241830B8B4236
:1005C00001D38B03C01A5241430B8B4201D34B031F
:1005D000C01A5241030B8B4201D30B03C01A524184
:1005E000C30A8B4201D3CB02C01A5241830A8B4209
:1005F00001D38B02C01A5241430A8B4201D34B02F2
:10060000C01A5241030A8B4201D30B02C01A524155
:10061000CDD2C3098B4201D3CB01C01A5241830909
:100620008B4201D38B01C01A524143098B4201D343
:100630004B01C01A524103098B4201D30B01C01A6E
:100640005241C3088B4201D3CB00C01A52418308E8
:100650008B4201D38B00C01A524143088B4201D315
:100660004B00C01A5241411A00D201465241104675
:100670007047FFE701B5002000F0FCF802BDC0465E
:100680000029F7D003B5FFF775FF0EBC4243891A66
:100690001847C04603460B437FD4002243088B42D1
:1006A00074D303098B425FD3030A8B4244D3030BF9
:1006B0008B4228D3030C8B420DD3FF22090212BABE
:1006C000030C8B4202D31212090265D0030B8B423A
:1006D00019D300E0090AC30B8B4201D3CB03C01A24
:1006E0005241830B8B4201D38B03C01A5241430BFF
:1006F0008B4201D34B03C01A5241030B8B4201D3EF
:100700000B03C01A5241C30A8B4201D3CB02C01A59
:100710005241830A8B4201D38B02C01A5241430AD1
:100720008B4201D34B02C01A5241030A8B4201D3C0
:100730000B02C01A5241CDD2C3098B4201D3CB0167
:10074000C01A524183098B4201D38B01C01A524116
:1007500043098B4201D34B01C01A524103098B421A
:1007600001D30B01C01A5241C3088B4201D3CB0005
:10077000C01A524183088B4201D38B00C01A5241E8
:1007800043088B4201D34B00C01A5241411A00D298
:1007900001465241104670475DE0CA0F00D0494201
:1007A000031000D34042534000229C4603098B4271
:1007B0002DD3030A8B4212D3FC22890112BA030AF9
:1007C0008B420CD3890192118B4208D3890192117B
:1007D0008B4204D389013AD0921100E08909C30900
:1007E0008B4201D3CB01C01A524183098B4201D302
:1007F0008B01C01A524143098B4201D34B01C01AED
:10080000524103098B4201D30B01C01A5241C30864
:100810008B4201D3CB00C01A524183088B4201D3D3
:100820008B00C01A5241D9D243088B4201D34B00EE
:10083000C01A5241411A00D20146634652415B1030
:10084000104601D34042002B00D549427047634611
:100850005B1000D3404201B5002000F00BF802BD50
:100860000029F8D003B5FFF715FF0EBC4243891AE3
:100870001847C0467047C04608B50A4B1A68002A98
:1008800001D1094A1A601A6808491018884206D925
:1008900002F088FA0C2303600120404201E0186056
:1008A000101C08BDB0FFFF1F200300202103002003
:1008B00002238078834280414042704708B500207F
:1008C00001F02CFF002803D00020011C01F01AFFCA
:1008D00008BD0000024A1368013313607047C04628
:1008E000ECFFFF1F37B5002001F052F8C0230025B0
:1008F0000D4A9B0013600D4A0D4C13600D4A281CD5
:1009000013600D4B25716571A5711A68FA239B0060
:1009100053430A49236001F04FFF281C211C01AA00
:1009200001F08EFF37BDC046189014542090145427
:10093000D8FFFF1F2490145400FEFF1FF0FFFF1F7D
:1009400008B5002001F029F88023054A9B001360B8
:10095000044A00201360044901F022FB08BDC04690
:100960000CA0145410A01454B4FFFF1F08B50920A4
:1009700001F036FA08BD08B50C2001F031FA08BDC7
:1009800008B5FFF7F3FFFFF7F6FF8320400001F003
:1009900019FA08BD13B5002000F0E8FF012000F0AF
:1009A000E5FF80222C4B120201241A6000F086FE23
:1009B00000200094021C031C011C00F059FB274975
:1009C000002000F049FBFA20400000F059FE2449C5
:1009D000002000F041FBFA20400000F051FE2149C8
:1009E000002000F039FBFA20400000F049FE231CF3
:1009F0001D4A02211D4800F085FE211C201C00F02C
:100A00008DFE1B491B4801F0C1F90520FFF798FF37
:100A10001949682000F0A8F9FFF7B2FF752000F02F
:100A200033F9021CFE3422401449002000F00EFD70
:100A3000422000F029F9021C11492240002000F058
:100A400005FD00F043F800F01FFA00F05BF96420A8
:100A500000F016FEF9E7C0467802002025320000BB
:100A6000403200004632000010FEFF1F14FFFF1F3F
:100A700024FEFF1F14FEFF1FE0FFFF1F4D3200008A
:100A80005C32000037B50E24FF34051C201C01F039
:100A900099F9201C01F0A4F90C2001F0A1F901231F
:100AA000084A002015700093FA239B000193011C53
:100AB000054B01F021FF051C201C01F083F9281CC7
:100AC0003EBDC0464000002020000020C0235D4AFB
:100AD0009B0010B513605C4A85241360FFF702FF8A
:100AE00080235A4A5B001360594A64001360594AD4
:100AF000201C136001F066F9642000F0C1FD201C89
:100B000001F06EF9642000F0BBFD201C01F05AF9E1
:100B1000642000F0B5FDAE20FFF7B4FFA020FFF782
:100B2000B1FF7220FFF7AEFFA120FFF7ABFF00205F
:100B3000FFF7A8FFA220FFF7A5FF0020FFF7A2FF05
:100B4000A420FFF79FFFA820FFF79CFF3F20FFF79F
:100B500099FFAD20FFF796FF8E20FFF793FFB0209F
:100B6000FFF790FF0B20FFF78DFFB120FFF78AFF03
:100B70003120FFF787FFB320FFF784FFF020FFF756
:100B800081FF8A20FFF77EFF6420FFF77BFF8B2029
:100B9000FFF778FF7820FFF775FF8A20FFF772FFD5
:100BA0006420FFF76FFFBB20FFF76CFF3A20FFF7D1
:100BB00069FFBE20FFF766FF3E20FFF763FF872037
:100BC000FFF760FF0620FFF75DFF8120FFF75AFF68
:100BD0009120FFF757FF8220FFF754FF5020FFF7C7
:100BE00051FF8320FFF74EFF7D20FFF74BFFAF2023
:100BF000FFF748FF2620FFF745FF0120FFF742FFE0
:100C00002520FFF73FFF0020FFF73CFF0020FFF704
:100C100039FF5F20FFF736FF3F20FFF733FF8720C4
:100C2000FFF730FF0E20FFF72DFF032000F026F81E
:100C30000020FF21021C00F00FF800F019F800203E
:100C400010BDC046209014542490145434A0145461
:100C50003090145400A01454C008800183B2890855
:100C600019434901D20889B21143081C704700009A
:100C7000014B18807047C04660000020014B18707F
:100C80007047C04662000020F0B56B2200241B4B69
:100C90008BB01B7808AE338005AF06AB1A70387086
:100CA0005C700093022301250193F333FF33311C61
:100CB000221C0293201C231C099501F0ABFA0F2083
:100CC00000F0DEFC07AB0093FA235B000293019572
:100CD0002B1C201C311C3A1C01F0A9FA031EA34254
:100CE00008D0211C201C2A1C00F0B0FB201C044949
:100CF00000F0ACFB079BD8B20BB0F0BDE0FFFF1FCC
:100D0000C4320000F7B53B20FFF7BEFF071C0F20E1
:100D100000F0B6FC3C20FFF7B7FF041C0F2000F0EA
:100D2000AFFC3D20FFF7B0FF051C0F2000F0A8FC32
:100D30003E20FFF7A9FF0F2000F0A2FC3F20FFF7A5
:100D4000A3FF061C0F2000F09BFC4020FFF79CFF38
:100D50003A02144300962B1CA2B20249002000F074
:100D600075FBF7BDCB320000E02300B55B000870D7
:100D70004B600C4989B00878563B05AA06A9FF3B91
:100D800013700880002301205370486000920222F3
:100D90000192F332FF320292181C1A1C01F03AFA47
:100DA00009B000BDE0FFFF1F0122014B1A70704720
:100DB0007000002010B500240020211C032200F048
:100DC0005FFF00280DD0211C002000F049FF074ADA
:100DD00063009852064BA200D158002901D0D35885
:100DE0009847012C01D00124E6E710BD6C000020DB
:100DF00064000020F0B58BB06946061C00F0E6FDEB
:100E00006B461D495A88002000F020FB01A9301CC8
:100E100004AC00F0DBFD01A9301C00F031FE201C09
:100E200000F050FE002501270323211C301C2371F4
:100E30002770E570E571677200F056FE642302A921
:100E40000B80DB184B80281CC63B0B7100F0C0FEEA
:100E50000A4A0B4B301C1A60092307AA291C53604D
:100E600057721772157000F0D7FE8022281C054BB0
:100E70001A600BB0F0BDC046EB320000A90D0000B7
:100E8000640000201880845308B50949002000F050
:100E9000DDFA0020FFF7AEFF00200921021C00F060
:100EA000EFFE0449021C002000F0D0FA08BDC04645
:100EB000FA3200000C3300000269C3689A4203D87A
:100EC00080681018013800E0501EC01A7047F7B54E
:100ED0008368C668051C40680191141C9F1B80191B
:100EE000974203D901F0C8FFA4190AE001993A1CFE
:100EF00001F0C2FF019BE41BD9196868221C01F0B4
:100F0000BBFFEC60F7BD0023F7B5061C171CC568D6
:100F1000019100933369B468AB4200D81B19013BBF
:100F20005B1B641BBC4200D93C1C9C4200D91C1CAE
:100F30007368221C5819019901F09EFF009B2D191E
:100F40001B190093019B3F1B1B190193B368EB1AFC
:100F50005A1E93415B421D40F560002FDAD1009884
:100F6000FEBD0000022310B5104C114A23616361DD
:100F7000104BA261E3618023A2640F4A5B002362ED
:100F8000E26400231022A3626362E362A3656365E7
:100F9000E3652265E01D094902F030F8201C08498C
:100FA00002F02CF82023A37110BDC046840100205C
:100FB0001833000081000020710000202133000060
:100FC00025330000F8B51823451C5D434343141C2A
:100FD000134A0E1CD018C76A5519012F0FD0002FC5
:100FE00007D0022F17D1221C281CFFF78CFF041CEE
:100FF00014E0281CFFF760FFA0420ED305E0281C78
:10100000FFF75AFF844200D9041C281C311C221C03
:10101000FFF75DFF02E0002400E03C1C201CF8BD4F
:1010200084010020F8B50B4B071C1B780E1C151C07
:10103000002B01D1FFF796FFEFF31084012181F31C
:101040001088381C311C2A1CFFF7BCFF84F3108861
:10105000F8BDC0468401002038B5051C081C0C1CD6
:1010600001F0D4FF211C021C281CFFF7DBFF38BD58
:10107000F7B5164C01932378051C0F1C161C002B8A
:1010800001D1FFF76FFF23699D421CD2EFF310825D
:10109000012181F31088002D0CD01823691C5943BD
:1010A0006B43675061184E600199E3181962002183
:1010B0009962596218235D43089B6419E36282F3C5
:1010C0001088002001E001204042FEBD8401002084
:1010D000826810B5041C4068531C834205D8206800
:1010E0008154A360E3680133E360A26863689A42B5
:1010F0000CD120692168FFF795FFA368984203D0BF
:1011000001235B42E36001E00023A36010BD000007
:10111000F0B5051C1F1C081C012685B00A9C009117
:101120000192019B984204D30199FFF723FA0136FB
:10113000F7E70296BE4200D2029701230B9A1A40AB
:10114000039218D1002C01D1002414E00B9B20261F
:101150009B070DD5002F0BD1103609E0281C311C40
:10116000FFF7B6FFEB68013C002B04DB002CEBD053
:10117000029BA342F2D3EB68002B35DB0126012F43
:1011800001D9013F06E00098311CFFF7F3F9019BFC
:10119000984208D3019B5E43F1E7301C0199FFF7A9
:1011A000E9F9061E10D00098311CFFF7E3F9331C53
:1011B0004343009AD31A00930C4B195C281CFFF789
:1011C00087FFEB68002BE8DA039B002B0CD0002C88
:1011D0000AD0029BA34207D2281C2021FFF778FFE8
:1011E000EB68013C002BF2DA05B0F0BD2C330000B7
:1011F000F0B59FB00EAB099340230A930023161C51
:1012000006900B930D900C930B784C1C002B04D183
:101210000C9B0393002B22DC15E1252B16D1002516
:1012200002314F1E3B782B2B0CD003D8232B27D118
:10123000082308E02D2B03D0302B21D1022302E01C
:10124000012300E004231D430131EAE7191C09A82A
:10125000FFF73EFF211C0C9B002BD5DAD8E70B9A39
:10126000002A03D006980EA9FFF7DCFE0C9B03931F
:101270000B9B0493049A039B944663440C93E2E013
:1012800000243A78131C303B092B05D80A235C4311
:10129000303C0137A418F4E7002303932E2A0DD124
:1012A00001373A78131C303B092B07D80A230399DE
:1012B00001374B43303B9B180393F2E73978042303
:1012C0000A1C9A43682A01D10137F7E7642926D01E
:1012D00008D8582900D195E063291AD0252900D0D3
:1012E000AFE0ABE0732900D195E00DD8702900D0B4
:1012F000A7E032680021131D336008230191009399
:10130000116809A8102296E0752971D0782979D042
:1013100097E0336819681A1D3260C9B28EE03368ED
:101320001A1D1B683260DA17981804930123504085
:101330000593092805DD0A21FFF7ACF9059B013368
:10134000F6E7059B039A934200D20592002C05D044
:10135000049B002B01DB6B0700D5013CAB0702D5DA
:10136000039B002B10D0EB070ED4002C01D10024DE
:101370000AE0059BA34207D209A82021FFF7A8FE97
:101380000C9B013C002BF0DA0C9B0793002B58DBE5
:10139000049B002B04DA5B42049309A82D2103E08F
:1013A0006B0703D52B2109A8FFF792FE0C9B002B9E
:1013B00047DB03232B40022B11D1039B002B0ED1C3
:1013C000002C01D100240AE0059BA34207D209A802
:1013D0003021FFF77DFE0C9B013C002BF0DA0C9BCB
:1013E0000593002B2DDB0094019509A8049906E0D4
:1013F0003368009401951A1D1968326009A80A2201
:10140000039B18E0336800941A1D0195326009A807
:1014100019681022F4E733681A1D32601C682178BD
:10142000013400290DD009A8FFF752FE0C9B03934D
:10143000002BF4DA05E0FFF76BFE02E009A8FFF7E6
:1014400047FE791C07E70C981FB0F0BD0EB403B53A
:1014500003AB02CB01AA0193FFF7CAFE02B008BC9E
:1014600003B0184708B5002000F0C8FC08BD08B557
:10147000002001F06FF908BD082110B5164B9A78CD
:101480000A4202D09A780A439A70882200212220C8
:10149000124B52019950124A10708020114A40029A
:1014A00098501868104A024010481A601C58104A98
:1014B0002240C024A40422431A5080220D4B1972EA
:1014C0001A767F3A19705A700B4A11700C2299796A
:1014D0001142FBD110BDC04600D00740007004404F
:1014E00000E0074044100000FFFFF3FF041000007D
:1014F000FFFFFFF00040064000500640154B164825
:1015000010B5191E81420CD00022144B9B089B0081
:101510009A4203D084588C500432F9E7104B9960FA
:1015200001E00F4A936000230E4A0F49891A8B424B
:1015300004D0D45C0D48C4540133F8E700230C4AAE
:101540000C49891A8B4204D00024D018047001334E
:10155000F8E710BD000000000000000000000000DF
:1015600000ED00E064340000F835000000FEFF1FCD
:1015700094FFFF1F1C030020002341704360037091
:101580008360181C704710B54378041C0120FF2BA2
:1015900008D000F013FA63780133DBB2637000F017
:1015A00001FA002010BD38B5041C0D1C00F006FA2D
:1015B000E1682943E16000F0F5F9002038BD000042
:1015C00000220A4B9A641A1C40329A631A1C303269
:1015D0009A621A1C20329A611A1C10329A60044ACC
:1015E0001360044B9B60DB607047C0461002002014
:1015F0000C020020FC0100200022024B1A60186837
:1016000080B270470C007C5038B54378041C0D1C28
:10161000002B0BD0002500F0D1F96378013BDBB241
:101620006370257000F0BEF9281C28E00220002914
:1016300025D02378002B15D0FFF7DEFF6368A26862
:10164000984201D3C01A03E0C01A80235B02C0187D
:10165000824213D200F0B2F90023237000F0A2F905
:1016600002200CE04B1C09D000F0A8F901232370E4
:1016700000F098F9FFF7C0FFA5606060032038BD57
:1016800038B5051CFFF7B8FF041CFFF7B5FFA042F3
:1016900001D3001B03E08023001B5B02C0188542BE
:1016A000F3D238BD08B5012801D100F087F908BD93
:1016B00008B5012801D100F075F908BD10B5FFF794
:1016C0007FFF01230020084A08491360084A094C9B
:1016D0001060086004212160074C216007490B60FD
:1016E00007490860136010BD388004500000845022
:1016F00000000450000004510400045104000C5088
:101700000000045310B5044C206021710020A26039
:101710002373637310BDC04660020020F0B587B02C
:101720006B4602901B7A05AC23706B4603911B7BC2
:101730003D4D63702B79029A0420934271D92B7B23
:101740006B730123A37000230193374E0093337B07
:10175000009A371C93421AD9009BB2689B009B5891
:10176000002B10D01A79D2070DD51A68201C996861
:101770009047002807D06B461B787373039B002BA0
:101780003AD005230193009B0133DBB2DDE7019ED4
:10179000002E02D0039B012B2FD10120FFF782FFE7
:1017A0000C20029B58432B68181800F0A3F86B46D6
:1017B0001B7A01206B71FFF77BFF02230025A370CA
:1017C0003B7BAB4216D9BA68AB009B58002B0ED0BE
:1017D0001A7992070BD51A68201C9968904700283F
:1017E00005D0039B7D73002B1AD00623019301358E
:1017F000EDB2E5E7019814E005260023009FA370F1
:10180000013FFFB2FF2F09D0AA68BB009B58002BF5
:10181000F6D01A68201C99689047F1E7301C00E068
:10182000062007B0F0BDC0466002002013B50021BD
:101830000378041C0191022B07D0032B0BD0012B42
:101840000ED10279191C134801E00279114801AB4D
:1018500000F0ECFE08E001A90E4800F029FF03E0CB
:101860000C4801A900F0C6FE002812D1A3790A4A4B
:10187000DB01DBB213706378084A5B00DBB21370E4
:10188000A278074B1A70E278064B1A706279064B01
:101890001A7016BD0040064018408653004086501E
:1018A0000040065001400650184016501F22802369
:1018B00002405B05D2051A43044943099B005B18AB
:1018C0001A431068431E9841C0B2704728800440F4
:1018D0001F2280210240D3054905194343090448CA
:1018E0009B001B1819430123081C93400360704799
:1018F000288004400022072373B5041C104D009378
:10190000281C131C012100F017FF201CFFF78EFF7D
:101910000022637A217A0093281C131C00F00CFF2C
:10192000E379084A9B041360074BA17A1D68281CC1
:1019300000F0DAFE281CE17A00F0DDFE002076BD22
:101940000070044000700C595833000008B5054879
:1019500000F012FE044B1968C9B20131FEF70AFE0D
:1019600008BDC046004006404480145808B5024BEC
:10197000185CFFF7ADFF08BD3C33000008B5BB2085
:10198000FFF7A6FF08BD08B5BB20FFF78FFF08BD16
:1019900008B57620FFF79CFF08BD08B56620FFF765
:1019A00097FF08BD044A1368002B04D0013B136065
:1019B000002B00D162B670477002002072B6024A56
:1019C000136801331360704770020020F8B5284B8C
:1019D0008200D4580123002948D00F1C051CFFF7B2
:1019E000D2FF002802D1281CFFF7C8FF221C882341
:1019F000042124325B05134319601E4B0320191C7C
:101A000011430860211C1D1C002008310D43286073
:101A1000194D294360250D60211C20310B431860AE
:101A200098239C255B05194380236D0515430860A9
:101A30002B609C235B0523431B68012B07D0982355
:101A40005B0513431B68012BF3D102230EE0231C1B
:101A50000A4E283333431B68201C10343B80344328
:101A600001F058F82368002378802B60181CF8BD1B
:101A700040330000000008100000881200007810B9
:101A80000E4B820070B5061CD4580120002913D0DB
:101A9000301C0D1CFFF777FF002802D1301CFFF728
:101AA0006DFF231C0020064A298828331343196040
:101AB0002C346B881443236070BDC0464033000053
:101AC00000007810012300280CD00322002382702C
:101AD000023A03704370C270037143718371C37122
:101AE00003724372181C7047F8B5324B8200D55808
:101AF000012300295CD00C1C061CFFF73FFF281CAB
:101B000000F0DEFF62782B1C9C21501E82418C204D
:101B1000083349051943D2010A60A178264A4901D0
:101B20001A431160E178254A89001A431160244A5A
:101B30004005134394462279071C1A6063792A1CD6
:101B4000591E8B410C321743DB003B6088235B0539
:101B50001A43A3795F1EBB419B001360E3792A1CE3
:101B60009827591E8B4120327F0517439B013B600C
:101B700063461A43237A24351360637A05435A1E59
:101B80009341DB002B6023780E491F22002B08D0E5
:101B90008B5D1A40012393401A1C0B4B1A600023E3
:101BA00006E0895D0A40012191400A1C0749CA6785
:101BB000181CF8BD40330000000088120000081116
:101BC000000008104433000000E100E004E100E000
:101BD00038B50F4B8000C4580120002916D0231CB3
:101BE000942220335205134320221A600D1C201C1E
:101BF000097900F06DFF231C0020064A298818335C
:101C0000134319601C346B881443236038BDC046ED
:101C10004033000000007810104B800030B5C458ED
:101C20000120002A19D0201C90250C306D05284376
:101C300005681378EDB2AB4203D05D1EAB411B01CA
:101C40000360107A5368421E90411F2280011340A6
:101C500003430020890061180B6030BD4033000051
:101C6000054B8000C35889001031C918034B194334
:101C7000086880B27047C04640330000000078100A
:101C8000084B8000C3580020032A09D18900591845
:101C90009C235B0519430868013843425841C0B290
:101CA0007047C04640330000F7B5FF2403681C4A64
:101CB0001D0A25401C40AB009F581A4A061C9B5821
:101CC000281C0193FFF752FE211C0022381C00F053
:101CD00053FF019BA4001C19842332795B05234325
:101CE00052001A60802372795B0523431A609023A7
:101CF000B2795B05234312011A60F3790A4A14434F
:101D00001A042260002B0AD0084B5A5D002A06D024
:101D10001F23134001229A40131C054A1360F7BD8C
:101D2000643300005C330000000018186C330000BE
:101D300000E100E0F8B5FF24051C0368114A180A09
:101D400020401C4083009F580F4A9E58FFF70EFE0C
:101D5000381C211C012200F00FFF6A68381C211C6E
:101D600000F01AFF88232A7AA40034195B05234364
:101D700092001A6098235B051C436B7A9B012360D9
:101D8000F8BDC046643300005C33000038B50C1C5D
:101D9000002802D1002C09D112E003680133F9D0E8
:101DA000051C0835FFF780FF281CF6E72368013380
:101DB00006D0251C201C0C35FFF7BCFF2C1CF5E7BA
:101DC00038BD0000FF22030A13400240012090406A
:101DD00002499B005B5858607047C046643300005E
:101DE000FF22030A134002400120904002499B0059
:101DF0005B5898607047C0466433000008B5084BD4
:101E00008200D35894220233520513431B78002BCF
:101E100002D000F019FA01E000F06EFA08BDC046E9
:101E200048330000031C80220C33520513431B78F7
:101E3000002BF7D00171704738B50D1C084B80009E
:101E4000C458201C291C1830FFF7DEFB0328F8D0EB
:101E5000002801D004232374207CC0B238BDC046C2
:101E600074020020F0B589B00290161C8200374839
:101E7000059310580EAB019035481B78145800207C
:101E800007AA1080A27C8F0A04920122E274A27435
:101E90005A4253411E3FDBB203937B425F41FFB284
:101EA000CDB2874202D0CBB29C460D0A00216D0014
:101EB000EDB28F4204D1391C002E01D16B46197B43
:101EC0000D4307AB1D700122002F02D062465A70ED
:101ED0000222A360E2600198291CFFF7A3FF029889
:101EE0000F99FFF7A9FF237C002B0CD1002E0AD0FD
:101EF000059BA660E36031780198FFF793FF029895
:101F00000F99FFF799FF237C002B16D1039B002B21
:101F100013D0002F01D1002E0FD000230127A36082
:101F20000198E76000F090FE391C01982943FFF703
:101F300079FF02980F99FFF77FFF0023E3746B4648
:101F4000207C1B7CC0B2A37409B0F0BD48330000F4
:101F500074020020104A830010B598580F4A9C580C
:101F6000E37C002B05D0237C052B02D0237C042BA3
:101F700009D19822831C5205134300221A7000F0E5
:101F800075FE01236374A37C002B03D0201C183042
:101F9000FFF7F9FA10BDC046483300007402002074
:101FA000F7B5194B8700FB5801250093174BFE58D6
:101FB000002E26D10C1C24220190081C311C00F09C
:101FC00064FF201C311C1830FFF7D6FA0198FFF788
:101FD000E4FC009800F0E8FD0C4B019AFC500C4B1F
:101FE0009A5C1F2313402A1C9A40131C094A136051
:101FF0009C22009B52050233134380226574351CDA
:102000001A70281CFEBDC046483300007402002030
:102010004533000000E100E00A4B800070B5C55870
:10202000094BC6584B68726993420AD00C1CFFF7E3
:102030008DFC0023011C6268281C00F0C3FD63684E
:10204000736170BD4833000074020020F0B587B0A2
:102050000FAC334F334D267884006559E459677CC3
:10206000002F02D10320207458E0002E01D11E273A
:102070000E9705930023A674E360A3602374236086
:102080006374071C04920391FFF7C6FF902310218D
:10209000AA1C5B05134319708421EB1C49050B43F3
:1020A0000221197098235B05134302934023029A7F
:1020B000281C137000F0C8FD039B381C19880123ED
:1020C00000930E9B049A0193059BFFF7CBFE0D9B9B
:1020D000002B15D0237C002B0FD10C9B281CA36058
:1020E0000D9BE3600C9B1978FFF79CFE002E13D02C
:1020F000381C0E99FFF7A0FE0EE0237C042B0BD1B9
:1021000000230126029A1370EB785B09334202D058
:10211000281C00F0ABFD6674207CC0B207B0F0BD97
:102120007402002048330000F0B58BB013AC247863
:10213000364E374D039484006559A459667C002EB1
:1021400002D1032020745FE0039E002E01D11E36D1
:1021500012960993109B00262360119BA660636072
:102160006B461B7BE660A374267466740791089225
:102170000490FFF751FF9023AF1C5B053B43059391
:102180001023059A281C13708422EB1C520513435C
:1021900002221A7098235B053B4306934023069A5C
:1021A000137000F051FD079B089A1988129B009646
:1021B00001930498099BFFF755FE227CD2B2B242EC
:1021C00012D1059B11991A708C235B053B430129A1
:1021D00000D108221A702B79039B002B12D004988F
:1021E0001299FFF729FE0DE0237C042B0AD1069BF0
:1021F0001E700126EB785B09334202D0281C00F0E8
:1022000035FD6674207CC0B20BB0F0BD74020020B6
:10221000483300001FB5069C0094079C0194089C5D
:10222000029401240394FFF711FF04B010BD1FB501
:10223000069C0094079C0194089C0294012403943A
:10224000FFF772FF04B010BD842138B5244B820023
:10225000D5584905EB1C0B4302211970214BD4586A
:1022600090226B1852051A431278E978D2B2890687
:1022700034D5942149051943097800292ED0012A23
:1022800015D1EB78134202D0052323740CE0E368E8
:10229000013BE360002B07D0A368281C5A1CA260F6
:1022A0005978FFF7BFFD19E0FFF754FE16E06268AA
:1022B000013A6260002A06D08C214905012A05D125
:1022C0000B43082204E0FFF745FE02E000220B4327
:1022D0001A7023685A1C22602A791A7038BDC046C9
:1022E0004833000074020020842303305B05184348
:1022F0000223037070470000902149050A1CF0B5C5
:102300008F4B071C8000C55889B0EB1C0493EB78F9
:10231000EE78DBB20593F3B20693AB1D1A439446F5
:1023200012789826D2B20792942252051A43147852
:102330007605621E9441E2B2824C33430459A81CD4
:102340000090084301921A780178D2B2C9B2039181
:102350000199029000292FD0079900290CD0102351
:102360006246281C1370FFF7BFFF236BF8B20121F0
:10237000002B00D0DCE0E0E0002A1DD04022281C29
:102380001A70FFF7B1FF231C2C331B78002B02D1EE
:10239000009A16433370236B002B03D0F8B28021D0
:1023A000626B9847E37D002B04D0201C80211830FD
:1023B000FFF7F9F80A23BFE0069B281C9E110123B2
:1023C0001E40FFF791FF0122059B1B11134219D0FC
:1023D0009023049A5B05134310221A70002E04D038
:1023E000EB785B07DB0F10D11AE0082323702C3445
:1023F0002278002A00D0A0E0982300995B050B43C7
:102400001A709AE0002E16D0EAE71023029A137091
:10241000236B002B6ED0F8B20221626B984769E003
:10242000029A1370236B002B03D0F8B20421626B65
:1024300098472B7981E0039B012B29D1EB78039AF4
:10244000134257D0029B1E702B79231C2C331B7810
:10245000002B09D1019B002B06D19823009A5B0524
:1024600013436A4612791A70236B002B03D0F8B21B
:102470000821626B9847A37D002B04D0201C082103
:102480001830FFF790F800236360E360237554E091
:102490002B79A268DBB2002A2AD022691370236943
:1024A00001332361A368013BA360A368002B44D1DF
:1024B000019B002B13D1231C2C331B78002B06D13E
:1024C0009823009A5B0513436A4612791A70E37DDC
:1024D000002B04D0201C20211830FFF764F80023C3
:1024E00063752361236BF8B22021002B20D124E0F7
:1024F000072321E06368002B1DD0E3681A782B1CAA
:1025000080210C3349050B431B78002BF7D02A712F
:10251000E3680133E3606368013B63606368002B39
:102520000BD1E3602375236B002B06D01021F8B28A
:10253000626B984701E00623237009B0F0BDC046E6
:10254000483300007402002084235B0503431A789B
:1025500000239A4209D0802301305B051843037899
:10256000012B01D0024B00E0024B181C7047C04603
:1025700080841E0000127A0010B50D4A831D13439B
:102580001B78DBB2002B10D0012B08D1041CFFF705
:10259000DBFF084B08341C432378D84006E00020BA
:1025A000022B03D1044B186800E0044810BDC0465C
:1025B000000008110000901078020020006CDC027E
:1025C0000B4A831D13431B78DBB2012B06D0181E68
:1025D0000CD00320022B09D0052007E08023013016
:1025E0005B05184300784342584101307047C046AC
:1025F00000000811021C031C9C20183340050343F3
:10260000802018700020064B134318700548931D56
:1026100003431B78D8B20028F8D1034B0B607047F6
:102620000000081300000811006CDC02F8B5041C5F
:102630000D1C171C1E1CFFF7C3FF012802D1002D23
:1026400004D007E0022805D1012D03D1201C311C44
:10265000FFF7D0FF8022631C520513431D708423B3
:1026600002225B0523431A70231C0C4A08331343D0
:102670007A00D2B21A704022094B23431A70094AD9
:10268000A31D13431B78012BF9D1002D01D1064A5C
:1026900000E0064A3A4100203260F8BD0000901088
:1026A000000008130000081180841E0000127A0048
:1026B0000A4B10B51C681A1C0123002C0CD0802476
:1026C000074B03431C70074C831D23431B78022BCD
:1026D000F9D113680B600023181C10BD780200208C
:1026E00000000813000008119C23C9015B05184372
:1026F000C9B201707047942349015B051843C9B200
:10270000017070478822044B8000C35852051C3367
:1027100013438900196070474C3300008822054B31
:102720008000C3585205143313431868431E984160
:10273000C0B270474C3300006B46E0221B78D202D7
:102740001B04134009071943014BC018016070476F
:102750004410000008B5084B8200D3589022033380
:10276000520513431B78002B02D000F0F1F801E072
:1027700000F056F908BDC0465433000008B50C4BB4
:102780008000C2580B4B0021C3589C2003334005E6
:102790001843117101709420400503431970137F91
:1027A0008B4203D02032101CFEF7EDFE08BDC04660
:1027B0007C02002054330000F7B5061C1C4B30226D
:1027C0000C1C8700081C0021FD5800F05EFB301C2B
:1027D000FFF7DEF8FFF7BAF82060281C00F063FA74
:1027E000201C00212030FEF7C7FEEB1C0193902334
:1027F000019A5B0513431022281C1A70032100F074
:1028000092FA281C002100F0B4FA0A4BFC500A4B43
:102810009A5D1F23134001229A40131C074A13603C
:102820009823019A5B05134340221A70F7BDC046F6
:10283000543300007C0200205033000000E100E02F
:102840000A4B800070B5C658094B0C1CC358151CA8
:10285000301C1A68096800F02DFA28602179301CB4
:102860006279A37900F072FA70BDC046543300005B
:102870007C020020F7B51E4A83009C581D4A9E58D2
:1028800022790423002A31D1071C002902D001AA91
:10289000FFF7D6FF982300214020F21C5B0513436D
:1028A0001970187025698D4203D1381CFFF766FF37
:1028B0001BE00123237194235B053343A161197845
:1028C0000723002912D0A368191E02D019780133FA
:1028D000A360B1712369013B2361A3690133A36143
:1028E0009C235B051A43802313700023181CFEBD34
:1028F0007C02002054330000F8B5134F134C8500C0
:102900002C59ED590127069E2777A2602661E360C6
:102910006661FFF7AFFF061E14D1201C0799203017
:10292000FEF772FE0328F8D000280BD09C2100226D
:10293000EB1C4905194322710A70942103264905AD
:102940000B431A70301CF8BD543300007C02002089
:1029500010B51E4B8200D3581D4951581A79002AD0
:1029600032D05A69002A11D09C2252050A431278AB
:10297000002A0BD08A79DC68D2B2002C03D02270F6
:10298000DA680132DA605A69013A5A611A69002A32
:1029900012D0942252050A431278002A0CD09A6869
:1029A000141E02D0147801329A608C711A69013AAF
:1029B0001A619A6901329A611A69002A04D15B6925
:1029C000002B01D1FFF7DAFE10BDC0467C020020CB
:1029D00054330000104A80008158002208B50F4B84
:1029E0000331C358581CC2779C2040050843DA6263
:1029F0001A701A835A629A621A6302709420400510
:102A000001430A701A1C38321278002A03D0181DAC
:102A10000121FEF7C8FD08BD543300007C020020F0
:102A200038B5254B8200D35824495258591CC97FC8
:102A300000293FD0D96A002916DB942149051143AA
:102A40000978002910D0596A1C7F002905D0DD6A59
:102A5000002D02DD0C78013159629471D96A013977
:102A6000D962596B01315963D96A002905DA942476
:102A7000D11C6405214300240C70196B002911DD61
:102A80009C2149051143097800290BD09279996A54
:102A9000D2B2002903D00A709A6A01329A621A6B84
:102AA000013A1A63DA6A002A04DC1B6B002B01DC92
:102AB000FFF790FF38BDC0467C0200205433000071
:102AC00000238360C3608361C36103624362704714
:102AD00000B5031C03291BD89022081C8C2120332D
:102AE000520549051A43FDF73BFD02070C0E002075
:102AF0000B43106018600BE010200B4310600022A5
:102B000005E0002000E01020106008220B431A604E
:102B100000BD0000031C021C10B51349134C4C33BC
:102B200048320B4322431B681268114CD218031C15
:102B3000443323431B688224D218031C64054033AA
:102B400023431B680B4CD218031C3C3323431B68E4
:102B500038300843D2180368D018802380B21B0293
:102B60004008184310BDC046000028100000301077
:102B7000000038100000481014308023012A04D1CE
:102B80008A401B051843026005E0DB04184301235B
:102B90008B40D9430160704701238B40002A01D04C
:102BA000436000E0836070470023C22203704370DB
:102BB0008370C37043718371C371037242728372F5
:102BC000C3727047F0B5002789B00393FA2301253B
:102BD0003C1C9B0053430690079102936D42019762
:102BE0000123A3400493174B9E1CCA330593049BF7
:102BF000318807985943FDF7BDFC029B029AC31A1E
:102C0000824200D9131AAB4204D2B21E1778019443
:102C10001D1E03D0059B04369E42E8D10134032CCF
:102C200001D0002DDCD1039B002B00D01D603F2381
:102C30001F40019B9B011F43069BFFB25F7009B0C1
:102C4000F0BDC0466E330000942302305B050343A1
:102C50001B78002B04D088235B051843042303E072
:102C600080231B0518433023037070479422831C74
:102C700052051A431278011C0220012A12D1802227
:102C8000D2041343CF221A708022D2002023C878A6
:102C9000034004D0013A002A03D0C046F6E7181CCE
:102CA00000E0092070470423C37000238370437041
:102CB00003717047F0B5130B89B001250493082305
:102CC00000266D4203935B190790059106920293CB
:102CD00002270024731C191C069879430193FDF701
:102CE00049FC059B834206D31B1A9D4203D91D1C38
:102CF00004900394029601347F00092C02D0002D29
:102D0000E8D104E0072E02D0019E002DE0D1702210
:102D1000029B04981B011340039A1343079ADBB2EA
:102D2000537009B0F0BD8422C31C52051A4301231D
:102D30000B405B00DBB2137090238907C90F5B0562
:102D4000023009011843C9B20170704710B58C24D4
:102D500003306405C9000443C9B221708821920080
:102D600049050143D2B20A70802252051043037014
:102D700010BD8023012202305B0503430A401A7014
:102D80008C238907C90F5B05C9001843C9B20170BC
:102D90007047011C002008B5021C031C00F03EF91E
:102DA00008BD0000014B18687047C0468CFFFF1F2C
:102DB000084B10B5041C002B02D0002100F08AF94A
:102DC000054B1868836A002B00D09847201C00F040
:102DD000F5F9C046D53000003834000038B5074B4F
:102DE000074C1D1CE41AA410002C04D0013CA300C5
:102DF000EB589847F8E700F027FB38BD6034000037
:102E0000643400000E4B70B500251E1C0D4CE41AF6
:102E1000A410A54204D0AB00F35898470135F8E759
:102E200000F00CFB084B00251E1C084CE41AA410F3
:102E3000A54204D0AB00F35898470135F8E770BDC0
:102E40005C3400005C3400005C340000603400003E
:102E500008B5034B011C186800F066F808BDC046B1
:102E60008CFFFF1F08B5034B011C186800F016F813
:102E700008BDC0468CFFFF1F002310B5934203D04E
:102E8000CC5CC4540133F9E710BD031C8218934293
:102E900002D019700133FAE77047000030B50029FD
:102EA0003ED004390B68002B00DAC9181D4A13689C
:102EB000141C002B02D14B60116031E099420DD2FD
:102EC00008680A189A4203D11368C3180B60536844
:102ED0004B60216024E08A4203D8131C5A68002A00
:102EE000F9D11D685C198C420BD109686918581812
:102EF0001960904214D110685268091819605A601C
:102F00000EE08C4202D90C23036009E008680C181B
:102F1000944203D114685268001908604A605960ED
:102F200030BDC04684020020032370B5CC1C9C43F6
:102F30000834051C0C2C01D20C2405E0002C03DA0B
:102F40000C2300202B6042E08C42F9D3204A136806
:102F5000101C191C002913D00A68121B0DD40B2A4F
:102F600002D90A608B181FE08B4202D15A680260B6
:102F70001BE04A685A600B1C17E00B1C4968E9E724
:102F8000144E3368002B03D1281C00F025F8306064
:102F9000281C211C00F020F8031C421CD0D0032266
:102FA000C61C964386420AD11C60181C07210B30B0
:102FB0001A1D8843821A0AD05142995007E0311AEB
:102FC000281C00F009F8431CBAD0331CECE770BD94
:102FD000840200208002002038B50023064C051C26
:102FE000081C2360FDF748FC431C03D12368002B19
:102FF00000D02B6038BDC04618030020031C0A789F
:1030000001311A700133002AF9D170470023C25CE4
:103010000133002AFBD1581E70470000F7B52A4D36
:10302000061C2C680091171C0193002C01D1274C21
:103030002C6063681F2B15DD254B002B02D101206E
:10304000404240E08C20FFF703FF041EF7D02A68BF
:1030500000230260021C88324360286013609E4295
:103060000AD128E0002E26D0231C883318680028B7
:1030700010D1174B002BE2D084204000FFF7E8FE70
:103080000028DCD0031C0022FC335A609A60231C09
:1030900088331860012261688A408B00C31880C39E
:1030A000FC304168114341600199D967022E02D179
:1030B00083681A438260002063685A1C626002338E
:1030C000009A9B001A51FEBD1403002088020020C4
:1030D000512E0000F0B587B005900391344D2C6857
:1030E000002C63D0231C88331E6863685A1E01922B
:1030F000304A9B189B00F7180433E3180293019B96
:10310000002B3DDB039B002B07D0002E31D03B1C56
:1031100080331B68039A93422BD16268029B01990A
:10312000013A5B68914201D1616002E0002202999C
:103130004A60002B1DD062680492002E07D0012245
:1031400001998A40311CFC314868104201D19847EE
:1031500008E08968114203D105983968984701E071
:1031600038689847049B62689342B7D12B68A342A2
:10317000B4D1019B043F013B0193029B043BBDE79B
:103180000D4B002B12D062682368002A0BD1002B54
:1031900009D02B60002E02D0301CFFF763FE201CEC
:1031A000FFF760FE9BE7251C1C1C99E707B0F0BDEC
:1031B00014030020FFFFFF3F652E0000FEE7C0461E
:1031C0001B5B306D1B5B343B34336D1B5B313B331E
:1031D000376D0D53616E69747920436865636B20A8
:1031E0004661696C6564211B5B306D0A001B5B30B6
:1031F0006D1B5B343B34316D1B5B313B33376D0DE5
:10320000496E76616C696420737570706C79207694
:103210006F6C74616765205B25645D206D56211BB2
:103220005B306D0A000A0A0A0D426F6F74696E679F
:1032300020576172702C20696E20332E2E2E2000B4
:10324000322E2E2E2000312E2E2E0A0D0077686F82
:103250005F616D5F49203D2025640A0074656D70D3
:10326000203D2025640A0077617665666F726D5B8C
:1032700025645D203D2025640A00736D6173685FDD
:103280006E6F726D203D2025642C206C6966745F22
:103290006E6F726D203D2025642C2064726F705F0C
:1032A0006E6F726D203D2025642C20636C65617209
:1032B0005F6E6F726D203D2025640A00736D61732F
:1032C000680A0A000D6661696C0A000D785F616327
:1032D000633D20256420795F6163633D2025642080
:1032E0007A5F6163633D2025640A000D6175746F28
:1032F000726573203D2025640A00696E6974206D33
:10330000696320726561636865640A000D666C61BB
:1033100067203D2025640A005465726D696E616CFA
:103320000052545400534547474552003031323320
:10333000343536373839414243444546898A00009E
:1033400000B003400F0800000060064000D00340BA
:103350000A00000000600740005006400090044052
:1033600000A0044000F00F4040F00F401E1F00007E
:103370001400010016000200180003001A000400E7
:103380001C0005001E0009002000060022000A00A3
:103390002400070028000C002C0010003000110051
:1033A0003800120040000F004400130048001400D1
:1033B00050001500580019006000160068001A003F
:1033C0007000170080001C0090001D00A0001E006F
:1033D000C0002200E0001F00F000230000012400D4
:1033E000200125004001260080012A00C00127009D
:1033F000E0012B0000022C0040022D0080022E0074
:103400000003320080032F00C003330000043400A7
:10341000800435000005360000063A00000737003A
:1034200080073B0000083C0000093D00000A3E0008
:10343000000C3F00000F43002CFFFF1FF8B5C046F3
:10344000F8BC08BC9E467047F8B5C046F8BC08BC3E
:043450009E467047DD
:0834540070D0FF7F01000000B1
:04345C0089040000DF
:043460005D04000007
:1034640001000000B108000003000000000000009B
:1034740004FEFF1F0101000001010000FFFFFFFF28
:103484000000000000000000010000000100000036
:103494000100000001000000010000000200000023
:1034A4000100000001000000050000000100000010
:1034B40001000000080000000100000001000000FD
:1034C4000C000000010000000100000009000000E1
:1034D40001000000010000000501000001000000DF
:1034E40001000000060100000100000001000000CE
:1034F4000701000001000000010000000A010000B3
:1035040001000000010000000B01000001000000A8
:10351400010000000D010000010000000100000096
:10352400020100000100000001000000030100008E
:10353400010000000100000004010000010000007F
:10354400010000000600000001000000010000006E
:103554000700000001000000010000000900000055
:103564000100000001000000FFFFFFFF0000000059
:103574000000000001010000000000000001000044
:103584000000000000000100000100000000000035
:103594000000000000000000000000000000000027
:1035A40000000000000000000000000036340000AD
:1035B4000000000000000000000000000000000007
:1035C40000000000000000000000000000000000F7
:1035D40000000000000000000000000000000000E7
:1035E4000000000000000000000000002CFFFF1F8E
:0435F40000000000D3
:0400000300000531C3
:00000001FF
